:02000000ED28E9
:0E0006008312031322088A00210882000800DA
:1000140003208A110A128000840AA10A0319A20A81
:08002400F003031D0A28080087
:10002C0083120313D101D2018F308605AF308316B2
:10003C0086050D30FC00FB30FD00FD0B2328FC0B6E
:10004C00232800000000503083128604861A2F28C3
:10005C002C280330FC009730FD00FD0B3328FC0BE3
:10006C00332800000000861A3C2839280330FC0095
:10007C009730FD00FD0B4028FC0B402800000000D1
:10008C00861E492846280D30FC00FB30FD00FD0B78
:10009C004D28FC0B4D28000000008F3086050330E6
:1000AC00FC009730FD00FD0B5928FC0B5928000073
:1000BC0000008F3083168605831250086F3A031D9B
:1000CC009128D101D20180305206F00080307002AC
:1000DC00031D722808305102031890280616861644
:1000EC003430FC00F130FD00FD0B7A28FC0B7A2833
:1000FC00000000008F3086053430FC00F130FD002C
:10010C00FD0B8628FC0B862800000000D10A031981
:10011C00D20A6928BF285008663A031DBF28D101AE
:10012C00D20180305206F00080307002031DA028EE
:10013C00083051020318BF288F30860586163430DC
:10014C00FC00F130FD00FD0BA928FC0BA9280000D8
:10015C0000008F3086053430FC00F130FD00FD0BC3
:10016C00B528FC0BB52800000000D10A0319D20AEF
:10017C0097285030860486163430FC00F130FD0090
:10018C00FD0BC628FC0BC628000000008F3086052E
:08019C00703083168604080090
:1001A4007130831603138F00831203179E019F017E
:1001B40099019A019601831603138501831286011E
:1001C4007F308316860083128701073083168700E9
:0601D40083128501080002
:1001DA00663083120313A000C701C8016E30C9003C
:1001EA001030CA000030CB002030CC000030CD00E7
:1001FA004030CE000030CF00D220F83087041530CE
:10020A00FB004B30FC00BE30FD00FD0B0A29FC0B45
:10021A000A29FB0B0A2900000730870570300605FA
:10022A00F3004E084A07F1004B080318013E4F0736
:10023A00F20000307206031D242971087306031D9B
:10024A001B2AC701C80180304806F00080307002BE
:10025A00031D3129093047020318A9294C0806054C
:10026A00F00000304D05F10070087104031D4029AB
:10027A000130850033290330FC009730FD00FD0B67
:10028A004429FC0B44290000000080304806F00095
:10029A0080307002031D53290830470203186B2966
:1002AA004708F0004808F100F00DF10D70107008D1
:1002BA00233E84004A080605F00000304B05F10091
:1002CA00700880007108840A80008E290030480670
:1002DA00031D712908304706031D8E294708F000BF
:1002EA004808F100F00DF10D70107008233E8400EB
:1002FA004E084A07F0004B080318013E4F07F10069
:10030A000608F0050030F105700880007108840ABB
:10031A0080004C080605F00000304D05F100700819
:10032A00710403199B29043085008E290330FC00CF
:10033A009730FD00FD0B9F29FC0B9F290000000050
:10034A00C70A0319C80A28294E084A07F1004B08A8
:10035A000318013E4F07F20034087206031DB7293D
:10036A0071083306031D1A2AC701C80180304806DE
:10037A00F00080307002031DC429083047020318B8
:10038A00E3294708F0004808F100F00DF10D70105C
:10039A007008353EF2007008233E84000008F00021
:1003AA00840A0008F100720884007008800071084D
:1003BA00840A8000C70A0319C80ABB2907308705BF
:1003CA007F308605370838040319EC29871739085E
:1003DA003A040319F229403087003B083C04031908
:1003EA00F72987153D083E040319FC2907163F081B
:1003FA0040040319012A8716861B0A2AF8300705C2
:10040A00F000031D0A2AF0010C2A0130F0007008DE
:10041A00031D122A6630A000142A6F30A000703023
:10042A000605F00003191A2A142A3F2A071C3F2A34
:10043A002730FC00F530FD00FD0B212AFC0B212A98
:10044A00071C3F2A20086F3A031D322A6630A00093
:10045A006630C900073087053C2A2008663A031D22
:10046A003C2A6F30A0006F30C900F8308704490871
:10047A00D00016208312071C432A3F2A8F30860594
:06048A00C9011329472AF5
:02400E00F40FAD
:00000001FF
