:060000000A128A112A29F0
:100108001434003480340034403400342034003453
:100118001034003408340034043400340234003419
:10012800013400345F30831203138800E330860003
:100138008817CE3084009E30FF000A128A150027E7
:100148000A128A118700A82808007E088A007F08FA
:1001580082000A128A11A9200A128A118000840AD0
:1001680004087D0603190034FF0A0319FE0AAD28A6
:100178003F30831203138800E33086008817700825
:10018800D43EF20071080318013E033EF3009A3092
:100198007307FF00FA30720784000318FF0A0A1277
:1001A8008A1500270A128A118700DA2808008312A4
:1001B8000313850107308316031385008312031385
:1001C800860183160313860183120313870183169E
:1001D800031387018312031388018316031388010D
:1001E800E030831203139F000730831603139F0028
:1001F80007309C009D010800F401F5010329701CDB
:10020800062907290D297208F4070318F50A730847
:10021800F50701300310F20DF30DFF3E031D0E2903
:1002280001300310F10CF00CFF3E031D1529710875
:100238007004031D20292129032922297508F101A9
:10024800F1077408F001F007292908008317D63050
:10025800FD000130FE006530FF00903084000A1276
:100268008A11AD200A128A115630FD000130FE00B5
:10027800AB30FF00103084000A128A11AD200A1238
:100288008A118313B030FD000030FE008630FF0075
:10029800A03084000A128A11AD200A128A11831232
:1002A80003130A128A1184200A128A11ED000A1215
:1002B8008A1185200A128A11EE0083010A128A1116
:1002C800F12923344F3443344B34503449345434B3
:1002D80000343734343426340034003400340034E5
:1002E8000034003400340034003400340034003466
:1002F8000034003400340034003400340034003456
:100308000034003400340034003400340034003445
:100318000034003400340034003400340034003435
:100328000034003400340034003400340034003425
:100338000034003400340034003400340034003415
:1003480000340034003400340034003400342334E2
:100358004F3443344B3450344934543400343734F4
:10036800343426340034003400340034003400348B
:1003780000340034003400340034003400340034D5
:1003880000340034003400340034003400340034C5
:1003980000340034003400340034003400340034B5
:1003A80000340034003400340034003400340034A5
:1003B8000034003400340034003400340034003495
:1003C8000034003400340034003400340034003485
:1003D8000034003400340034003483120313CF0196
:1003E800D001B501B601DB01DC01B701B801E101BB
:1003F800E201B901BA01BB01BC01BD01BE01E301C3
:10040800E4013030DD007530DE001E30C7000030FA
:10041800C800C901CA01CB01CC01CD01CE010A1225
:100428008A11DB200A128A114B3083120313EB0066
:100438000430EC001F2A831203130508A700A80143
:10044800483084009F30FF000A128A1500270A12DC
:100458008A11A9000A128A1500270A128A11AA000D
:10046800463084009F30FF000A128A1500270A12BE
:100478008A11AB000A128A1500270A128A11AC00E9
:1004880029082B07AD002A0803182A0A2C07AE00F2
:1004980027082D05AF0028082E05B00030082F04C6
:1004A8000319572A582AA72ED101D2015208803A97
:1004B800FF0080307F02031D632A02305102031CB3
:1004C800662A672A692A7F2A7F2A01308312031342
:1004D800D1070318D20A0030D2075208803AFF0029
:1004E80080307F02031D7A2A02305102031C7D2AC4
:1004F8007E2A692A7F2A831203130508A700A80108
:10050800483084009F30FF000A128A1500270A121B
:100518008A11A9000A128A1500270A128A11AA004C
:10052800463084009F30FF000A128A1500270A12FD
:100538008A11AB000A128A1500270A128A11AC0028
:1005480029082B07AD002A0803182A0A2C07AE0031
:1005580027082D05AF0028082E05B00030082F0405
:100568000319B72AB82A642E8501FD3083160313B0
:1005780085000230831203138500D301D401540887
:10058800803AFF0080307F02031DCC2A03305302DB
:10059800031CCF2AD02AD22AE82AE82A013083125B
:1005A8000313D3070318D40A0030D4075408803A39
:1005B800FF0080307F02031DE32A03305302031C2F
:1005C800E62AE72AD22AE82A83120313850107308C
:1005D800831603138500F92A013083120313E307F6
:1005E8000318E40A0030E407F92A83120508A70073
:1005F800A801483084009F30FF000A128A1500279E
:100608000A128A11A9000A128A1500270A128A11E9
:10061800AA004A3084009F30FF000A128A1500277A
:100628000A128A11AB000A128A1500270A128A11C7
:10063800AC00463084009F30FF000A128A1500275C
:100648000A128A11AD000A128A1500270A128A11A5
:10065800AE002B082D07AF002C0803182C0A2E0714
:10066800B00029082F07B1002A0803182A0A300702
:10067800B20027083105B30028083205B400340851
:100688003304031D482B492B592B6408803AA700D3
:100698005E08803A2702031D532B5D086302031C82
:1006A800562B572BF02A592B592B83120313E3018E
:1006B800E401672B013083120313E3070318E40AEC
:1006C8000030E407672B0508A700A801483084001C
:1006D8009F30FF000A128A1500270A128A11A90002
:1006E8000A128A1500270A128A11AA004A308400C1
:1006F8009F30FF000A128A1500270A128A11AB00E0
:100708000A128A1500270A128A11AC0046308400A2
:100718009F30FF000A128A1500270A128A11AD00BD
:100728000A128A1500270A128A11AE002B082D0713
:10073800AF002C0803182C0A2E07B00029082F0731
:10074800B1002A0803182A0A3007B2002708310521
:10075800B30028083205B400340833040319B52B54
:10076800B62BC62B6408803AA7005E08803A270299
:10077800031DC02B5D086302031CC32BC42B5E2B17
:10078800C62BC62B83120313E301E401E901EA0136
:100798006A08803AFF0080307F02031DD52B8C3019
:1007A8006902031CD82BD92BDB2BD32DD32D831215
:1007B8000313E501E6016608803AFF0080307F02F6
:1007C800031DE82B09306502031CEB2BEC2BEE2BE9
:1007D800EE2CEE2C831203136608F101F10765086D
:1007E800F001F0070A128A11BC200A128A11052C9E
:1007F800013083120313E3070318E40A0030E40707
:10080800052C4A3084009F3083120313FF000A121C
:100818008A1500270A128A11A70005082705031D53
:10082800162C172C272C6408803AA7005E08803AFB
:100838002702031D212C5D086302031C242C252C90
:10084800FC2B272C272C83120313E301E4016608F1
:10085800803AFF0080307F02031D342C0830650287
:100868000318372C382C4E2C463084009F308312C6
:100878000313FF000A128A1500270A128A11A7001B
:1008880005082705A80065083F3E8400280883134B
:100898008000B42C08308312031365066604031D18
:1008A800562C572CB42C483084009F30FF000A1275
:1008B8008A1500270A128A11A700463084009F3043
:1008C800FF000A128A1500270A128A112707050550
:1008D800A80065083F3E840028088313800048303C
:1008E80084009F30FF000A128A1500270A128A1115
:1008F800A7000A128A1500270A128A11A800463092
:1009080084009F30FF000A128A1500270A128A11F4
:10091800A9000A128A1500270A128A11AA002708B4
:100928002907AB0028080318280A2A07AC0047083B
:100938002B062C04031DA12CA22CB42C0A128A11FC
:1009480096200A128A11B42CB42CB42CB42C013081
:1009580083120313E3070318E40A0030E407B42CF6
:100968004A3084009F3083120313FF000A128A154D
:1009780000270A128A11A700050827050319C52CA4
:10098800C62CD62C6408803AA7005E08803A270255
:10099800031DD02C5D086302031CD32CD42CAB2C74
:1009A800D62CD62C83120313E301E4010130E507AA
:1009B8000318E60A0030E6076608803AFF00803030
:1009C8007F02031DE92C09306502031CEC2CED2C79
:1009D800EE2BEE2C831203136A08803AFF00803056
:1009E8007F02031DF92C463069020318FC2CFD2CEC
:1009F800052D831203136908903E84008317800134
:100A08000E2D831203136908BA3E103E8400831723
:100A180080010E2DDF01E0016008803AFF00803080
:100A28007F02031D192D08305F02031C1C2D1D2D8C
:100A38001F2D6F2D6F2D831203135F083F3E840017
:100A4800831380080319292D2A2D5B2D6A08803A03
:100A5800FF0080307F02031D332D463069020318E2
:100A6800362D372D482D831203135F08A70027075B
:100A7800A03E840083130008A8006908903E840003
:100A88002808831780075B2D831203135F08A700CC
:100A98002707A03E840083130008A8006908BA3E0F
:100AA800103E84002808831780075B2D5B2D0130DA
:100AB800DF070318E00A0030E0076008803AFF000B
:100AC80080307F02031D6A2D08305F02031C6D2DE4
:100AD8006E2D1F2D6F2D831203136A08803AFF00B5
:100AE80080307F02031D7A2D4630690203187D2D60
:100AF8007E2D9D2D831203136908903E84002030BB
:100B080083170002031C892D8A2D942D6908903EB5
:100B1800840081300002031C922D932DBF2D942D4B
:100B28002030A7006908903E840027088000BF2D68
:100B3800BF2D831203136908BA3E103E840020308B
:100B480083170002031CA92DAA2DB52D6908BA3EEA
:100B5800103E840081300002031CB32DB42DBF2D3C
:100B6800B52D2030A7006908BA3E103E840027083A
:100B78008000BF2DBF2D0130E9070318EA0A0030B5
:100B8800EA076A08803AFF0080307F02031DCE2DF5
:100B98008C306902031CD12DD22DDB2BD32D83126F
:100BA8000313E701E8016808803AFF0080307F02FC
:100BB800031DE02D8C306702031CE32DE42DE62D88
:100BC800412E412E831203136808803AFF008030BB
:100BD8007F02031DF12D463067020318F42DF52D11
:100BE800102E831203136708903E84002030831769
:100BF80080026708903E84008008031D042E052E9D
:100C08000C2E0130CB070318CC0A0030CC072D2E50
:100C1800CB01CC012D2E2D2E831203136708BA3E6B
:100C2800103E84002030831780026708BA3E103EC9
:100C380084008008031D212E222E292E0130CD0785
:100C48000318CE0A0030CE072D2ECD01CE012D2E51
:100C58002D2E0130E7070318E80A0030E807680876
:100C6800803AFF0080307F02031D3C2E8C306702E3
:100C7800031C3F2E402EE62D412E831203134B09F1
:100C8800A7004C09A800A70A0319A80A2708463E86
:100C9800C70028080318013E003EC8004D09A700F8
:100CA8004E09A800A70A0319A80A2708463EC90042
:100CB80028080318013E003ECA00642E642E642EE4
:100CC8000508A700A801483084009F30FF000A12D9
:100CD8008A1500270A128A11A9000A128A15002704
:100CE8000A128A11AA00463084009F30FF000A12B7
:100CF8008A1500270A128A11AB000A128A150027E2
:100D08000A128A11AC0029082B07AD002A0803181B
:100D18002A0A2C07AE0027082D05AF0028082E0543
:100D2800B00030082F04031D9A2E9B2E642E9C2E93
:100D38004B30EB000430EC004B30CF000430D000D7
:100D4800E101E201A72E49084707F0004A08031805
:100D58004A0A4807F1000730F2000030F3000A128F
:100D68008A1100210A128A11700983120313A7003D
:100D78007109A800A70A0319A80A2708D43EA900E0
:100D880028080318013E033EAA002A08803AAB004F
:100D98005008803A2B02031DD32E4F08290203184E
:100DA800D62ED72EEE2F83120313D501D60156085F
:100DB800803AFF0080307F02031DE42E1130550277
:100DC800031CE72EE82EEA2E8C2F8C2F8312031398
:100DD8006208803AFF0080307F02031DF52E4630FE
:100DE80061020318F82EF92E142F831203136108D9
:100DF800903E840083170008A700A8012708F60082
:100E08002808F7005B086B07F8005C0803185C0A01
:100E18006C07F9000A128A1506250A128A116A2F28
:100E2800831203136208803AFF0080307F02031D9B
:100E38001F2F8C3061020318222F232F3F2F83127C
:100E480003136108BA3E103E840083170008A70008
:100E5800A8012708F6002808F7005B086B07F800C8
:100E68005C0803185C0A6C07F9000A128A15062543
:100E78000A128A116A2F83120313D701D80158085E
:100E8800803AFF0080307F02031D4C2FC830570284
:100E9800031C4F2F502F522F6A2F6A2F01308312B5
:100EA8000313D7070318D80A0030D8075808803A20
:100EB800FF0080307F02031D632FC8305702031CD8
:100EC800662F672F522F6A2F6A2F6A2F01308312DD
:100ED8000313E1070318E20A0030E2070730DB07D3
:100EE8000318DC0A0030DC070130D5070318D60ADE
:100EF8000030D6075608803AFF0080307F02031D75
:100F0800872F11305502031C8A2F8B2FEA2E8C2F26
:100F1800FF3083120313CF070318D00AFF30D0071E
:100F28006C08803AFF0083307F02031D9D2FCE306E
:100F38006B02031CA02FA12FB22FEF3083120313D3
:100F4800E1070318E20AFF30E207DB01DC01FF30AA
:100F5800EB070318EC0AFF30EC07C62FEF308312BB
:100F68000313E1070318E20AFF30E2070130E10743
:100F78000318E20A0030E207DB01DC01D330EB00A2
:100F88000330EC00D901DA015A08803AFF008130B9
:100F98007F02031DD12F90305902031CD42FD52F67
:100FA800D72F1F2A1F2A013083120313D9070318CA
:100FB800DA0A0030DA075A08803AFF0081307F02E7
:100FC800031DE82F90305902031CEB2FEC2FD72F6D
:100FD8001F2A1F2A4B3083120313EB000430EC0046
:100FE8004B30CF000430D000E101E2011F2A1F2A54
:080FF8001F2A0A128A110028C9
:101A0C00FA01FB0183120313860187017F308800E2
:101A1C008501FC01FD017D08803AFF0080307F02CA
:101A2C00031D1A2D0C307C02031C1D2D1E2D202D88
:101A3C00FF2EFF2E7908803AFF0083307F02031DB2
:101A4C00292DD430780203182C2D2D2D322D8312F4
:101A5C00031387018801512E7908803AFF008330E7
:101A6C007F02031D3B2DE330780203183E2D3F2DE2
:101A7C00552D9A30790783120313FF00FA3078073B
:101A8C0084000318FF0A0A128A1500270A128A1505
:101A9C008700BF30A000200888058501512E7908E9
:101AAC00803AFF0083307F02031D5E2DF2307802F6
:101ABC000318612D622D782D9A3079078312031348
:101ACC00FF00FA30780784000318FF0A0A128A15FF
:101ADC0000270A128A158700DF30A000200888052D
:101AEC008501512E7908803AFF0084307F02031D56
:101AFC00812D013078020318842D852D9B2D9A3071
:101B0C00790783120313FF00FA3078078400031857
:101B1C00FF0A0A128A1500270A128A158700EF306D
:101B2C00A000200888058501512E7908803AFF0015
:101B3C0084307F02031DA42D103078020318A72DCA
:101B4C00A82DBE2D9A30790783120313FF00FA30AB
:101B5C00780784000318FF0A0A128A1500270A1254
:101B6C008A158700F730A000200888058501512EC2
:101B7C007908803AFF0084307F02031DC72D1F3087
:101B8C0078020318CA2DCB2DE12D9A3079078312D8
:101B9C000313FF00FA30780784000318FF0A0A12B7
:101BAC008A1500270A128A158700FB30A00020082E
:101BBC0088058501512E7908803AFF0084307F0218
:101BCC00031DEA2D2E3078020318ED2DEE2D042E78
:101BDC009A30790783120313FF00FA3078078400D8
:101BEC000318FF0A0A128A1500270A128A158700A1
:101BFC00FD30A000200888058501512E7908803A17
:101C0C00FF0084307F02031D0D2E3D307802031837
:101C1C00102E112E272E9A30790783120313FF00F2
:101C2C00FA30780784000318FF0A0A128A15002775
:101C3C000A128A158700FE30A0002008880585014D
:101C4C00512E7908803AFF0084307F02031D302E1C
:101C5C004C3078020318332E342E452E9A307907E7
:101C6C0083120313FF00FA30780784000318FF0A6D
:101C7C000A128A1500270A128A158700512E831220
:101C8C0003138701512E512E512E512E512E512EB0
:101C9C00512E512E512E0130F8070318F90A00303D
:101CAC00F9077D08A1007C08A0000130FF0003109B
:101CBC00A00DA10DFF0B5D2E7708F101F107760841
:101CCC00F001F0071830F2000030F3000A128A110C
:101CDC0000210A128A15123083120313A2008F30CE
:101CEC00A30070082207A40071080318710A2307C7
:101CFC00A50020082407840021080318210A2507C1
:101D0C00FF000A128A1500270A128A158600013074
:101D1C00FC070318FD0A0030FD077D08A1007C08B4
:101D2C00A0000130FF000310A00DA10DFF0B992E98
:101D3C007708F101F1077608F001F0071830F2008E
:101D4C000030F3000A128A1100210A128A1512308F
:101D5C0083120313A2008F30A30070082207A40083
:101D6C0071080318710A2307A500200824078400B2
:101D7C0021080318210A2507FF000A128A150027DB
:101D8C000A128A15A60026088804FA01FB01D42E33
:101D9C000130FA070318FB0A0030FB077B08803A76
:101DAC0083120313A0006E08803A2002031DE02E5C
:101DBC006D087A02031CE32EE42ECE2EE52E831240
:101DCC000313860187017F3088000130FC0703185C
:101DDC00FD0A0030FD077D08803AFF0080307F024D
:101DEC00031DFA2E0C307C02031CFD2EFE2E202D22
:101DFC00FF2E0800FF1B0A2F83137F188317000880
:101E0C00840A0319FF0A08007F087F398A00040836
:101E1C00840A0319FF0A82000034003400340034B1
:101E2C000034003400340034003400340034003406
:101E3C0000340034003400340034003400340034F6
:101E4C0000340034003400340034003400340034E6
:101E5C0000340034003400347D3400340034003459
:101E6C0000340034003400340034003400340034C6
:101E7C0000340034003400340034003400340034B6
:101E8C006034003400340034003400340034003446
:101E9C000034003400340034603400340034003436
:101EAC000034003400340034123400340034003474
:101EBC007F34003480340034123400340034003465
:101ECC007F34003480340034123400340034003455
:101EDC000034003400340034323400340034003424
:101EEC004934003400340034C934003480340034B4
:101EFC0049340034003400342634003400340034C7
:101F0C000034003400340034413400348034003464
:101F1C00A23400340034003444340034003400342F
:101F2C00193400340034003422340034803400344A
:101F3C00C134003400340034233400340034003411
:101F4C005434003480340034883400348034003409
:101F5C0095340034003400346234003400340034DE
:101F6C000534003480340034003400340034003440
:101F7C006034003400340034003400340034003455
:101F8C0000340034003400340034003400340034A5
:101F9C000034003400340034003400340034003495
:101FAC003E34003400340034413400340034003406
:101FBC0080340034003400340034003400340034F5
:101FCC000034003400340034003400340034003465
:101FDC008034003480340034413400340034003414
:101FEC003E34003400340034003400340034003407
:101FFC0000340034003400342A340034003400340B
:10200C001434003400340034083400340034003408
:10201C0014340034003400342A34003400340034D6
:10202C0000340034003400340834003400340034FC
:10203C0008340034003400343E34003400340034AE
:10204C0008340034003400340834003400340034D4
:10205C0000340034003400340034003400340034D4
:10206C006034003400340034003400340034003464
:10207C0000340034003400340034003400340034B4
:10208C0000340034003400340034003400340034A4
:10209C000834003400340034083400340034003484
:1020AC000834003400340034083400340034003474
:1020BC000034003400340034003400340034003474
:1020CC000034003400340034003400340034003464
:1020DC000034003400340034013400340034003453
:1020EC000034003400340034003400340034003444
:1020FC0001340034803400340634003400340034AD
:10210C0018340034003400346034003400340034AB
:10211C0000340034003400347F3400340034003494
:10212C0082340034803400348C34003480340034F5
:10213C00B034003480340034C03400348034003483
:10214C007F340034003400340034003480340034E4
:10215C0080340034803400348034003480340034D3
:10216C00FF340034803400340034003480340034C4
:10217C000034003480340034413400348034003472
:10218C00823400348034003484340034803400349D
:10219C00883400348034003490340034803400347B
:1021AC006034003480340034413400340034003462
:1021BC008034003480340034903400348034003463
:1021CC009034003480340034903400348034003443
:1021DC007F340034003400341834003400340034BC
:1021EC0028340034003400344834003400340034D3
:1021FC008834003400340034FF340034803400342C
:10220C0008340034003400347834003400340034A2
:10221C008834003480340034A034003480340034EA
:10222C00A034003480340034913400340034003451
:10223C0086340034003400343E340034003400342E
:10224C004934003400340034903400348034003489
:10225C009034003480340034893400340034003439
:10226C0086340034003400344034003400340034FC
:10227C0080340034003400348034003400340034B2
:10228C008334003480340034983400340034003407
:10229C007034003400340034223400340034003400
:1022AC00553400340034003490340034803400341D
:1022BC00903400348034003455340034003400340D
:1022CC002234003400340034203400340034003420
:1022DC0051340034003400348834003480340034F9
:1022EC0088340034803400345134003400340034E9
:1022FC003E340034003400340034003400340034F4
:10230C000034003400340034003400340034003421
:10231C0012340034003400340034003400340034FF
:10232C000034003400340034003400340034003401
:10233C0000340034003400340134003400340034F0
:10234C0012340034003400340034003400340034CF
:10235C0000340034003400340034003400340034D1
:10236C0008340034003400341434003400340034A5
:10237C00223400340034003441340034003400344E
:10238C0000340034003400340034003400340034A1
:10239C001434003400340034143400340034003469
:1023AC001434003400340034143400340034003459
:1023BC000034003400340034003400340034003471
:1023CC0041340034003400342234003400340034FE
:1023DC001434003400340034083400340034003435
:1023EC000034003400340034003400340034003441
:1023FC0020340034003400344034003400340034D1
:10240C008C340034803400345034003400340034C4
:10241C0020340034003400343C34003400340034B4
:10242C004234003400340034993400340034003425
:10243C00A5340034003400349934003400340034B2
:10244C007C340034003400343F34003480340034A5
:10245C004834003400340034883400340034003400
:10246C0088340034003400344834003400340034F0
:10247C003F34003480340034FF3400348034003472
:10248C008834003480340034883400348034003490
:10249C008834003480340034883400348034003480
:1024AC0077340034003400347F340034003400348A
:1024BC008034003480340034803400348034003470
:1024CC008034003480340034803400348034003460
:1024DC004134003400340034FF3400348034003490
:1024EC008034003480340034803400348034003440
:1024FC0080340034803400344134003400340034EF
:10250C003E34003400340034FF3400348034003462
:10251C0088340034803400348834003480340034FF
:10252C0088340034803400348034003480340034F7
:10253C008034003480340034FF3400348034003470
:10254C0088340034003400348834003400340034CF
:10255C0088340034003400348034003400340034C7
:10256C0080340034003400347634003400340034C9
:10257C0080340034803400348034003480340034AF
:10258C00883400348034003488340034803400348F
:10259C004F34003400340034FF34003480340034C1
:1025AC00083400340034003408340034003400346F
:1025BC00083400340034003408340034003400345F
:1025CC00FF340034803400348034003480340034E0
:1025DC008034003480340034FF34003480340034D0
:1025EC00803400348034003480340034803400343F
:1025FC0000340034003400348134003400340034AE
:10260C00803400348034003480340034803400341E
:10261C00FF3400340034003480340034003400348F
:10262C008034003400340034FF34003480340034FF
:10263C0008340034003400340834003400340034DE
:10264C0014340034003400342234003400340034A8
:10265C00C134003480340034FF340034803400340E
:10266C0000340034803400340034003480340034BE
:10267C0000340034803400340034003480340034AE
:10268C000034003480340034FF340034803400349F
:10269C00603400340034003410340034003400341E
:1026AC00103400340034003460340034003400340E
:1026BC00FF34003480340034FF3400348034003470
:1026CC0060340034003400341834003400340034E6
:1026DC0006340034003400340134003480340034C7
:1026EC00FF340034803400343E3400340034003481
:1026FC0041340034003400348034003480340034ED
:10270C0080340034803400344134003400340034DC
:10271C003E34003400340034FF3400348034003450
:10272C0088340034003400348834003400340034ED
:10273C0088340034003400348834003400340034DD
:10274C0070340034003400343E340034003400342F
:10275C00413400340034003480340034803400348C
:10276C00823400348034003441340034003400347A
:10277C003E34003480340034FF3400348034003470
:10278C00883400340034003488340034003400348D
:10279C008C340034003400348A3400340034003477
:1027AC00713400348034003471340034003400341B
:1027BC00883400348034003488340034803400345D
:1027CC00883400348034003488340034803400344D
:1027DC004734003400340034803400340034003486
:1027EC008034003400340034FF340034803400343E
:1027FC00803400340034003480340034003400342D
:10280C000034003400340034FF340034003400341D
:10281C00003400348034003400340034803400340C
:10282C0000340034803400340034003480340034FC
:10283C00FF34003400340034FC34003400340034F1
:10284C000334003400340034003400348034003459
:10285C000034003480340034033400340034003449
:10286C00FC34003400340034FF34003400340034C1
:10287C00003400348034003401340034003400342B
:10288C00013400340034003400340034803400341B
:10289C00FF34003400340034C1340034803400344C
:1028AC00363400340034003408340034003400343E
:1028BC00083400340034003436340034003400342E
:1028CC00C134003480340034C0340034003400345B
:1028DC0030340034003400340F340034803400348D
:1028EC003034003400340034C0340034003400344C
:1028FC00003400340034003481340034803400342B
:10290C0082340034803400348C340034803400340D
:10291C009834003480340034A034003480340034D3
:10292C00C0340034803400340034003400340034BB
:10293C007F3400340034003440340034013400342B
:10294C00403400340134003400340034003400349A
:10295C0000340034003400340034003400340034CB
:10296C006034003400340034183400340034003443
:10297C000634003400340034013400348034003424
:10298C00003400340034003400340034003400349B
:10299C00003400340034003441340034003400344A
:1029AC0041340034003400347F34003400340034BB
:1029BC00003400340034003410340034003400345B
:1029CC0020340034003400344034003400340034FB
:1029DC00203400340034003410340034003400341B
:1029EC0000340034003400340034003480340034BB
:1029FC00003400348034003400340034803400342B
:102A0C00003400348034003400340034803400341A
:102A1C00003400348034003400340034003400348A
:102A2C0000340034003400344034003400340034BA
:102A3C0020340034003400340034003400340034CA
:102A4C0000340034003400340F34003400340034CB
:102A5C0010340034803400341034003480340034AA
:102A6C0011340034003400340F340034803400341A
:102A7C000034003400340034FF340034803400342B
:102A8C000934003400340034103400340034003481
:102A9C00103400340034003410340034003400346A
:102AAC000F340034003400340F340034003400345C
:102ABC00103400348034003410340034803400344A
:102ACC00103400348034003410340034803400343A
:102ADC0009340034003400340F3400340034003432
:102AEC00103400348034003410340034803400341A
:102AFC001034003480340034093400340034003491
:102B0C00FF34003480340034073400340034003493
:102B1C000A340034803400341234003480340034ED
:102B2C0012340034803400340A34003480340034DD
:102B3C0004340034003400340434003400340034E1
:102B4C003F340034803400344434003400340034D6
:102B5C004034003400340034203400340034003469
:102B6C000034003400340034043400348034003435
:102B7C000A3400340034003411340034003400348E
:102B8C0011340034003400340A340034003400347E
:102B9C000734003480340034FF3400348034003483
:102BAC000834003400340034103400340034003461
:102BBC001034003400340034103400340034003449
:102BCC000F340034803400340034003400340034CA
:102BDC0000340034003400342734003480340034A2
:102BEC000034003400340034003400340034003439
:102BFC000034003400340034013400340034003428
:102C0C000034003480340034003400348034003418
:102C1C004F340034003400340034003400340034B9
:102C2C0000340034003400343F3400348034003439
:102C3C0004340034003400340434003400340034E0
:102C4C000A3400340034003411340034803400343D
:102C5C0000340034003400340034003400340034C8
:102C6C0000340034003400343F34003480340034F9
:102C7C0000340034003400340034003400340034A8
:102C8C0000340034003400341F34003480340034F9
:102C9C000C3400340034003402340034003400347A
:102CAC0002340034003400340C340034003400346A
:102CBC001F340034803400341F340034803400342A
:102CCC000834003400340034103400340034003440
:102CDC001034003400340034083400340034003430
:102CEC0007340034803400340634003400340034AB
:102CFC00093400340034003410340034803400348F
:102D0C00103400348034003409340034003400347E
:102D1C00063400340034003407340034803400347A
:102D2C000A340034003400341134003400340034DC
:102D3C0011340034003400340A34003400340034CC
:102D4C0004340034003400340434003400340034CF
:102D5C000A340034003400341134003400340034AC
:102D6C0011340034003400340A340034003400349C
:102D7C000734003480340034073400348034003499
:102D8C00083400340034003410340034003400347F
:102D9C00103400340034003408340034003400346F
:102DAC0000340034003400340834003480340034EF
:102DBC00143400348034003414340034803400343F
:102DCC0014340034803400341334003400340034B0
:102DDC000034003400340034003400340034003447
:102DEC0008340034003400343F3400348034003470
:102DFC00083400340034003400340034003400341F
:102E0C0000340034003400341F34003400340034F7
:102E1C000034003480340034003400348034003406
:102E2C0000340034803400341F3400340034003457
:102E3C0000340034003400341E34003400340034C8
:102E4C000134003400340034003400348034003455
:102E5C0001340034003400341E34003400340034A7
:102E6C0000340034003400341F3400340034003497
:102E7C000034003480340034013400340034003425
:102E8C000134003400340034003400348034003415
:102E9C001F340034003400341034003480340034D7
:102EAC000934003400340034063400340034003467
:102EBC0009340034003400341034003480340034CD
:102ECC00003400340034003418340034003400343E
:102EDC0004340034803400340334003400340034BF
:102EEC00043400340034003418340034003400341A
:102EFC000034003400340034003400340034003426
:102F0C0011340034803400341234003480340034F2
:102F1C0014340034803400340834003480340034E9
:102F2C0000340034003400340034003400340034F5
:102F3C0000340034003400340834003400340034DD
:102F4C00773400340034003441340034003400341D
:102F5C0000340034003400340034003400340034C5
:102F6C0000340034003400340034003400340034B5
:102F7C00F73400348034003400340034003400342E
:102F8C000034003400340034003400340034003495
:102F9C0041340034003400347734003400340034CD
:102FAC00083400340034003400340034003400346D
:102FBC000034003400340034103400340034003455
:102FCC002034003400340034103400340034003425
:102FDC000834003400340034043400340034003439
:102FEC00083400340034003400340034003400342D
:102FFC000034003400340034003400340034003425
:10300C000034003400340034003400340034003414
:10301C000034003400340034003400340034003404
:10302C0000340034003400340034003400340034F4
:103D9C00F034E034D034C034B034A03490348034B7
:103DAC007034603450344034303420341034F034B7
:103DBC00E034D034C034B034A03490348034703417
:103DCC00603450344034303420341034F034E03427
:103DDC00D034C034B034A034903480347034603477
:103DEC0050344034303420341034F034E034D03497
:103DFC00C034B034A03490348034703460345034D7
:103E0C004034303420341034F034E034D034C03406
:103E1C00B034A03490348034703460345034403436
:103E2C00303420341034F034E034D034C034B03476
:103E3C00A034903480347034603450344034303496
:103E4C0020341034F034E034D034C034B034A034E6
:103E5C0090348034703460345034403430342034F6
:103E6C001034F034E034D034C034B034A034903456
:103E7C008034703460345034403430342034103456
:0C3E8C00013400340434003402340034EB
:02400E003AFF77
:00000001FF
