:060000000A128A15B32B61
:100012000134003423344F3443344B3450344934A4
:10002200543400343734343426341F34003400342A
:10003200003400340034003400340034003400341E
:10004200003400340034003400340034003400340E
:1000520000340034003400340034003400340034FE
:1000620000340034003400340034003400340034EE
:1000720000340034003400340034003400340034DE
:1000820000340034003400340034003400340034CE
:1000920000340034003400340034003400340034BE
:1000A20023344F3443344B345034493454340034C1
:1000B2003734343426341F340034003400340034EE
:1000C200003400340034003400340034003400348E
:1000D200003400340034003400340034003400347E
:1000E200003400340034003400340034003400346E
:1000F200003400340034003400340034003400345E
:10010200003400340034003400340034003400344D
:10011200003400340034003400340034003400343D
:1001220000340034003400340034003483120313EA
:1001320086010830870077308800BA28D928D92864
:10014200C13086008817D928E33086008817D9285D
:10015200FF3086008817D928FF3086008817D928F3
:10016200E33086008817D928C13086008817D9283D
:10017200D9287108003A0319BF28D9287008003A13
:100182000319D928013A0319D928033A0319A128D6
:10019200013A0319A528073A0319A928013A0319B4
:1001A200AD28033A0319B128013A0319B528D92811
:1001B2007008DB3EF20071080318013E033EF300B3
:1001C2009A307307FF00F830720784000318FF0AA1
:1001D2000A128A1500260A128A11F400740887048A
:1001E200F228080083120313CB01CC01B701B80136
:1001F200C501C601B901BA01E701E801DD01DE016D
:10020200DF01E0012830D1002330D2001E30C700C8
:100212000030C800C901CA01CD01CE01CF01D00111
:100222001430BB000030BC000A128A1564230A1283
:100232008A114B3083120313EB000430EC002129A6
:1002420083120313DF01E0010508A700A80146306D
:1002520084009F30FF000A128A1500260A128A11B2
:10026200A9000A128A1500260A128A11AA0044302D
:1002720084009F30FF000A128A1500260A128A1192
:10028200AB000A128A1500260A128A11AC0029084C
:100292002B07AD002A0803182A0A2C07AE002708EC
:1002A2002D05AF0028082E05B00030082F040319D1
:1002B2005B295C291B2DD301D4015408803AFF002D
:1002C20080307F02031D672902305302031C6A2912
:1002D2006B296D2983298329013083120313D307E4
:1002E2000318D40A0030D4075408803AFF00803043
:1002F2007F02031D7E2902305302031C81298229B9
:100302006D298329831203130508A700A80146302B
:1003120084009F30FF000A128A1500260A128A11F1
:10032200A9000A128A1500260A128A11AA0044306C
:1003320084009F30FF000A128A1500260A128A11D1
:10034200AB000A128A1500260A128A11AC0029088B
:100352002B07AD002A0803182A0A2C07AE0027082B
:100362002D05AF0028082E05B00030082F04031910
:10037200BB29BC291B2DBF29BF29BF290508A700FE
:10038200A801443084009F30FF000A128A1500261B
:100392000A128A11A9000A128A1500260A128A1163
:1003A200AA00463084009F30FF000A128A150026F8
:1003B2000A128A11AB000A128A1500260A128A1141
:1003C200AC0029082B07AD002A0803182A0A2C07BB
:1003D200AE0027082D05AF0028082E05B0004430D6
:1003E20084009F30FF000A128A1500260A128A1121
:1003F200B1000A128A1500260A128A11B20046308A
:1004020084009F30FF000A128A1500260A128A1100
:10041200B3000A128A1500260A128A11B4003108A2
:100422003307B50032080318320A3407B600300821
:100432003606031D1E2A2F0835060319212A222AF1
:10044200BF29232ADF01E001E901EA016A08803AB3
:10045200FF0080307F02031D302A8C306902031CAA
:10046200332A342A362A1C2C1C2C83120313E30150
:10047200E4016408803AFF0080307F02031D432AB2
:1004820009306302031C462A472A492A132B132BDD
:10049200831203136408F101F1076308F001F00706
:1004A2000A128A1197200A128A11602A01308312D5
:1004B2000313DF070318E00A0030E007602A483020
:1004C20084009F3083120313FF000A128A1500264C
:1004D2000A128A11A70005082705031D712A722A2C
:1004E200822A6008803AA7005208803A2702031D38
:1004F2007C2A51085F02031C7F2A802A572A822AFB
:10050200822A83120313DF01E0016408803AFF00AC
:1005120080307F02031D8F2A083063020318922A5B
:10052200932AA92A443084009F3083120313FF00C8
:100532000A128A1500260A128A11A7000508270541
:10054200A80063083D3E8400280883138000DB2A4C
:1005520008308312031363066404031DB12AB22A0E
:10056200DB2A463084009F30FF000A128A150026DB
:100572000A128A11A700443084009F30FF000A1239
:100582008A1500260A128A1127070505A8006308A2
:100592003D3E8400280883138000DB2ADB2ADB2A05
:1005A200DB2A013083120313DF070318E00A00304D
:1005B200E007DB2A483084009F30FF000A128A15C8
:1005C20000260A128A11A700050827050319EA2A3C
:1005D200EB2AFB2A6008803AA7005208803A2702D9
:1005E200031DF52A51085F02031CF82AF92AD22AB0
:1005F200FB2AFB2A83120313DF01E0010130E30728
:100602000318E40A0030E4076408803AFF008030EF
:100612007F02031D0E2B09306302031C112B122BC8
:10062200492A132B831203136A08803AFF00803091
:100632007F02031D1E2B463069020318212B222B39
:100642002A2B831203136908903E840083178001CA
:10065200432B831203136A08803AFF0080307F0223
:10066200031D352B8C3069020318382B392B432B91
:10067200831203136908BA3E103E84008317800177
:10068200432B432B83120313E101E2016208803AF8
:10069200FF0080307F02031D502B08306102031CD3
:1006A200532B542B562BA62BA62B83120313610814
:1006B2003D3E8400831380080319602B612B922B2B
:1006C2006A08803AFF0080307F02031D6A2B4630A1
:1006D200690203186D2B6E2B7F2B831203136108A3
:1006E200A7002707A03E840083130008A80069081A
:1006F200903E8400280883178007922B83120313ED
:100702006108A7002707A03E840083130008A80001
:100712006908BA3E103E8400280883178007922B8E
:10072200922B0130E1070318E20A0030E207620867
:10073200803AFF0080307F02031DA12B0830610246
:10074200031CA42BA52B562BA62B831203136A087A
:10075200803AFF0080307F02031DB12B46306902D0
:100762000318B42BB52BD42B831203136908903EC4
:100772008400213083170002031CC02BC12BCB2B1A
:100782006908903E840081300002031CC92BCA2BE9
:10079200062CCB2B2030A7006908903E8400270846
:1007A2008000062C062C831203136A08803AFF008D
:1007B20080307F02031DDF2B8C3069020318E22B8D
:1007C200E32B062C831203136908BA3E103E840001
:1007D200213083170002031CEF2BF02BFB2B69083F
:1007E200BA3E103E840081300002031CF92BFA2B22
:1007F200062CFB2B2030A7006908BA3E103E84006D
:1008020027088000062C062C062C013083120313C5
:10081200E9070318EA0A0030EA076A08803AFF008B
:1008220080307F02031D172C8C306902031C1A2CA6
:100832001B2C362A1C2C83120313E501E6016608E1
:10084200803AFF0080307F02031D292C8C30650224
:10085200031C2C2C2D2C2F2CAF2CAF2C831203130A
:100862006608803AFF0080307F02031D3A2C463032
:10087200650203183D2C3E2C622C8312031365087B
:10088200903E8400203083170002031C492C4A2C1E
:100892004F2C6508903E8400203080026508903E0F
:1008A20084008008031D562C572C5E2C0130CD0786
:1008B2000318CE0A0030CE07992CCD01CE01992C17
:1008C200992C831203136608803AFF0080307F025E
:1008D200031D6D2C8C3065020318702C712C992C21
:1008E200831203136508BA3E103E8400203083173A
:1008F2000002031C7D2C7E2C842C6508BA3E103E1F
:100902008400203080026508BA3E103E84008008D0
:10091200031D8C2C8D2C942C0130CF070318D00A88
:100922000030D007992CCF01D001992C992C992C09
:10093200013083120313E5070318E60A0030E607C5
:100942006608803AFF0080307F02031DAA2C8C309B
:100952006502031CAD2CAE2C2F2CAF2C831203137B
:100962004D09A7004E09A800A70A0319A80A2708DB
:10097200463EC70028080318013E003EC8004F0942
:10098200A7005009A800A70A0319A80A2708463E8B
:10099200C90028080318013E003ECA00D12CD12C00
:1009A2000508A700A801463084009F30FF000A1204
:1009B2008A1500260A128A11A9000A128A1500262F
:1009C2000A128A11AA00443084009F30FF000A12E2
:1009D2008A1500260A128A11AB000A128A1500260D
:1009E2000A128A11AC0029082B07AD002A08031845
:1009F2002A0A2C07AE0027082D05AF0028082E056D
:100A0200B00030082F04031D072D082DD12C092D0D
:100A1200CF01D001CD01CE014B30EB000430EC0010
:100A22004B30CB000430CC00E701E801DD01DE01F0
:100A32001B2D1B2D49084707F0004A0803184A0AD4
:100A42004807F1000730F2000030F3000A128A155D
:100A520089230A128A11700983120313A7007109EC
:100A6200A800A70A0319A80A2708D43EA900280843
:100A72000318013E033EAA002A08803AAB004C0844
:100A8200803A2B02031D472D4B08290203184A2DD9
:100A92004B2DEE2F83120313D501D6015608803A4F
:100AA200FF0080307F02031D582D16305502031CB3
:100AB2005B2D5C2D5E2DF02EF02E83120313680841
:100AC200803AFF0080307F02031D692D46306702A5
:100AD20003186C2D6D2D022E831203136708903EAE
:100AE200840083170008A700A8012708F00028083F
:100AF200F1001A30F2000030F3000A128A1589233D
:100B02000A128A117008183E83120313A900710891
:100B12000318013E003EAA008E302A07FF00123061
:100B2200290784000318FF0A0A128A1500260A12EE
:100B32008A11AB000A128A1500260A128A11AC0029
:100B42005D082B07AD005E0803185E0A2C07AE0095
:100B52006B082D07DB006C0803186C0A2E07DC00FB
:100B62006708903E840083170008A700A8012708A1
:100B7200F6002808F7005C08F901F9075B08F8019C
:100B8200F8070A128A15EE230A128A118312031336
:100B92006708903E840083170008A700A801270871
:100BA200F0002808F1001A30F2000030F3000A12B7
:100BB2008A1589230A128A117008183E83120313B8
:100BC200A90071080318013E003EAA008E302A07D0
:100BD200FF001230290784000318FF0A0A128A153F
:100BE20000260A128A11AB000A128A1500260A127E
:100BF2008A11AC002B08DD070318DE0A2C08DE0779
:100C0200D42E831203136808803AFF0080307F02DB
:100C1200031D0D2E8C3067020318102E112EA92EE3
:100C2200831203136708BA3E103E8400831700083C
:100C3200A700A8012708F0002808F1001A30F200E6
:100C42000030F3000A128A1589230A128A117008E9
:100C5200183E83120313A90071080318013E003ED7
:100C6200AA008E302A07FF001230290784000318D9
:100C7200FF0A0A128A1500260A128A11AB000A120A
:100C82008A1500260A128A11AC005D082B07AD00F6
:100C92005E0803185E0A2C07AE006B082D07DB0006
:100CA2006C0803186C0A2E07DC006708BA3E103E77
:100CB200840083170008A700A8012708F600280867
:100CC200F7005C08F901F9075B08F801F8070A1256
:100CD2008A15EE230A128A11831203136708BA3E99
:100CE200103E840083170008A700A8012708F0001F
:100CF2002808F1001A30F2000030F3000A128A15B7
:100D020089230A128A117008183E83120313A9005C
:100D120071080318013E003EAA008E302A07FF0028
:100D22001230290784000318FF0A0A128A150026C6
:100D32000A128A11AB000A128A1500260A128A11B7
:100D4200AC002B08DD070318DE0A2C08DE07D42EC0
:100D520083120313D701D8015808803AFF0080306C
:100D62007F02031DB62EC8305702031CB92EBA2EBD
:100D7200BC2ED42ED42E013083120313D7070318AE
:100D8200D80A0030D8075808803AFF0080307F0226
:100D9200031DCD2EC8305702031CD02ED12EBC2EDF
:100DA200D42ED42ED42E013083120313E707031856
:100DB200E80A0030E8070130D5070318D60A0030E8
:100DC200D6075608803AFF0080307F02031DEB2EC3
:100DD20016305502031CEE2EEF2E5E2DF02EFF3044
:100DE20083120313CB070318CC0AFF30CC076C081D
:100DF200803AFF0083307F02031D012FCE306B0249
:100E0200031C042F052F182FEA3083120313E70760
:100E12000318E80AFF30E807DD01DE01C501C6015B
:100E2200FF30EB070318EC0AFF30EC07C42FEA305F
:100E320083120313E7070318E80AFF30E8070130BB
:100E4200E7070318E80A0030E807DD01DE01C50103
:100E5200C6016808803AFF0080307F02031D332FED
:100E6200473067020318362F372F752F831203136B
:100E72006708FF3E903E840083170008A700A80180
:100E82002708F0002808F1001A30F2000030F300C1
:100E92000A128A1589230A128A117008183E8312CF
:100EA2000313A90071080318013E003EAA008E3008
:100EB2002A07FF001230290784000318FF0A0A12CA
:100EC2008A1500260A128A11AB000A128A15002618
:100ED2000A128A11AC002B08CC3EEB002C08031836
:100EE200013E033EEC00C42F831203136808803ACC
:100EF200FF0080307F02031D802F8D3067020318B0
:100F0200832F842FC42F831203136708B93E103E28
:100F1200840083170008A700A8012708F00028080A
:100F2200F1001A30F2000030F3000A128A15892308
:100F32000A128A117008183E83120313A90071085D
:100F42000318013E003EAA008E302A07FF0012302D
:100F5200290784000318FF0A0A128A1500260A12BA
:100F62008A11AB000A128A1500260A128A11AC00F5
:100F72002B08CC3EEB002C080318013E033EEC008C
:100F8200C42FC42FC42F83120313D901DA015A08C4
:100F9200803AFF0081307F02031DD12F9030590229
:100FA200031CD42FD52FD72F2129212901308312B9
:100FB2000313D9070318DA0A0030DA075A08803A0D
:100FC200FF0081307F02031DE82F90305902031C7D
:100FD200EB2FEC2FD72F212921294B30831203131A
:100FE200EB000430EC004B30CB000430CC00E701C6
:0E0FF200E8012129212921290A128A1100284B
:1016820080340034403400342034003410340034C8
:101692000834003404340034023400340134003499
:1016A2007E088A007F0882000A128A1551230A12D4
:1016B2008A158000840A04087D0603190034FF0A93
:1016C2000319FE0A552B8312031385010730831673
:1016D2000313850083120313860183160313860105
:1016E20083120313870183160313870183120313E3
:1016F2008801831603138801E030831203139F00CD
:101702000730831603139F0007309C009D010800D9
:10171200F401F5018C2B701C8F2B902B962B7208E9
:10172200F4070318F50A7308F50701300310F20DE8
:10173200F30DFF3E031D972B01300310F10CF00C4B
:10174200FF3E031D9E2B71087004031DA92BAA2BBB
:101752008C2BAB2B7508F101F1077408F001F0072F
:10176200B22B08008317D630FD000030FE000B308C
:10177200FF00903084000A128A1555230A128A1536
:101782005630FD000030FE005130FF001030840062
:101792000A128A1555230A128A158313B030FD00E6
:1017A2000B30FE004130FF00A03084000A128A157F
:1017B20055230A128A15831203130A128A11092069
:1017C2000A128A15ED000A128A110A200A128A15D3
:1017D200EE0083010A128A11F328FA01FB01831237
:1017E20003138601083087007F3088008501FC01E1
:1017F200FD017D08803AFF0080307F02031D032C2B
:101802000C307C02031C062C072C092CFF2DFF2D0B
:101812007908803AFF0083307F02031D122CD430F6
:1018220078020318152C162C1C2C08308312031373
:1018320087008801502D7908803AFF0083307F02AB
:10184200031D252CE33078020318282C292C412C67
:101852009A30790783120313FF00F8307807840067
:101862000318FF0A0A128A1500260A128A15A00016
:1018720020088704BF30A000200888058501502D6C
:101882007908803AFF0083307F02031D4A2CF23030
:10189200780203184D2C4E2C662C9A30790783124D
:1018A2000313FF00F830780784000318FF0A0A12B6
:1018B2008A1500260A128A15A00020088704DF3044
:1018C200A000200888058501502D7908803AFF0084
:1018D20084307F02031D6F2C013078020318722CB2
:1018E200732C8B2C9A30790783120313FF00F83084
:1018F200780784000318FF0A0A128A1500260A12C2
:101902008A15A00020088704EF30A000200888056F
:101912008501502D7908803AFF0084307F02031D33
:10192200942C103078020318972C982CB02C9A30F3
:10193200790783120313FF00F83078078400031835
:10194200FF0A0A128A1500260A128A15A000200828
:101952008704F730A000200888058501502D7908FA
:10196200803AFF0084307F02031DB92C1F307802B9
:101972000318BC2CBD2CD52C9A3079078312031383
:10198200FF00F830780784000318FF0A0A128A154C
:1019920000260A128A15A00020088704FB30A00046
:1019A200200888058501502D7908803AFF0084308F
:1019B2007F02031DDE2C2E3078020318E12CE22C6C
:1019C200FA2C9A30790783120313FF00F830780754
:1019D20084000318FF0A0A128A1500260A128A15C1
:1019E200A00020088704FD30A0002008880585019A
:1019F200502D7908803AFF0084307F02031D032DA9
:101A02003D3078020318062D072D1F2D9A307907D5
:101A120083120313FF00F830780784000318FF0ACB
:101A22000A128A1500260A128A15A00020088704C5
:101A3200FE30A000200888058501502D7908803AE3
:101A4200FF0084307F02031D282D4C3078020318DA
:101A52002B2D2C2D442D9A30790783120313FF006E
:101A6200F830780784000318FF0A0A128A15002644
:101A72000A128A15A00020088704F730A000200867
:101A820087058501502D0830831203138700502DDE
:101A9200502D502D502D502D502D502D502D0130A8
:101AA200F8070318F90A0030F9077D08A1007C083D
:101AB200A0000130FF000310A00DA10DFF0B5C2D53
:101AC2007708F101F1077608F001F0071A30F20009
:101AD2000030F3000A128A1589230A128A1512307D
:101AE20083120313A2008E30A30070082207A40001
:101AF20071080318710A2307A5002008240784002F
:101B020021080318210A2507FF000A128A15002658
:101B12000A128A1586000130FC070318FD0A0030FC
:101B2200FD077D08A1007C08A0000130FF00031022
:101B3200A00DA10DFF0B982D7708F101F107760892
:101B4200F001F0071A30F2000030F3000A128A1591
:101B520089230A128A15123083120313A2008E30CF
:101B6200A30070082207A40071080318710A230752
:101B7200A50020082407840021080318210A25074C
:101B8200FF000A128A1500260A128A15A6002608E4
:101B92008804FA01FB01D32D0130FA070318FB0A6E
:101BA2000030FB077B08803A83120313A0006E0803
:101BB200803A2002031DDF2D6D087A02031CE22DFC
:101BC200E32DCD2DE42D8312031386010830870007
:101BD2007F3088000130FC070318FD0A0030FD0742
:101BE2007D08803AFF0080307F02031DFA2D0C3001
:101BF2007C02031CFD2DFE2D092CFF2D0800FF1B6E
:101C02000A2E83137F1883170008840A0319FF0A18
:101C120008007F087F398A000408840A0319FF0A32
:101C220082000034003400340034003400340034C4
:101C32000034003400340034003400340034003402
:101C420000340034003400340034003400340034F2
:101C520000340634003400340034003400340034DC
:101C620000340034003400340034003400340034D2
:101C720000340034003400340034003400347D3445
:101C820000340034003403340034003400340034AF
:101C92000034003400340034003460340034003442
:101CA2000034003400340034003400340034003492
:101CB200003460340034003400340534003400341D
:101CC20000340034003412340034003400347F34E1
:101CD20000348034003412340034003400347F3451
:101CE20000348034003412340034003400340634BA
:101CF2000034003400340034003432340034003410
:101D020000344934003400340034C934003480349F
:101D120000344934003400340034263400340034B2
:101D22000034063400344134003480340034A234A8
:101D320000340034003444340034003400341934A4
:101D42000034003400342234003480340034C1348E
:101D520000340034003407340034233400340034B7
:101D620000345434003480340034883400348034F5
:101D720000349534003400340034623400340034CA
:101D82000034053400348034003407340034003425
:101D920000340034003400340034003400340034A1
:101DA2000034003400340034003400340034003491
:101DB200003400340034603400340034003402341F
:101DC2000034003400340034003400340034003471
:101DD200003400340034003400343E340034003423
:101DE2000034413400340034003480340034003490
:101DF200003404340034003400340034003400343D
:101E020000340034003400340034003400348034B0
:101E120000348034003441340034003400343E3421
:101E2200003400340034043400340034003400340C
:101E320000342A34003400340034143400340034C2
:101E420000340834003400340034143400340034D4
:101E520000342A34003400340034063400340034B0
:101E620000340034003408340034003400340834C0
:101E72000034003400343E3400340034003408347A
:101E820000340034003408340034003400340634A2
:101E920000340034003400340034003400340034A0
:101EA2000034003400340034003400340034003490
:101EB20000340034003480340034033400340034FD
:101EC200003403340034003400340034003400346D
:101ED2000034003400340834003400340034083450
:101EE2000034003400340834003400340034083440
:101EF200003400340034053400340034003400343B
:101F0200003400340034003400340034003400342F
:101F1200003400340034003400340034003400341F
:101F2200003401340034003400340234003400340C
:101F320000340034003400340034003400340134FE
:101F42000034803400340634003400340034183451
:101F5200003400340034603400340034003405347A
:101F620000347F340034003400348234003480344E
:101F720000348C34003480340034B0340034803483
:101F82000034C0340034803400347F3400340034F0
:101F92000034073400340034003480340034803498
:101FA2000034803400348034003480340034FF3410
:101FB200003480340034003400348034003400347F
:101FC2000034803400340734003441340034803427
:101FD2000034823400348034003484340034803459
:101FE2000034883400348034003490340034803437
:101FF2000034603400348034003407340034413417
:10200200003400340034803400348034003490349E
:1020120000348034003490340034803400349034FE
:102022000034803400347F34003400340034073408
:1020320000341834003400340034283400340034BE
:10204200003448340034003400348834003400341E
:102052000034FF3400348034003408340034003457
:1020620000340734003478340034003400348834C7
:10207200003480340034A034003480340034A0347E
:102082000034803400349134003400340034863417
:10209200003400340034073400343E340034003459
:1020A2000034493400340034003490340034803435
:1020B20000349034003480340034893400340034E5
:1020C20000348634003400340034073400344034A1
:1020D200003400340034803400340034003480345E
:1020E20000340034003483340034803400349834B3
:1020F20000340034003470340034003400340734C7
:1021020000342234003400340034553400340034B6
:1021120000349034003480340034903400348034FD
:102122000034553400340034003422340034003496
:102132000034073400342034003400340034513485
:10214200003400340034883400348034003488345D
:1021520000348034003451340034003400343E34CE
:1021620000340034003407340034003400340034C6
:1021720000340034003400340034003400340034BD
:1021820000340034003400340034003400340034AD
:102192000034123400340034003402340034003489
:1021A200003400340034003400340034003400348D
:1021B200003400340034003400340034003401347C
:1021C2000034003400341234003400340034033458
:1021D200003400340034003400340034003400345D
:1021E2000034083400340034003414340034003431
:1021F20000342234003400340034413400340034DA
:102202000034053400340034003400340034003427
:1022120000340034003414340034003400341434F4
:1022220000340034003414340034003400341434E4
:1022320000340034003405340034003400340034F7
:1022420000340034003400340034413400340034AB
:1022520000342234003400340034143400340034A6
:1022620000340834003400340034053400340034BF
:10227200003400340034203400340034003440345C
:102282000034003400348C34003480340034503450
:102292000034003400342034003400340034063476
:1022A20000343C340034003400344234003400340E
:1022B20000349934003400340034A534003400343E
:1022C200003499340034003400347C340034003457
:1022D2000034073400343F3400348034003448344E
:1022E200003400340034883400340034003488343C
:1022F20000340034003448340034003400343F34B5
:1023020000348034003407340034FF340034803425
:10231200003488340034803400348834003480340B
:1023220000348834003480340034883400348034FB
:1023320000347734003400340034073400347F34FE
:10234200003400340034803400348034003480346B
:1023520000348034003480340034803400348034DB
:102362000034803400344134003400340034073403
:102372000034FF340034803400348034003480343C
:1023820000348034003480340034803400348034AB
:10239200003441340034003400343E34003400341C
:1023A200003407340034FF3400348034003488347D
:1023B200003480340034883400348034003488346B
:1023C200003480340034803400348034003480346B
:1023D20000348034003407340034FF340034803455
:1023E200003488340034003400348834003400343B
:1023F2000034883400340034003480340034003433
:10240200003480340034003400340734003476342D
:10241200003400340034803400348034003480349A
:1024220000348034003488340034803400348834FA
:102432000034803400344F34003400340034073424
:102442000034FF3400348034003408340034003463
:1024520000340834003400340034083400340034CA
:1024620000340834003400340034FF340034803443
:102472000034073400340034003400340034803433
:102482000034803400348034003480340034FF342B
:10249200003480340034803400348034003480349A
:1024A2000034803400340634003481340034003483
:1024B200003480340034803400348034003480347A
:1024C2000034FF34003400340034803400340034EB
:1024D2000034803400340034003407340034FF34D4
:1024E20000348034003408340034003400340834BA
:1024F2000034003400341434003400340034223404
:10250200003400340034C1340034803400340734E1
:102512000034FF340034803400340034003480341A
:102522000034003400348034003400340034803409
:1025320000340034003480340034003400348034F9
:10254200003407340034FF34003480340034603403
:1025520000340034003410340034003400341034B9
:102562000034003400346034003400340034FF346A
:1025720000348034003407340034FF3400348034B3
:102582000034603400340034003418340034003431
:102592000034063400340034003401340034803412
:1025A2000034FF34003480340034073400343E34C5
:1025B20000340034003441340034003400348034B8
:1025C20000348034003480340034803400344134A8
:1025D2000034003400343E34003400340034073414
:1025E2000034FF3400348034003488340034003442
:1025F2000034883400340034003488340034003429
:102602000034883400340034003470340034003430
:102612000034073400343E34003400340034413492
:102622000034003400348034003480340034823486
:1026320000348034003441340034003400343E34F9
:1026420000348034003407340034FF3400348034E2
:1026520000348834003400340034883400340034C8
:1026620000348C340034003400348A3400340034B2
:10267200003471340034803400340734003471344F
:102682000034003400348834003480340034883418
:102692000034803400348834003480340034883488
:1026A20000348034003447340034003400340734BA
:1026B2000034803400340034003480340034003478
:1026C2000034FF3400348034003480340034003469
:1026D20000348034003400340034003400340034D8
:1026E200003407340034FF34003400340034003442
:1026F2000034803400340034003480340034003438
:102702000034803400340034003480340034FF3428
:1027120000340034003407340034FC340034003414
:102722000034033400340034003400340034803484
:102732000034003400348034003403340034003474
:102742000034FC3400340034003407340034FF34E5
:102752000034003400340034003480340034013456
:1027620000340034003401340034003400340034C6
:10277200003480340034FF34003400340034073431
:102782000034C13400348034003436340034003430
:102792000034083400340034003408340034003487
:1027A20000343634003400340034C1340034803410
:1027B2000034073400340034003400340034C034B0
:1027C20000340034003430340034003400340F3428
:1027D2000034803400343034003400340034C034E7
:1027E200003400340034073400348134003480343F
:1027F200003482340034803400348C340034803429
:1028020000349834003480340034A03400348034EE
:102812000034C034003480340034073400340034CF
:102822000034003400340034003400340034003406
:102832000034003400347F34003400340034403437
:1028420000340134003440340034013400340434A0
:1028520000340034003400340034003400340034D6
:10286200003460340034003400341834003400344E
:10287200003406340034003400340134003480342F
:1028820000340534003400340034003400340034A1
:102892000034003400340034003400340034413455
:1028A20000340034003441340034003400347F34C6
:1028B2000034003400340434003400340034003472
:1028C2000034103400340034003420340034003436
:1028D20000344034003400340034203400340034F6
:1028E2000034103400340034003406340034003430
:1028F2000034803400340034003480340034003436
:102902000034803400340034003480340034003425
:10291200003480340034003400348034003407340E
:102922000034003400340034003400340034003405
:1029320000340034003400340034003400340034F5
:102942000034403400340034003420340034003485
:1029520000340434003400340034003400340F34C2
:102962000034003400341034003480340034103425
:1029720000348034003411340034003400340F3415
:1029820000348034003406340034FF3400348034A0
:1029920000340934003400340034103400348034FC
:1029A2000034103400348034003410340034803465
:1029B20000340F34003400340034073400340F3450
:1029C20000340034003410340034803400341034C5
:1029D2000034803400341034003480340034103435
:1029E20000348034003409340034003400340734B5
:1029F20000340F3400340034003410340034803496
:102A02000034103400348034003410340034803404
:102A120000340934003400340034FF34003480348C
:102A220000340734003407340034003400340A34EC
:102A320000348034003412340034803400341234D0
:102A42000034803400340A340034803400340434D6
:102A520000340034003407340034003400340034CD
:102A6200003404340034003400343F340034803401
:102A72000034443400340034003440340034003430
:102A8200003420340034003400340634003400347E
:102A92000034003400341834003400340034253457
:102AA20000340034003424340034803400342434BC
:102AB2000034803400341F340034003400340634CF
:102AC2000034FF34003480340034083400340034DD
:102AD2000034103400340034003410340034003434
:102AE200003410340034003400340F3400348034A5
:102AF200003407340034003400340034003400342D
:102B02000034003400340034003400340034003423
:102B120000340034003400340034003400342734EC
:102B22000034803400340234003400340034003481
:102B320000340034003400340034013400340034F2
:102B420000340034003480340034003400348034E3
:102B520000344F340034003400340534003400347F
:102B62000034003400343F34003480340034043400
:102B720000340034003404340034003400340A34A5
:102B8200003400340034113400348034003406340C
:102B92000034003400340034003400340034003493
:102BA2000034003400340034003400340034003483
:102BB200003400340034003400343F3400348034B4
:102BC2000034023400341F340034803400340C34B6
:102BD200003400340034023400340034003402344F
:102BE2000034003400340C340034003400341F3418
:102BF200003480340034073400341F34003480340D
:102C0200003408340034003400341034003400340A
:102C120000341034003400340034083400340034FA
:102C2200003407340034803400340734003406346E
:102C320000340034003409340034003400341034D9
:102C420000348034003410340034803400340934C9
:102C520000340034003406340034003400340734C5
:102C620000341F34003480340034243400340034FF
:102C7200003444340034003400344434003400342A
:102C8200003428340034003400341034003400346A
:102C9200003407340034003400340034003410347B
:102CA2000034003400342834003400340034443416
:102CB20000340034003444340034003400343F34EF
:102CC20000348034003406340034003400340034DC
:102CD20000340734003480340034083400340034C3
:102CE2000034103400340034003410340034003422
:102CF2000034083400340034003406340034003424
:102D02000034003400340834003480340034143485
:102D120000348034003414340034803400341434E9
:102D22000034803400341334003400340034063468
:102D320000340034003400340034003400340034F1
:102D420000340034003400340034083400340034D9
:102D520000343F340034803400340834003400340A
:102D62000034043400341F3400340034003400349E
:102D720000348034003400340034803400340034B1
:102D82000034803400341F34003400340034003402
:102D9200003400340034073400340034003400348A
:102DA20000341E3400340034003401340034003462
:102DB20000340034003480340034013400340034F0
:102DC20000341E34003400340034063400341F341E
:102DD20000340034003400340034803400340134D0
:102DE2000034003400340134003400340034003440
:102DF2000034803400341F3400340034003407348B
:102E02000034003400340034003410340034803490
:102E12000034093400340034003406340034003401
:102E22000034093400340034003410340034803467
:102E320000340634003400340034003400341834D2
:102E42000034003400340434003480340034033459
:102E520000340034003404340034003400341834B4
:102E620000340034003406340034003400340034BA
:102E7200003400340034003400341134003480341F
:102E8200003412340034803400341434003480347A
:102E92000034083400348034003405340034003403
:102EA2000034003400340034003400340034003480
:102EB20000340034003408340034003400347734F1
:102EC200003400340034413400340434003400341B
:102ED2000034003400340034003400340034003450
:102EE2000034003400340034003400340034003440
:102EF20000340034003400340034FF3400348034B1
:102F0200003402340034003400340034003400341D
:102F120000340034003400340034003400344134CE
:102F22000034003400347734003400340034083480
:102F320000340034003404340034103400340034DB
:102F420000342034003400340034103400340034AF
:102F520000340834003400340034043400340034C3
:102F620000340834003400340034073400340034B0
:102F720000340034003400340034003400340034AF
:102F8200003400340034003400340034003400349F
:102F9200003400340034003400340034003400348F
:102FA200003400340034003400340034003400347F
:103D9200003400340034F034E034D034C034B03471
:103DA200A034903480347034603450344034303431
:103DB20020341034F034E034D034C034B034A03481
:103DC2009034803470346034503440343034203491
:103DD2001034F034E034D034C034B034A0349034F1
:103DE20080347034603450344034303420341034F1
:103DF200F034E034D034C034B034A0349034803461
:103E02007034603450344034303420341034F03460
:103E1200E034D034C034B034A034903480347034C0
:103E2200603450344034303420341034F034E034D0
:103E3200D034C034B034A034903480347034603420
:103E420050344034303420341034F034E034D03440
:103E5200C034B034A0349034803470346034503480
:103E62004034303420341034F034E034D034C034B0
:103E7200B034A034903480347034603450344034E0
:103E82003034203410340134003404340034023429
:023E92000034FA
:02400E003AFF77
:00000001FF
