:060000000A128A157F2E92
:10000A0014340034F401F5010A28701C0D280E2856
:10001A0014287208F4070318F50A7308F507013063
:10002A000310F20DF30DFF3E031D152801300310D6
:10003A00F10CF00CFF3E031D1C2871087004031D0F
:10004A00272828280A2829287508F101F1077408A1
:10005A00F001F0073028080023344F3443344B347E
:10006A005034493454340034373434342634003468
:10007A0000340034003400340034003400340034D6
:10008A0000340034003400340034003400340034C6
:10009A0000340034003400340034003400340034B6
:1000AA0000340034003400340034003400340034A6
:1000BA000034003400340034003400340034003496
:1000CA000034003400340034003400340034003486
:1000DA000034003400340034003400340034003476
:1000EA0000340034FA01FB018312031386018701ED
:1000FA007F3088008501FC01FD017D08803AFF0000
:10010A0080307F02031D8B280C307C02031C8E2852
:10011A008F289128702A702A7908803AFF00833044
:10012A007F02031D9A28D430780203189D289E283E
:10013A00A3288312031387018801C2297908803A08
:10014A00FF0083307F02031DAC28E33078020318D6
:10015A00AF28B028C6289A30790783120313FF0004
:10016A00FA30780784000318FF0A0A128A15002752
:10017A000A128A118700BF30A0002008880585016D
:10018A00C2297908803AFF0083307F02031DCF28F5
:10019A00F23078020318D228D328E9289A3079074E
:1001AA0083120313FF00FA30780784000318FF0A4A
:1001BA000A128A1500270A128A118700DF30A00066
:1001CA00200888058501C2297908803AFF00843011
:1001DA007F02031DF228013078020318F528F62859
:1001EA000C299A30790783120313FF00FA30780733
:1001FA0084000318FF0A0A128A1500270A128A11B4
:10020A008700EF30A000200888058501C2297908F7
:10021A00803AFF0084307F02031D152910307802CE
:10022A000318182919292F299A30790783120313D9
:10023A00FF00FA30780784000318FF0A0A128A15A9
:10024A0000270A128A118700F730A00020088805C3
:10025A008501C2297908803AFF0084307F02031D94
:10026A0038291F30780203183B293C2952299A3031
:10027A00790783120313FF00FA3078078400031802
:10028A00FF0A0A128A1500270A128A118700FB3010
:10029A00A000200888058501C2297908803AFF0054
:1002AA0084307F02031D5B292E30780203185E29F1
:1002BA005F2975299A30790783120313FF00FA30F0
:1002CA00780784000318FF0A0A128A1500270A12FF
:1002DA008A118700FD30A000200888058501C229FF
:1002EA007908803AFF0084307F02031D7E293D3061
:1002FA00780203188129822998299A30790783126A
:10030A000313FF00FA30780784000318FF0A0A1261
:10031A008A1500270A128A118700FE30A0002008D9
:10032A0088058501C2297908803AFF0084307F0256
:10033A00031DA1294C3078020318A429A529B6293E
:10034A009A30790783120313FF00FA307807840082
:10035A000318FF0A0A128A1500270A128A1187004F
:10036A00C229831203138701C229C229C229C229B9
:10037A00C229C229C229C229C2290130F807031891
:10038A00F90A0030F9077D08A1007C08A0000130B5
:10039A00FF000310A00DA10DFF0BCE297708F10174
:1003AA00F1077608F001F0071830F2000030F30088
:1003BA000A128A1107200A128A11123083120313B1
:1003CA00A2008F30A30070082207A4007108031846
:1003DA00710A2307A50020082407840021080318AE
:1003EA00210A2507FF000A128A1500270A128A1114
:1003FA0086000130FC070318FD0A0030FD077D085E
:10040A00A1007C08A0000130FF000310A00DA10D7F
:10041A00FF0B0A2A7708F101F1077608F001F007C5
:10042A001830F2000030F3000A128A1107200A126B
:10043A008A11123083120313A2008F30A3007008AE
:10044A002207A40071080318710A2307A5002008CF
:10045A002407840021080318210A2507FF000A122D
:10046A008A1500270A128A11A60026088804FA01AA
:10047A00FB01452A0130FA070318FB0A0030FB0783
:10048A007B08803A83120313A0006808803A20028E
:10049A00031D512A67087A02031C542A552A3F2A47
:1004AA00562A83120313860187017F3088000130A0
:1004BA00FC070318FD0A0030FD077D08803AFF009B
:1004CA0080307F02031D6B2A0C307C02031C6E2ACB
:1004DA006F2A9128702A080083120313C901CA01DE
:1004EA00B501B601D901DA01B701B801DB01DC01B6
:1004FA00B901BA01BB01BC01CB01CC011E30C50058
:10050A000030C600C701C801CD01CE01CF01D0011C
:10051A000A128A155A260A128A114B3083120313B9
:10052A00E5000430E600992A831203130508A700A0
:10053A00A801483084009F30FF000A128A1500275C
:10054A000A128A11A9000A128A1500270A128A11A8
:10055A00AA00463084009F30FF000A128A1500273D
:10056A000A128A11AB000A128A1500270A128A1186
:10057A00AC0029082B07AD002A0803182A0A2C0701
:10058A00AE0027082D05AF0028082E05B000300858
:10059A002F040319D12AD22AD12ED101D20152080D
:1005AA00803AFF0080307F02031DDD2A02305102AB
:1005BA00031CE02AE12AE32AF92AF92A01308312E4
:1005CA000313D1070318D20A0030D2075208803A1F
:1005DA00FF0080307F02031DF42A02305102031CFF
:1005EA00F72AF82AE32AF92A831203130508A7002F
:1005FA00A801483084009F30FF000A128A1500279C
:10060A000A128A11A9000A128A1500270A128A11E7
:10061A00AA00463084009F30FF000A128A1500277C
:10062A000A128A11AB000A128A1500270A128A11C5
:10063A00AC0029082B07AD002A0803182A0A2C0740
:10064A00AE0027082D05AF0028082E05B000300897
:10065A002F040319312B322BD12E8501FD3083163D
:10066A00031385000230831203138500D301D401DA
:10067A005408803AFF0080307F02031D462B033066
:10068A005302031C492B4A2B4C2B622B622B013041
:10069A0083120313D3070318D40A0030D40754086B
:1006AA00803AFF0080307F02031D5D2B0330530226
:1006BA00031C602B612B4C2B622B831203138501C5
:1006CA0007308316031385006B2B6B2B83120508E7
:1006DA00A700A801483084009F30FF000A128A153B
:1006EA0000270A128A11A9000A128A1500270A127B
:1006FA008A11AA004A3084009F30FF000A128A1524
:10070A0000270A128A11AB000A128A1500270A1258
:10071A008A11AC00463084009F30FF000A128A1505
:10072A0000270A128A11AD000A128A1500270A1236
:10073A008A11AE002B082D07AF002C0803182C0ACB
:10074A002E07B00029082F07B1002A0803182A0A21
:10075A003007B20027083105B30028083205B40073
:10076A00340833040319BA2BBB2B6B2BBE2BBE2BBD
:10077A00BE2B0508A700A801483084009F30FF005F
:10078A000A128A1500270A128A11A9000A128A1562
:10079A0000270A128A11AA004A3084009F30FF00FB
:1007AA000A128A1500270A128A11AB000A128A1540
:1007BA0000270A128A11AC00463084009F30FF00DD
:1007CA000A128A1500270A128A11AD000A128A151E
:1007DA0000270A128A11AE002B082D07AF002C0839
:1007EA0003182C0A2E07B00029082F07B1002A087F
:1007FA0003182A0A3007B20027083105B30028086F
:10080A003205B40034083304031D0C2C0D2CBE2B06
:10081A00102C102C102C0508A700A80148308400C1
:10082A009F30FF000A128A1500270A128A11A900AE
:10083A000A128A1500270A128A11AA004A3084006D
:10084A009F30FF000A128A1500270A128A11AB008C
:10085A000A128A1500270A128A11AC00463084004F
:10086A009F30FF000A128A1500270A128A11AD006A
:10087A000A128A1500270A128A11AE002B082D07C0
:10088A00AF002C0803182C0A2E07B00029082F07DE
:10089A00B1002A0803182A0A3007B20027083105CE
:1008AA00B30028083205B40034083304031D5E2C53
:1008BA005F2C102C602CE301E4016408803AFF00ED
:1008CA0080307F02031D6B2C8C306302031C6E2C5C
:1008DA006F2C712C2C2E2C2E83120313DF01E001B6
:1008EA006008803AFF0080307F02031D7E2C0930A9
:1008FA005F02031C812C822C842C612D612D8312B2
:10090A0003136008F101F1075F08F001F0070A120A
:10091A008A153B260A128A11932C932C4A3084009A
:10092A009F3083120313FF000A128A1500270A1246
:10093A008A11A700050827050319A42CA52C932CB6
:10094A00A82CA82CA82C4A3084009F30FF000A1239
:10095A008A1500270A128A11A70005082705031914
:10096A00B72CB82CA82CB92C6008803AFF0080302C
:10097A007F02031DC22C08305F020318C52CC62C47
:10098A00DC2C463084009F3083120313FF000A12C6
:10099A008A1500270A128A11A70005082705A80048
:1009AA005F083D3E84002808831380003A2D0830F2
:1009BA00831203135F066004031DE42CE52C3A2D11
:1009CA00483084009F30FF000A128A1500270A1255
:1009DA008A11A700463084009F30FF000A128A1548
:1009EA0000270A128A1127070505A8005F083D3E5D
:1009FA008400280883138000483084009F30FF0059
:100A0A000A128A1500270A128A11A7000A128A15E1
:100A1A0000270A128A11A800463084009F30FF007E
:100A2A000A128A1500270A128A11A9000A128A15BF
:100A3A0000270A128A11AA0027082907AB002808EA
:100A4A000318280A2A07AC0045082B062C04031DA4
:100A5A002F2D302D3A2D0A128A1515260A128A11BF
:100A6A003A2D3A2D3A2D3A2D3A2D4A3084009F30AC
:100A7A0083120313FF000A128A1500270A128A1129
:100A8A00A70005082705031D4B2D4C2D3A2D4D2D8A
:100A9A000130DF070318E00A0030E0076008803AF7
:100AAA00FF0080307F02031D5C2D09305F02031CAA
:100ABA005F2D602D842C612D831203136408803A04
:100ACA00FF0080307F02031D6C2D4630630203183D
:100ADA006F2D702D782D831203136308903E8400C6
:100AEA0083178001812D831203136308BA3E103ED7
:100AFA00840083178001812DDD01DE015E08803AC2
:100B0A00FF0080307F02031D8C2D08305D02031C1C
:100B1A008F2D902D922DE82DE82D831203135D0859
:100B2A003D3E84008313800803199C2D9D2DCE2DF4
:100B3A006408803AFF0080307F02031DA62D4630EC
:100B4A0063020318A92DAA2DBB2D831203135D0876
:100B5A00A7002707A03E840083130008A8006308A3
:100B6A00903E8400280883178007D42D831203132C
:100B7A005D08A7002707A03E840083130008A80089
:100B8A006308BA3E103E8400280883178007D42DD4
:100B9A00D42D0130CB070318CC0A0030CC07013022
:100BAA00DD070318DE0A0030DE075E08803AFF0020
:100BBA0080307F02031DE32D08305D02031CE62D01
:100BCA00E72D922DE82D0830831203134B064C04AF
:100BDA00031DF02DF12D162E6408803AFF00803097
:100BEA007F02031DFA2D463063020318FD2DFE2DE8
:100BFA00092E203083120313A7006308903E840055
:100C0A00270883178000162E203083120313A700AB
:100C1A006308BA3E103E8400270883178000162E08
:100C2A00162ECB01CC010130E3070318E40A003089
:100C3A00E4076408803AFF0080307F02031D272EF4
:100C4A008C306302031C2A2E2B2E712C2C2E83121D
:100C5A000313E101E2016208803AFF0080307F025B
:100C6A00031D392E8C306102031C3C2E3D2E3F2E73
:100C7A00AF2EAF2E831203136208803AFF00803032
:100C8A007F02031D4A2E4630610203184D2E4E2E56
:100C9A00732E831203136108903E84002030831759
:100CAA000002031C592E5A2E9B2E6108903E840086
:100CBA00203080026108903E84008008031D662E61
:100CCA00672E6E2E0130CD070318CE0A0030CE07EC
:100CDA009B2ECD01CE019B2E9B2E9B2E831203139E
:100CEA006108BA3E103E8400203083170002031CBC
:100CFA007F2E802E9B2E6108BA3E103E8400203043
:100D0A0080026108BA3E103E84008008031D8E2EC0
:100D1A008F2E962E0130CF070318D00A0030D00745
:100D2A009B2ECF01D0019B2E9B2E9B2E0130E107DB
:100D3A000318E20A0030E2076208803AFF008030B6
:100D4A007F02031DAA2E8C306102031CAD2EAE2E2B
:100D5A003F2EAF2E831203134D09A7004E09A80098
:100D6A00A70A0319A80A2708463EC5002808031837
:100D7A00013E003EC6004F09A7005009A800A70A75
:100D8A000319A80A2708463EC70028080318013E87
:100D9A00003EC800D12ED12E47084507F00048086A
:100DAA000318480A4607F1000730F2000030F30042
:100DBA000A128A1107200A128A1170098312031370
:100DCA00A7007109A800A70A0319A80A2708D43E90
:100DDA00A90028080318013E033EAA002A08803AFF
:100DEA00AB004A08803A2B02031DFD2E490829024E
:100DFA000318002F012FEE2F83120313D501D601FA
:100E0A005608803AFF0080307F02031D0E2F1130F2
:100E1A005502031C112F122F142F8C2F8C2F831283
:100E2A0003135C08803AFF0080307F02031D1F2FE6
:100E3A0046305B020318222F232F3E2F83120313FF
:100E4A005B08903E840083170008A700A8012708C2
:100E5A00F6002808F70059086507F8005A08031829
:100E6A005A0A6607F9000A128A1177200A128A11A9
:100E7A006A2F831203135C08803AFF0080307F02D6
:100E8A00031D492F8C305B0203184C2F4D2F6A2FFC
:100E9A00831203135B08BA3E103E840083170008CE
:100EAA00A700A8012708F6002808F70059086507CF
:100EBA00F8005A0803185A0A6607F9000A128A1132
:100ECA0077200A128A116A2F6A2F013083120313BC
:100EDA00DB070318DC0A0030DC070730D9070318E0
:100EEA00DA0A0030DA070130D5070318D60A0030CB
:100EFA00D6075608803AFF0080307F02031D872FED
:100F0A0011305502031C8A2F8B2F142F8C2FFF3080
:100F1A0083120313C9070318CA0AFF30CA076608EF
:100F2A00803AFF0083307F02031D9D2FCE30650279
:100F3A00031CA02FA12FB22FEF3083120313DB075C
:100F4A000318DC0AFF30DC07D901DA01FF30E507B4
:100F5A000318E60AFF30E607C62FEF3083120313A1
:100F6A00DB070318DC0AFF30DC070130DB07031854
:100F7A00DC0A0030DC07D901DA01D330E50003309E
:100F8A00E600D701D8015808803AFF0081307F0275
:100F9A00031DD12F90305702031CD42FD52FD72FE2
:100FAA00992A992A013083120313D7070318D80AFA
:100FBA000030D8075808803AFF0081307F02031DAD
:100FCA00E82F90305702031CEB2FEC2FD72F992ACA
:100FDA00992A4B3083120313E5000430E6004B30A4
:100FEA00C9000430CA00DB01DC01992A992A992A2E
:060FFA000A128A11002812
:101C0A00803400344034003420340034103400343A
:101C1A00083400340434003402340034013400340B
:101C2A005F30831203138800E33086008817CE30B2
:101C3A0084009E30FF000A128A1500270A128A15AC
:101C4A008700272E08007E088A007F0882000A1271
:101C5A008A1528260A128A158000840A04087D0635
:101C6A0003190034FF0A0319FE0A2C2E3F3083128F
:101C7A0003138800E330860088177008D43EF20008
:101C8A0071080318013E033EF3009A307307FF0000
:101C9A00FA30720784000318FF0A0A128A1500270D
:101CAA000A128A158700592E080083120313850128
:101CBA0007308316031385008312031386018316E4
:101CCA000313860183120313870183160313870103
:101CDA00831203138801831603138801E0308312E9
:101CEA0003139F000730831603139F0007309C00DD
:101CFA009D0108008317D630FD000E30FE00BA3071
:101D0A00FF00903084000A128A152C260A128A15BE
:101D1A005630FD000030FE003130FF0010308400E4
:101D2A000A128A152C260A128A158313B030FD006E
:101D3A000E30FE000530FF00A03084000A128A151A
:101D4A002C260A128A15831203130A128A110520F5
:101D5A000A128A15E7000A128A1106200A128A153F
:101D6A00E80083010A128A11712A23344F3443345A
:101D7A004B345034493454340034373434342634F0
:101D8A0000340034003400340034003400340034A9
:101D9A000034003400340034003400340034003499
:101DAA000034003400340034003400340034003489
:101DBA000034003400340034003400340034003479
:101DCA000034003400340034003400340034003469
:101DDA000034003400340034003400340034003459
:101DEA000034003400340034003400340034003449
:101DFA00003400340034FF1B0A2F83137F18831723
:101E0A000008840A0319FF0A08007F087F398A003C
:101E1A000408840A0319FF0A8200003400340034DB
:101E2A000034003400340034003400340034003408
:101E3A0000340034003400340034003400340034F8
:101E4A0000340034003400340034003400340034E8
:101E5A00003400340034003400347D34003400345B
:101E6A0000340034003400340034003400340034C8
:101E7A0000340034003400340034003400340034B8
:101E8A000034603400340034003400340034003448
:101E9A000034003400340034003460340034003438
:101EAA000034003400340034003412340034003476
:101EBA0000347F3400348034003412340034003467
:101ECA0000347F3400348034003412340034003457
:101EDA000034003400340034003432340034003426
:101EEA0000344934003400340034C93400348034B6
:101EFA0000344934003400340034263400340034C9
:101F0A000034003400340034003441340034803466
:101F1A000034A23400340034003444340034003431
:101F2A00003419340034003400342234003480344C
:101F3A000034C13400340034003423340034003413
:101F4A00003454340034803400348834003480340B
:101F5A0000349534003400340034623400340034E0
:101F6A000034053400348034003400340034003442
:101F7A000034603400340034003400340034003457
:101F8A0000340034003400340034003400340034A7
:101F9A000034003400340034003400340034003497
:101FAA0000343E3400340034003441340034003408
:101FBA0000348034003400340034003400340034F7
:101FCA000034003400340034003400340034003467
:101FDA000034803400348034003441340034003416
:101FEA0000343E3400340034003400340034003409
:101FFA00003400340034003400342A34003400340D
:10200A00003414340034003400340834003400340A
:10201A00003414340034003400342A3400340034D8
:10202A0000340034003400340034083400340034FE
:10203A00003408340034003400343E3400340034B0
:10204A0000340834003400340034083400340034D6
:10205A0000340034003400340034003400340034D6
:10206A000034603400340034003400340034003466
:10207A0000340034003400340034003400340034B6
:10208A0000340034003400340034003400340034A6
:10209A000034083400340034003408340034003486
:1020AA000034083400340034003408340034003476
:1020BA000034003400340034003400340034003476
:1020CA000034003400340034003400340034003466
:1020DA000034003400340034003401340034003455
:1020EA000034003400340034003400340034003446
:1020FA0000340134003480340034063400340034AF
:10210A0000341834003400340034603400340034AD
:10211A00003400340034003400347F340034003496
:10212A00003482340034803400348C3400348034F7
:10213A000034B034003480340034C0340034803485
:10214A0000347F34003400340034003400348034E6
:10215A0000348034003480340034803400348034D5
:10216A000034FF34003480340034003400348034C6
:10217A000034003400348034003441340034803474
:10218A00003482340034803400348434003480349F
:10219A00003488340034803400349034003480347D
:1021AA000034603400348034003441340034003464
:1021BA000034803400348034003490340034803465
:1021CA000034903400348034003490340034803445
:1021DA0000347F34003400340034183400340034BE
:1021EA0000342834003400340034483400340034D5
:1021FA0000348834003400340034FF34003480342E
:10220A0000340834003400340034783400340034A4
:10221A0000348834003480340034A03400348034EC
:10222A000034A03400348034003491340034003453
:10223A00003486340034003400343E340034003430
:10224A00003449340034003400349034003480348B
:10225A00003490340034803400348934003400343B
:10226A0000348634003400340034403400340034FE
:10227A0000348034003400340034803400340034B4
:10228A000034833400348034003498340034003409
:10229A000034703400340034003422340034003402
:1022AA00003455340034003400349034003480341F
:1022BA00003490340034803400345534003400340F
:1022CA000034223400340034003420340034003422
:1022DA0000345134003400340034883400348034FB
:1022EA0000348834003480340034513400340034EB
:1022FA0000343E34003400340034003400340034F6
:10230A000034003400340034003400340034003423
:10231A000034123400340034003400340034003401
:10232A000034003400340034003400340034003403
:10233A0000340034003400340034013400340034F2
:10234A0000341234003400340034003400340034D1
:10235A0000340034003400340034003400340034D3
:10236A0000340834003400340034143400340034A7
:10237A000034223400340034003441340034003450
:10238A0000340034003400340034003400340034A3
:10239A00003414340034003400341434003400346B
:1023AA00003414340034003400341434003400345B
:1023BA000034003400340034003400340034003473
:1023CA000034413400340034003422340034003400
:1023DA000034143400340034003408340034003437
:1023EA000034003400340034003400340034003443
:1023FA0000342034003400340034403400340034D3
:10240A0000348C34003480340034503400340034C6
:10241A00003420340034003400343C3400340034B6
:10242A000034423400340034003499340034003427
:10243A000034A534003400340034993400340034B4
:10244A0000347C340034003400343F3400348034A7
:10245A000034483400340034003488340034003402
:10246A0000348834003400340034483400340034F2
:10247A0000343F34003480340034FF340034803474
:10248A000034883400348034003488340034803492
:10249A000034883400348034003488340034803482
:1024AA00003477340034003400347F34003400348C
:1024BA000034803400348034003480340034803472
:1024CA000034803400348034003480340034803462
:1024DA0000344134003400340034FF340034803492
:1024EA000034803400348034003480340034803442
:1024FA0000348034003480340034413400340034F1
:10250A0000343E34003400340034FF340034803464
:10251A000034883400348034003488340034803401
:10252A0000348834003480340034803400348034F9
:10253A0000348034003480340034FF340034803472
:10254A0000348834003400340034883400340034D1
:10255A0000348834003400340034803400340034C9
:10256A0000348034003400340034763400340034CB
:10257A0000348034003480340034803400348034B1
:10258A000034883400348034003488340034803491
:10259A0000344F34003400340034FF3400348034C3
:1025AA000034083400340034003408340034003471
:1025BA000034083400340034003408340034003461
:1025CA000034FF34003480340034803400348034E2
:1025DA0000348034003480340034FF3400348034D2
:1025EA000034803400348034003480340034803441
:1025FA0000340034003400340034813400340034B0
:10260A000034803400348034003480340034803420
:10261A000034FF3400340034003480340034003491
:10262A0000348034003400340034FF340034803401
:10263A0000340834003400340034083400340034E0
:10264A0000341434003400340034223400340034AA
:10265A000034C134003480340034FF340034803410
:10266A0000340034003480340034003400348034C0
:10267A0000340034003480340034003400348034B0
:10268A0000340034003480340034FF3400348034A1
:10269A000034603400340034003410340034003420
:1026AA000034103400340034003460340034003410
:1026BA000034FF34003480340034FF340034803472
:1026CA0000346034003400340034183400340034E8
:1026DA0000340634003400340034013400348034C9
:1026EA000034FF340034803400343E340034003483
:1026FA0000344134003400340034803400348034EF
:10270A0000348034003480340034413400340034DE
:10271A0000343E34003400340034FF340034803452
:10272A0000348834003400340034883400340034EF
:10273A0000348834003400340034883400340034DF
:10274A00003470340034003400343E340034003431
:10275A00003441340034003400348034003480348E
:10276A00003482340034803400344134003400347C
:10277A0000343E34003480340034FF340034803472
:10278A00003488340034003400348834003400348F
:10279A0000348C340034003400348A340034003479
:1027AA00003471340034803400347134003400341D
:1027BA00003488340034803400348834003480345F
:1027CA00003488340034803400348834003480344F
:1027DA000034473400340034003480340034003488
:1027EA0000348034003400340034FF340034803440
:1027FA00003480340034003400348034003400342F
:10280A0000340034003400340034FF34003400341F
:10281A00003400340034803400340034003480340E
:10282A0000340034003480340034003400348034FE
:10283A000034FF34003400340034FC3400340034F3
:10284A00003403340034003400340034003480345B
:10285A00003400340034803400340334003400344B
:10286A000034FC34003400340034FF3400340034C3
:10287A00003400340034803400340134003400342D
:10288A00003401340034003400340034003480341D
:10289A000034FF34003400340034C134003480344E
:1028AA000034363400340034003408340034003440
:1028BA000034083400340034003436340034003430
:1028CA000034C134003480340034C034003400345D
:1028DA00003430340034003400340F34003480348F
:1028EA0000343034003400340034C034003400344E
:1028FA00003400340034003400348134003480342D
:10290A00003482340034803400348C34003480340F
:10291A0000349834003480340034A03400348034D5
:10292A000034C034003480340034003400340034BD
:10293A0000347F340034003400344034003401342D
:10294A00003440340034013400340034003400349C
:10295A0000340034003400340034003400340034CD
:10296A000034603400340034003418340034003445
:10297A000034063400340034003401340034803426
:10298A00003400340034003400340034003400349D
:10299A00003400340034003400344134003400344C
:1029AA00003441340034003400347F3400340034BD
:1029BA00003400340034003400341034003400345D
:1029CA0000342034003400340034403400340034FD
:1029DA00003420340034003400341034003400341D
:1029EA0000340034003400340034003400348034BD
:1029FA00003400340034803400340034003480342D
:102A0A00003400340034803400340034003480341C
:102A1A00003400340034803400340034003400348C
:102A2A0000340034003400340034403400340034BC
:102A3A0000342034003400340034003400340034CC
:102A4A00003400340034003400340F3400340034CD
:102A5A0000341034003480340034103400348034AC
:102A6A00003411340034003400340F34003480341C
:102A7A0000340034003400340034FF34003480342D
:102A8A000034093400340034003410340034003483
:102A9A00003410340034003400341034003400346C
:102AAA0000340F340034003400340F34003400345E
:102ABA00003410340034803400341034003480344C
:102ACA00003410340034803400341034003480343C
:102ADA00003409340034003400340F340034003434
:102AEA00003410340034803400341034003480341C
:102AFA000034103400348034003409340034003493
:102B0A000034FF3400348034003407340034003495
:102B1A0000340A34003480340034123400348034EF
:102B2A00003412340034803400340A3400348034DF
:102B3A0000340434003400340034043400340034E3
:102B4A0000343F34003480340034443400340034D8
:102B5A00003440340034003400342034003400346B
:102B6A000034003400340034003404340034803437
:102B7A0000340A3400340034003411340034003490
:102B8A00003411340034003400340A340034003480
:102B9A0000340734003480340034FF340034803485
:102BAA000034083400340034003410340034003463
:102BBA00003410340034003400341034003400344B
:102BCA0000340F34003480340034003400340034CC
:102BDA0000340034003400340034273400348034A4
:102BEA00003400340034003400340034003400343B
:102BFA00003400340034003400340134003400342A
:102C0A00003400340034803400340034003480341A
:102C1A0000344F34003400340034003400340034BB
:102C2A00003400340034003400343F34003480343B
:102C3A0000340434003400340034043400340034E2
:102C4A0000340A340034003400341134003480343F
:102C5A0000340034003400340034003400340034CA
:102C6A00003400340034003400343F3400348034FB
:102C7A0000340034003400340034003400340034AA
:102C8A00003400340034003400341F3400348034FB
:102C9A0000340C340034003400340234003400347C
:102CAA00003402340034003400340C34003400346C
:102CBA0000341F340034803400341F34003480342C
:102CCA000034083400340034003410340034003442
:102CDA000034103400340034003408340034003432
:102CEA0000340734003480340034063400340034AD
:102CFA000034093400340034003410340034803491
:102D0A000034103400348034003409340034003480
:102D1A00003406340034003400340734003480347C
:102D2A0000340A34003400340034113400340034DE
:102D3A00003411340034003400340A3400340034CE
:102D4A0000340434003400340034043400340034D1
:102D5A0000340A34003400340034113400340034AE
:102D6A00003411340034003400340A34003400349E
:102D7A00003407340034803400340734003480349B
:102D8A000034083400340034003410340034003481
:102D9A000034103400340034003408340034003471
:102DAA0000340034003400340034083400348034F1
:102DBA000034143400348034003414340034803441
:102DCA0000341434003480340034133400340034B2
:102DDA000034003400340034003400340034003449
:102DEA00003408340034003400343F340034803472
:102DFA000034083400340034003400340034003421
:102E0A00003400340034003400341F3400340034F9
:102E1A000034003400348034003400340034803408
:102E2A00003400340034803400341F340034003459
:102E3A00003400340034003400341E3400340034CA
:102E4A000034013400340034003400340034803457
:102E5A00003401340034003400341E3400340034A9
:102E6A00003400340034003400341F340034003499
:102E7A000034003400348034003401340034003427
:102E8A000034013400340034003400340034803417
:102E9A0000341F34003400340034103400348034D9
:102EAA000034093400340034003406340034003469
:102EBA0000340934003400340034103400348034CF
:102ECA000034003400340034003418340034003440
:102EDA0000340434003480340034033400340034C1
:102EEA00003404340034003400341834003400341C
:102EFA000034003400340034003400340034003428
:102F0A0000341134003480340034123400348034F4
:102F1A0000341434003480340034083400348034EB
:102F2A0000340034003400340034003400340034F7
:102F3A0000340034003400340034083400340034DF
:102F4A00003477340034003400344134003400341F
:102F5A0000340034003400340034003400340034C7
:102F6A0000340034003400340034003400340034B7
:102F7A000034F73400348034003400340034003430
:102F8A000034003400340034003400340034003497
:102F9A0000344134003400340034773400340034CF
:102FAA00003408340034003400340034003400346F
:102FBA000034003400340034003410340034003457
:102FCA000034203400340034003410340034003427
:102FDA00003408340034003400340434003400343B
:102FEA00003408340034003400340034003400342F
:102FFA000034003400340034003400340034003427
:10300A000034003400340034003400340034003416
:10301A000034003400340034003400340034003406
:10302A0000340034003400340034003400340034F6
:103D9A000034F034E034D034C034B034A034903439
:103DAA008034703460345034403430342034103429
:103DBA00F034E034D034C034B034A0349034803499
:103DCA007034603450344034303420341034F03499
:103DDA00E034D034C034B034A034903480347034F9
:103DEA00603450344034303420341034F034E03409
:103DFA00D034C034B034A034903480347034603459
:103E0A0050344034303420341034F034E034D03478
:103E1A00C034B034A03490348034703460345034B8
:103E2A004034303420341034F034E034D034C034E8
:103E3A00B034A03490348034703460345034403418
:103E4A00303420341034F034E034D034C034B03458
:103E5A00A034903480347034603450344034303478
:103E6A0020341034F034E034D034C034B034A034C8
:103E7A0090348034703460345034403430342034D8
:0E3E8A001034013400340434003402340034A7
:02400E003AFF77
:00000001FF
