:060000000A128A113B28E0
:1000760083135430FD000030FE004D30FF00423047
:1000860084000A128A1163200A128A1183010A1255
:100096008A15FA2E01340034003400340B3400344F
:1000A6000B3400341234003400340034003400348D
:1000B60000340034003400347E088A007F08820051
:1000C6000A128A115F200A128A118000840A040823
:1000D6007D0603190034FF0A0319FE0A63288312FA
:1000E6000313850183160313850183120313860107
:1000F60083160313860183120313870183160313E2
:1001060087018312031388018316031388010800ED
:10011600F401F5018E28701C9128922898287208FF
:10012600F4070318F50A7308F50701300310F20DFA
:10013600F30DFF3E031D992801300310F10CF00C5E
:10014600FF3E031DA02871087004031DAB28AC28D0
:100156008E28AD287508F101F1077408F001F00743
:10016600B428080083120313A001A10186018701A8
:10017600880185017908803AFF0080307F02031DDF
:10018600C628153078020318C928CA28E82879082D
:10019600FB007808FA000130FF000310FA0DFB0D92
:1001A600FF0BD0288A307B0783120313FF008230AF
:1001B6007A0784000318FF0A0A128A1500200A1219
:1001C6008A1187000817850170297908803AFF008F
:1001D60080307F02031DF128243078020318F428AA
:1001E600F52813297908FB007808FA000130FF008A
:1001F6000310FA0DFB0DFF0BFB288A307B078312D9
:100206000313FF0082307A0784000318FF0A0A12DC
:100216008A1500200A128A1187008816850170291E
:100226007908803AFF0080307F02031D1C29333095
:10023600780203181F2920293E297908FB0078082F
:10024600FA000130FF000310FA0DFB0DFF0B262903
:100256008A307B0783120313FF0082307A078400FB
:100266000318FF0A0A128A1500200A128A1187004B
:100276000816850170297908803AFF0080307F02D0
:10028600031D47294230780203184A294B29692958
:100296007908FB007808FA000130FF000310FA0D18
:1002A600FB0DFF0B51298A307B0783120313FF00D6
:1002B60082307A0784000318FF0A0A128A15002082
:1002C6000A128A1187008815850170298312031383
:1002D600870170297029702970290130F8070318E1
:1002E600F90A0030F9077708F101F1077608F001FD
:1002F600F0071830F2000030F3000A128A118B2042
:100306000A128A118830710783120313FF00123014
:10031600700784000318FF0A0A128A1500200A12C1
:100326008A1186007708F101F1077608F001F007D7
:100336001830F2000030F3000A128A118B200A12DC
:100346008A117008023EFA0071080318013E003E49
:10035600FB0088307B0783120313FF0012307A07F5
:1003660084000318FF0A0A128A1500200A128A114D
:10037600FC007C088804A001A1012108803AFF0046
:1003860080307F02031DC92914302002031CCC29AA
:10039600CD29CF29E529E529013083120313A007CA
:1003A6000318A10A0030A1072108803AFF00803017
:1003B6007F02031DE02914302002031CE329E429EF
:1003C600CF29E52983120313850186018701880158
:1003D60089017908803AFF0080307F02031DF529E4
:1003E600153078020318F829F929172A7908FB002D
:1003F6007808FA000130FF000310FA0DFB0DFF0B21
:10040600FF298A307B0783120313FF0082307A07A5
:1004160084000318FF0A0A128A1500200A128A119C
:100426008700081785019F2A7908803AFF008030E7
:100436007F02031D202A243078020318232A242A47
:10044600422A7908FB007808FA000130FF00031001
:10045600FA0DFB0DFF0B2A2A8A307B078312031342
:10046600FF0082307A0784000318FF0A0A128A15F1
:1004760000200A128A118700881685019F2A7908AA
:10048600803AFF0080307F02031D4B2A333078020A
:1004960003184E2A4F2A6D2A7908FB007808FA00BD
:1004A6000130FF000310FA0DFB0DFF0B552A8A30B1
:1004B6007B0783120313FF0082307A078400031838
:1004C600FF0A0A128A1500200A128A1187000816E6
:1004D60085019F2A7908803AFF0080307F02031D3C
:1004E600762A423078020318792A7A2A982A7908D5
:1004F600FB007808FA000130FF000310FA0DFB0D2F
:10050600FF0B802A8A307B0783120313FF00823099
:100516007A0784000318FF0A0A128A1500200A12B5
:100526008A118700881585019F2A83120313870184
:100536009F2A9F2A9F2A9F2A0130F8070318F90A43
:100546000030F9077708F101F1077608F001F007A6
:100556001830F2000030F3000A128A118B200A12BA
:100566008A117008043EFA0071080318013E003E25
:10057600FB0088307B0783120313FF0012307A07D3
:1005860084000318FF0A0A128A1500200A128A112B
:1005960086007708F101F1077608F001F0071830B8
:1005A600F2000030F3000A128A118B200A128A1117
:1005B6007008063EFA0071080318013E003EFB0073
:1005C60088307B0783120313FF0012307A078400FA
:1005D6000318FF0A0A128A1500200A128A11FC0063
:1005E6007C088804A001A1012108803AFF00803020
:1005F6007F02031D002B14302002031C032B042B47
:10060600062B1C2B1C2B013083120313A007031887
:10061600A10A0030A1072108803AFF0080307F023E
:10062600031D172B14302002031C1A2B1B2B062B21
:100636001C2B83120313850186018701880189011A
:100646007908803AFF0080307F02031D2C2B15307D
:10065600780203182F2B302B4E2B7908FB007808D5
:10066600FA000130FF000310FA0DFB0DFF0B362BCD
:100676008A307B0783120313FF0082307A078400D7
:100686000318FF0A0A128A1500200A128A11870027
:1006960008178501D62B7908803AFF0080307F0243
:1006A600031D572B2430780203185A2B5B2B792B0A
:1006B6007908FB007808FA000130FF000310FA0DF4
:1006C600FB0DFF0B612B8A307B0783120313FF00A0
:1006D60082307A0784000318FF0A0A128A1500205E
:1006E6000A128A11870088168501D62B7908803A66
:1006F600FF0080307F02031D822B333078020318FF
:10070600852B862BA42B7908FB007808FA0001308C
:10071600FF000310FA0DFB0DFF0B8C2B8A307B07B5
:1007260083120313FF0082307A0784000318FF0A3E
:100736000A128A1500200A128A11870008168501F6
:10074600D62B7908803AFF0080307F02031DAD2B3F
:10075600423078020318B02BB12BCF2B7908FB005F
:100766007808FA000130FF000310FA0DFB0DFF0BAD
:10077600B72B8A307B0783120313FF0082307A0778
:1007860084000318FF0A0A128A1500200A128A1129
:10079600870088158501D62B831203138601D62B75
:1007A600D62BD62BD62B0130F8070318F90A0030C2
:1007B600F9077708F101F1077608F001F00718301C
:1007C600F2000030F3000A128A118B200A128A11F5
:1007D6007008083EFA0071080318013E003EFB004F
:1007E60088307B0783120313FF0012307A078400D8
:1007F6000318FF0A0A128A1500200A128A118600B7
:100806007708F101F1077608F001F0071830F200D9
:100816000030F3000A128A118B200A128A1170081E
:100826000A3EFA0071080318013E003EFB008830BC
:100836007B0783120313FF0012307A078400031824
:10084600FF0A0A128A1500200A128A11FC007C0887
:100856008804A001A1012108803AFF0080307F02B0
:10086600031D372C14302002031C3A2C3B2C3D2C44
:10087600532C532C013083120313A0070318A10A2B
:100886000030A1072108803AFF0080307F02031D57
:100896004E2C14302002031C512C522C3D2C532C70
:1008A600831203138501860187018801890179086E
:1008B600803AFF0080307F02031D632C15307802DA
:1008C6000318662C672C852C7908FB007808FA003B
:1008D6000130FF000310FA0DFB0DFF0B6D2C8A3063
:1008E6007B0783120313FF0082307A078400031804
:1008F600FF0A0A128A1500200A128A1187000817B1
:1009060085010D2D7908803AFF0080307F02031D96
:100916008E2C243078020318912C922CB02C790856
:10092600FB007808FA000130FF000310FA0DFB0DFA
:10093600FF0B982C8A307B0783120313FF0082304B
:100946007A0784000318FF0A0A128A1500200A1281
:100956008A118700881685010D2D7908803AFF00D7
:1009660080307F02031DB92C333078020318BC2C6B
:10097600BD2CDB2C7908FB007808FA000130FF005B
:100986000310FA0DFB0DFF0BC32C8A307B07831275
:100996000313FF0082307A0784000318FF0A0A1245
:1009A6008A1500200A128A118700081685010D2D66
:1009B6007908803AFF0080307F02031DE42C423024
:1009C60078020318E72CE82C062D7908FB00780836
:1009D600FA000130FF000310FA0DFB0DFF0BEE2CA1
:1009E6008A307B0783120313FF0082307A07840064
:1009F6000318FF0A0A128A1500200A128A118700B4
:100A0600881585010D2D8312031386010D2D0D2DDD
:100A16000D2D0D2D0130F8070318F90A0030F907DE
:100A26007708F101F1077608F001F0071830F200B7
:100A36000030F3000A128A118B200A128A117008FC
:100A46000C3EFA0071080318013E003EFB00883098
:100A56007B0783120313FF0012307A078400031802
:100A6600FF0A0A128A1500200A128A1186007708E0
:100A7600F101F1077608F001F0071830F2000030B6
:100A8600F3000A128A118B200A128A1170080E3E90
:100A9600FA0071080318013E003EFB0088307B0710
:100AA60083120313FF0012307A0784000318FF0A2B
:100AB6000A128A1500200A128A11FC007C08880492
:100AC600A001A1012108803AFF0080307F02031DAA
:100AD6006E2D14302002031C712D722D742D8A2D5B
:100AE6008A2D013083120313A0070318A10A0030D0
:100AF600A1072108803AFF0080307F02031D852D63
:100B060014302002031C882D892D742D8A2D831202
:100B16000313850186018701880189017908803AD6
:100B2600FF0080307F02031D9A2D153078020318CE
:100B36009D2D9E2DBC2D7908FB007808FA0001300A
:100B4600FF000310FA0DFB0DFF0BA42D8A307B0767
:100B560083120313FF0082307A0784000318FF0A0A
:100B66000A128A1500200A128A11870008178501C1
:100B7600442E7908803AFF0080307F02031DC52D80
:100B8600243078020318C82DC92DE72D7908FB00FB
:100B96007808FA000130FF000310FA0DFB0DFF0B79
:100BA600CF2D8A307B0783120313FF0082307A072A
:100BB60084000318FF0A0A128A1500200A128A11F5
:100BC600870088168501442E7908803AFF00803018
:100BD6007F02031DF02D333078020318F32DF42D18
:100BE600122E7908FB007808FA000130FF00031086
:100BF600FA0DFB0DFF0BFA2D8A307B0783120313C8
:100C0600FF0082307A0784000318FF0A0A128A1549
:100C160000200A128A11870008168501442E7908D9
:100C2600803AFF0080307F02031D1B2E423078027F
:100C360003181E2E1F2E3D2E7908FB007808FA0099
:100C46000130FF000310FA0DFB0DFF0B252E8A3035
:100C56007B0783120313FF0082307A078400031890
:100C6600FF0A0A128A1500200A128A1187008815BF
:100C76008501442E831203138601442E442E442EEE
:100C8600442E0130F8070318F90A0030F9077708EF
:100C9600F101F1077608F001F0071830F200003094
:100CA600F3000A128A118B200A128A117008103E6C
:100CB600FA0071080318013E003EFB0088307B07EE
:100CC60083120313FF0012307A0784000318FF0A09
:100CD6000A128A1500200A128A1186007708F10185
:100CE600F1077608F001F0071830F2000030F30043
:100CF6000A128A118B200A128A117008123EFA0013
:100D060071080318013E003EFB0088307B07831202
:100D16000313FF0012307A0784000318FF0A0A1231
:100D26008A1500200A128A11FC007C088804A0019A
:100D3600A1012108803AFF0080307F02031DA52E05
:100D460014302002031CA82EA92EAB2EC12EC12EB4
:100D5600013083120313A0070318A10A0030A1076C
:100D66002108803AFF0080307F02031DBC2E14301C
:100D76002002031CBF2EC02EAB2EC12E83120313DE
:100D8600850186018701880189017908803AFF007B
:100D960080307F02031DD12E153078020318D42E21
:100DA600D52EF32E7908FB007808FA000130FF00F3
:100DB6000310FA0DFB0DFF0BDB2E8A307B07831227
:100DC6000313FF0082307A0784000318FF0A0A1211
:100DD6008A1500200A128A118700081785017B2FC1
:100DE6007908803AFF0080307F02031DFC2E2430F4
:100DF60078020318FF2E002F1E2F7908FB007808B3
:100E0600FA000130FF000310FA0DFB0DFF0B062F51
:100E16008A307B0783120313FF0082307A0784002F
:100E26000318FF0A0A128A1500200A128A1187007F
:100E3600881685017B2F7908803AFF0080307F0273
:100E4600031D272F3330780203182A2F2B2F492F03
:100E56007908FB007808FA000130FF000310FA0D4C
:100E6600FB0DFF0B312F8A307B0783120313FF0024
:100E760082307A0784000318FF0A0A128A150020B6
:100E86000A128A118700081685017B2F7908803A95
:100E9600FF0080307F02031D522F42307802031874
:100EA600552F562F742F7908FB007808FA00013069
:100EB600FF000310FA0DFB0DFF0B5C2F8A307B073A
:100EC60083120313FF0082307A0784000318FF0A97
:100ED6000A128A1500200A128A11870088158501D0
:100EE6007B2F8312031386017B2F7B2F7B2F7B2F78
:100EF6000130F8070318F90A0030F9077708F101FD
:100F0600F1077608F001F0071830F2000030F30020
:100F16000A128A118B200A128A117008143EFA00EE
:100F260071080318013E003EFB0088307B078312E0
:100F36000313FF0012307A0784000318FF0A0A120F
:100F46008A1500200A128A1186007708F101F10736
:100F56007608F001F0071830F2000030F3000A12AC
:100F66008A118B200A128A117008163EFA0071083F
:100F76000318013E003EFB0088307B0783120313F3
:100F8600FF0012307A0784000318FF0A0A128A1536
:100F960000200A128A11FC007C088804A001A10125
:100FA6002108803AFF0080307F02031DDC2F1430B9
:100FB6002002031CDF2FE02FE22FF82FF82F01303D
:100FC60083120313A0070318A10A0030A107210802
:100FD600803AFF0080307F02031DF32F1430200279
:100FE600031CF62FF72FE22FF82F83120313850128
:100FF60086018701880189010800FF1B0A288313DF
:101006007F1883170008840A0319FF0A08007F085F
:101016007F398A000408840A0319FF0A82003F34D4
:1010260000348034003448340034003400348834CA
:10103600003400340034883400340034003448343A
:101046000034003400343F34003480340034FF343C
:1010560000348034003488340034803400348834DA
:1010660000348034003488340034803400348834CA
:1010760000348034003477340034003400347F3454
:10108600003400340034803400348034003480343A
:1010960000348034003480340034803400348034AA
:1010A6000034803400344134003400340034FF34DA
:1010B600003480340034803400348034003480348A
:1010C60000348034003480340034803400344134B9
:1010D6000034003400343434003400340034FF3437
:1010E600003480340034883400348034003488344A
:1010F6000034803400348834003480340034803442
:101106000034803400348034003480340034FF34BA
:101116000034803400348834003400340034883499
:101126000034003400348834003400340034803411
:101136000034003400348034003400340034763413
:101146000034003400348034003480340034803479
:1011560000348034003488340034803400348834D9
:101166000034803400344F34003400340034FF340B
:101176000034803400340834003400340034083439
:1011860000340034003408340034003400340834A9
:10119600003400340034FF340034803400348034AA
:1011A6000034803400348034003480340034FF341A
:1011B6000034803400348034003480340034803489
:1011C6000034803400340034003400340034813478
:1011D60000340034003480340034803400348034E9
:1011E600003480340034FF3400340034003480345A
:1011F6000034003400348034003400340034FF34CA
:1012060000348034003408340034003400340834A8
:1012160000340034003414340034003400342234F2
:10122600003400340034C134003480340034FF34D8
:101236000034803400340034003480340034003408
:1012460000348034003400340034803400340034F8
:101256000034803400340034003480340034FF34E9
:1012660000348034003460340034003400341034E8
:101276000034003400341034003400340034603458
:10128600003400340034FF34003480340034FF343A
:1012960000348034003460340034003400341834B0
:1012A6000034003400340634003400340034013491
:1012B600003480340034FF340034803400343E344B
:1012C60000340034003442340034003400348034B6
:1012D60000348034003480340034803400344234A6
:1012E6000034003400343E34003400340034FF341B
:1012F60000348034003488340034003400348834B8
:101306000034003400348834003400340034883427
:1013160000340034003470340034003400343E3479
:101326000034003400344134003400340034803456
:101336000034803400348234003480340034413444
:101346000034003400343E34003480340034FF343A
:101356000034803400348834003400340034883457
:101366000034003400348C340034003400348A34C1
:101376000034003400347134003480340034713465
:101386000034003400348834003480340034883427
:101396000034803400348834003480340034883497
:1013A6000034803400344734003400340034803450
:1013B6000034003400348034003400340034FF3408
:1013C60000348034003480340034003400348034F7
:1013D6000034003400340034003400340034FF3468
:1013E60000340034003400340034803400340034D7
:1013F6000034803400340034003480340034003447
:10140600003480340034FF34003400340034FC34BB
:101416000034003400340334003400340034003423
:101426000034803400340034003480340034033413
:10143600003400340034FC34003400340034FF340B
:101446000034003400340034003480340034013475
:1014560000340034003401340034003400340034E5
:10146600003480340034FF34003400340034C13496
:101476000034803400343634003400340034083408
:101486000034003400340834003400340034363478
:10149600003400340034C134003480340034C034A5
:1014A60000340034003430340034003400340F3457
:1014B6000034803400343034003400340034C03416
:1014C60000340034003400340034003400348134F5
:1014D60000348034003482340034803400348C3458
:1014E6000034803400349834003480340034A0341E
:1014F600003480340034C034003480340034003486
:101506000034003400340034003400340034003435
:10151600003400340034F0340034E0340034D03485
:101526000034C0340034B0340034A0340034903475
:101536000034803400347034003460340034503465
:101546000034403400343034003420340034103455
:101556000034F0340034E0340034D0340034C03485
:101566000034B0340034A034003490340034803475
:101576000034703400346034003450340034403465
:101586000034303400342034003410340034F03465
:101596000034E0340034D0340034C0340034B03485
:1015A6000034A03400349034003480340034703475
:1015B6000034603400345034003440340034303465
:1015C60000342034003410340034F0340034E03475
:1015D6000034D0340034C0340034B0340034A03485
:1015E6000034903400348034003470340034603475
:1015F6000034503400344034003430340034203465
:10160600003410340034F0340034E0340034D03484
:101616000034C0340034B0340034A0340034903484
:101626000034803400347034003460340034503474
:101636000034403400343034003420340034103464
:101646000034F0340034E0340034D0340034C03494
:101656000034B0340034A034003490340034803484
:101666000034703400346034003450340034403474
:101676000034303400342034003410340034F03474
:101686000034E0340034D0340034C0340034B03494
:101696000034A03400349034003480340034703484
:1016A6000034603400345034003440340034303474
:1016B60000342034003410340034F0340034E03484
:1016C6000034D0340034C0340034B0340034A03494
:1016D6000034903400348034003470340034603484
:1016E6000034503400344034003430340034203474
:1016F600003410340034F0340034E0340034D03494
:101706000034C0340034B0340034A0340034903493
:101716000034803400347034003460340034503483
:101726000034403400343034003420340034103473
:101736000034F0340034E0340034D0340034C034A3
:101746000034B0340034A034003490340034803493
:101756000034703400346034003450340034403483
:101766000034303400342034003410340034F03483
:101776000034E0340034D0340034C0340034B034A3
:101786000034A03400349034003480340034703493
:101796000034603400345034003440340034303483
:0A17A6000034203400341034003405
:101DF40083120313BA01BB01BE01BF012630840064
:101E04004230A2000408A3001230A4002208840077
:101E140083130008A500A20A230884002508800073
:101E2400A30AA40B082F0530BC000030BD000A1221
:101E34008A1172200A128A15413083120313D400C6
:101E44000030D500252F831203133D08F101F1075B
:101E54003C08F001F0070730F2000030F3000A12EA
:101E64008A118B200A128A157008013E831203130B
:101E7400A20071080318013E003EA300A209A309B1
:101E8400A20A0319A30A2308803AA4005508803A39
:101E94002402031D4F2F540822020318522F532FDC
:101EA400F42F83120313C001C101C22F8312031341
:101EB4003E085407A2003F0803183F0A5507A30031
:101EC400A31B652F662F872F4008A2002207263EFA
:101ED400840083130008F600840A0008F7003E0813
:101EE4005407F8003F0803183F0A5507F9000A127F
:101EF4008A11B5200A128A15073083120313BE070C
:101F04000318BF0A0030BF07BA2F0730BE070318F3
:101F1400BF0A0030BF07B801B901992F01308312FD
:101F24000313B8070318B90A0030B907992F4108F9
:101F3400F101F1074008F001F0071430F20000301D
:101F4400F3000A128A118B200A128A157108803A4A
:101F540083120313A2003908803A2202031DB42F0E
:101F6400380870020318B72FB82F902FBA2FBA2F42
:101F7400013083120313C0070318C10A0030C107DC
:101F84004108803AA2003D08803A2202031DCC2F6A
:101F94003C084002031CCF2FD02F582FD12F83127F
:101FA4000313BE01BF010130BA070318BB0A003096
:101FB400BB073B08803AFF0080307F02031DE42FFB
:101FC40005303A02031CE72FE82F252F8312031351
:101FD400BA01BB01FF30D4070318D50AFF30D50777
:101FE400252F252F413083120313D4000030D50050
:0C1FF400252F252F252F0A128A11002806
:02400E003AFF77
:00000001FF
