:060000000A128A11122809
:10002000143400348317D630FD000030FE004D300C
:10003000FF00903084000A128A1583260A128A1162
:100040005630FD000030FE009330FF001030840079
:100050000A128A1583260A128A118313B030FD0012
:100060000E30FE005C30FF00A03084000A128A15BA
:1000700083260A128A11831203130A128A1110208E
:100080000A128A11E5000A128A1111200A128A1135
:10009000E60083010A128A11D32A23344F344334F1
:1000A0004B345034493454340034373434342634E7
:1000B00000340034003400340034003400340034A0
:1000C0000034003400340034003400340034003490
:1000D0000034003400340034003400340034003480
:1000E0000034003400340034003400340034003470
:1000F0000034003400340034003400340034003460
:10010000003400340034003400340034003400344F
:10011000003400340034003400340034003400343F
:1001200000340034003423344F3443344B345034DF
:1001300049345434003437343434263400340034F1
:10014000003400340034003400340034003400340F
:1001500000340034003400340034003400340034FF
:1001600000340034003400340034003400340034EF
:1001700000340034003400340034003400340034DF
:1001800000340034003400340034003400340034CF
:1001900000340034003400340034003400340034BF
:1001A00000340034003400340034003400340034AF
:1001B0000034FA01FB0183120313860187017F30AB
:1001C00088008501FC01FD017D08803AFF00803038
:1001D0007F02031DED280C307C02031CF028F1285F
:1001E000F328D22AD22A7908803AFF0083307F028E
:1001F000031DFC28D43078020318FF2800290529A4
:100200008312031387018801242A7908803AFF00AA
:1002100083307F02031D0E29E33078020318112971
:10022000122928299A30790783120313FF00FA3024
:10023000780784000318FF0A0A128A1500270A1299
:100240008A118700BF30A000200888058501242A74
:100250007908803AFF0083307F02031D3129F23094
:1002600078020318342935294B299A3079078312EB
:100270000313FF00FA30780784000318FF0A0A12FC
:100280008A1500270A128A118700DF30A000200893
:1002900088058501242A7908803AFF0084307F028E
:1002A000031D5429013078020318572958296E2953
:1002B0009A30790783120313FF00FA30780784001D
:1002C0000318FF0A0A128A1500270A128A118700EA
:1002D000EF30A000200888058501242A7908803A9B
:1002E000FF0084307F02031D772910307802031845
:1002F0007A297B2991299A30790783120313FF0009
:10030000FA30780784000318FF0A0A128A150027BA
:100310000A128A118700F730A0002008880585019D
:10032000242A7908803AFF0084307F02031D9A292D
:100330001F30780203189D299E29B4299A30790725
:1003400083120313FF00FA30780784000318FF0AB2
:100350000A128A1500270A128A118700FB30A000B2
:10036000200888058501242A7908803AFF00843016
:100370007F02031DBD292E3078020318C029C12930
:10038000D7299A30790783120313FF00FA307807D0
:1003900084000318FF0A0A128A1500270A128A111C
:1003A0008700FD30A000200888058501242A7908EF
:1003B000803AFF0084307F02031DE0293D3078023F
:1003C0000318E329E429FA299A30790783120313E1
:1003D000FF00FA30780784000318FF0A0A128A1512
:1003E00000270A128A118700FE30A0002008880525
:1003F0008501242A7908803AFF0084307F02031D9A
:10040000032A4C3078020318062A072A182A9A3041
:10041000790783120313FF00FA307807840003186A
:10042000FF0A0A128A1500270A128A118700242A55
:10043000831203138701242A242A242A242A242A03
:10044000242A242A242A242A0130F8070318F90A26
:100450000030F9077D08A1007C08A0000130FF00F2
:100460000310A00DA10DFF0B302A7708F101F10751
:100470007608F001F0071830F2000030F3000A129D
:100480008A15D6260A128A11123083120313A2008B
:100490008F30A30070082207A40071080318710AA6
:1004A0002307A50020082407840021080318210A37
:1004B0002507FF000A128A1500270A128A118600F2
:1004C0000130FC070318FD0A0030FD077D08A1007C
:1004D0007C08A0000130FF000310A00DA10DFF0B50
:1004E0006C2A7708F101F1077608F001F00718305F
:1004F000F2000030F3000A128A15D6260A128A1179
:10050000123083120313A2008F30A3007008220759
:10051000A40071080318710A2307A5002008240706
:10052000840021080318210A2507FF000A128A15F2
:1005300000270A128A11A60026088804FA01FB0186
:10054000A72A0130FA070318FB0A0030FB077B08D3
:10055000803A83120313A0006608803A2002031D2C
:10056000B32A65087A02031CB62AB72AA12AB82A38
:1005700083120313860187017F3088000130FC0756
:100580000318FD0A0030FD077D08803AFF00803027
:100590007F02031DCD2A0C307C02031CD02AD12AF5
:1005A000F328D22A080083120313CB01CC01B50132
:1005B000B601D901DA01B701B801DB01DC01B901EB
:1005C000BA01BB01BC01C501C6010F30C700003034
:1005D000C800C901CA010A128A15B1260A128A1175
:1005E0004B3083120313E3000430E400F72A831234
:1005F00003130508A700A801483084009F30FF00BE
:100600000A128A1500270A128A11A9000A128A15ED
:1006100000270A128A11AA00463084009F30FF008A
:100620000A128A1500270A128A11AB000A128A15CB
:1006300000270A128A11AC0029082B07AD002A08EE
:1006400003182A0A2C07AE0027082D05AF0028083A
:100650002E05B00030082F0403192F2B302BC62E87
:10066000CD01CE014E08803AFF0080307F02031D8D
:100670003B2B02304D02031C3E2B3F2B412B572BB3
:10068000572B013083120313CD070318CE0A003015
:10069000CE074E08803AFF0080307F02031D522BA8
:1006A00002304D02031C552B562B412B572B831226
:1006B00003130508A700A801483084009F30FF00FD
:1006C0000A128A1500270A128A11A9000A128A152D
:1006D00000270A128A11AA00463084009F30FF00CA
:1006E0000A128A1500270A128A11AB000A128A150B
:1006F00000270A128A11AC0029082B07AD002A082E
:1007000003182A0A2C07AE0027082D05AF00280879
:100710002E05B00030082F0403198F2B902BC62E06
:100720008501FD3083160313850002308312031305
:100730008500CF01D0015008803AFF0080307F0251
:10074000031DA42B05304F02031CA72BA82BAA2B9B
:10075000C02BC02B013083120313CF070318D00A1C
:100760000030D0075008803AFF0080307F02031D20
:10077000BB2B05304F02031CBE2BBF2BAA2BC02B5B
:100780008312031385010730831603138500C92BD9
:10079000C92B83120508A700A801483084009F30A8
:1007A000FF000A128A1500270A128A11A9000A12EC
:1007B0008A1500270A128A11AA004A3084009F3045
:1007C000FF000A128A1500270A128A11AB000A12CA
:1007D0008A1500270A128A11AC00463084009F3027
:1007E000FF000A128A1500270A128A11AD000A12A8
:1007F0008A1500270A128A11AE002B082D07AF00B8
:100800002C0803182C0A2E07B00029082F07B10066
:100810002A0803182A0A3007B20027083105B30056
:1008200028083205B400340833040319182C192C95
:10083000C92B1C2C1C2C1C2C0508A700A801483017
:1008400084009F30FF000A128A1500270A128A11BD
:10085000A9000A128A1500270A128A11AA004A3032
:1008600084009F30FF000A128A1500270A128A119D
:10087000AB000A128A1500270A128A11AC00463012
:1008800084009F30FF000A128A1500270A128A117D
:10089000AD000A128A1500270A128A11AE002B0831
:1008A0002D07AF002C0803182C0A2E07B0002908CA
:1008B0002F07B1002A0803182A0A3007B2002708B8
:1008C0003105B30028083205B40034083304031D91
:1008D0006A2C6B2C1C2C6E2C6E2C6E2C0508A70021
:1008E000A801483084009F30FF000A128A150027B3
:1008F0000A128A11A9000A128A1500270A128A11FF
:10090000AA004A3084009F30FF000A128A1500278F
:100910000A128A11AB000A128A1500270A128A11DC
:10092000AC00463084009F30FF000A128A15002771
:100930000A128A11AD000A128A1500270A128A11BA
:10094000AE002B082D07AF002C0803182C0A2E0729
:10095000B00029082F07B1002A0803182A0A300717
:10096000B20027083105B30028083205B400340866
:100970003304031DBC2CBD2C6E2CBE2CDF01E0010A
:100980006008803AFF0080307F02031DC92C8C3044
:100990005F02031CCC2CCD2CCF2C452E452E831270
:1009A0000313E101E2016208803AFF0080307F0218
:1009B000031DDC2C09306102031CDF2CE02CE22C2F
:1009C000BF2DBF2D831203136208F101F1076108E7
:1009D000F001F0070A128A1592260A128A11F12CE8
:1009E000F12C4A3084009F3083120313FF000A1257
:1009F0008A1500270A128A11A7000508270503197E
:100A0000022D032DF12C062D062D062D4A308400D3
:100A10009F30FF000A128A1500270A128A11A700C8
:100A2000050827050319152D162D062D172D62080B
:100A3000803AFF0080307F02031D202D08306102C4
:100A40000318232D242D3A2D463084009F30831225
:100A50000313FF000A128A1500270A128A11A70041
:100A600005082705A80061083D3E84002808831377
:100A70008000982D08308312031361066204031D61
:100A8000422D432D982D483084009F30FF000A12DC
:100A90008A1500270A128A11A700463084009F3069
:100AA000FF000A128A1500270A128A112707050576
:100AB000A80061083D3E8400280883138000483068
:100AC00084009F30FF000A128A1500270A128A113B
:100AD000A7000A128A1500270A128A11A8004630B8
:100AE00084009F30FF000A128A1500270A128A111B
:100AF000A9000A128A1500270A128A11AA002708DB
:100B00002907AB0028080318280A2A07AC00450863
:100B10002B062C04031D8D2D8E2D982D0A128A155F
:100B20006C260A128A11982D982D982D982D982DA3
:100B30004A3084009F3083120313FF000A128A1583
:100B400000270A128A11A70005082705031DA92DF1
:100B5000AA2D982DAB2D0130E1070318E20A0030D1
:100B6000E2076208803AFF0080307F02031DBA2D41
:100B700009306102031CBD2DBE2DE22CBF2D831256
:100B80000313DD01DE015E08803AFF0080307F0242
:100B9000031DCC2D08305D02031CCF2DD02DD22D8E
:100BA0002F2E2F2E831203135D083D3E84008313E6
:100BB00080080319DC2DDD2D1B2E6008803AFF0014
:100BC00080307F02031DE62D46305F020318E92DB9
:100BD000EA2D022E831203135F08903E84008317D0
:100BE00080015D03FF3AA70027070E3EA03E840068
:100BF00083130008A8005F08903E8400280883172C
:100C000080071B2E831203135F08103E8400831796
:100C100080015D03FF3AA70027070E3EA03E840037
:100C200083130008A8005F08103E8400280883177B
:100C300080071B2E1B2E0130DD070318DE0A003053
:100C4000DE075E08803AFF0080307F02031D2A2EF7
:100C500008305D02031C2D2E2E2ED22D2F2E01309A
:100C600083120313DF070318E00A0030E00760086F
:100C7000803AFF0080307F02031D402E8C305F02DF
:100C8000031C432E442ECF2C452E7630831603179B
:100C9000100203184C2E4D2E5B2E5030F600003003
:100CA000F7000630F8000430F9000A128A11D92042
:100CB0000A128A11722E7F3083160317100203184E
:100CC000622E632E722E4630F6000030F70006309A
:100CD000F8000430F9000A128A11D9200A128A1188
:100CE000722E722E83120313D101D2015208803A60
:100CF000FF00A7307F02031D7F2E10305102031C1E
:100D0000822E832E852EC62EC62E83120313D30168
:100D1000D4015408803AFF0081307F02031D922ED7
:100D2000F4305302031C952E962E982EAE2EAE2E26
:100D3000013083120313D3070318D40A0030D407F9
:100D40005408803AFF0081307F02031DA92EF43041
:100D50005302031CAC2EAD2E982EAE2E0130831202
:100D60000313D1070318D20A0030D2075208803A81
:100D7000FF00A7307F02031DBF2E10305102031C5D
:100D8000C22EC32E852EC62EC62EC62E8312031348
:100D900049084707F0004A0803184A0A4807F100C3
:100DA0000730F2000030F3000A128A15D6260A1224
:100DB0008A11700983120313A7007109A800A70AFA
:100DC0000319A80A2708D43EA90028080318013EE1
:100DD000033EAA002A08803AAB004C08803A2B0256
:100DE000031DF42E4B0829020318F72EF82EEE2FC0
:100DF00083120313D501D6015608803AFF008030D4
:100E00007F02031D052F11305502031C082F092FE7
:100E10000B2F832F832F831203135C08803AFF006C
:100E200080307F02031D162F46305B020318192FF6
:100E30001A2F352F831203135B08903E840083170B
:100E40000008A700A8012708F6002808F70059089D
:100E50006307F8005A0803185A0A6407F9000A12CF
:100E60008A11D9200A128A11612F831203135C0898
:100E7000803AFF0080307F02031D402F8C305B02E0
:100E80000318432F442F612F831203135B08BA3ECC
:100E9000103E840083170008A700A8012708F60069
:100EA0002808F70059086307F8005A0803185A0A77
:100EB0006407F9000A128A11D9200A128A11612FD7
:100EC000612F013083120313DB070318DC0A0030A3
:100ED000DC070730D9070318DA0A0030DA070130D7
:100EE000D5070318D60A0030D6075608803AFF0007
:100EF00080307F02031D7E2F11305502031C812F8D
:100F0000822F0B2F832FFF3083120313CB0703187D
:100F1000CC0AFF30CC070130C5070318C60A0030E1
:100F2000C6076408803AFF0083307F02031D9A2FB2
:100F3000CE306302031C9D2F9E2FAF2FEF30831204
:100F40000313DB070318DC0AFF30DC07D901DA01E1
:100F5000FF30E3070318E40AFF30E407C62FEF3041
:100F600083120313DB070318DC0AFF30DC070130B0
:100F7000DB070318DC0A0030DC07C501C601D90114
:100F8000DA01D330E3000330E400C62FD701D801E3
:100F90005808803AFF0081307F02031DD12F903026
:100FA0005702031CD42FD52FD72FF72AF72A013049
:100FB00083120313D7070318D80A0030D80758083C
:100FC000803AFF0081307F02031DE82F90305702E6
:100FD000031CEB2FEC2FD72FF72AF72A4B30831265
:100FE0000313E3000430E4004B30CB000430CC00AA
:100FF000DB01DC01F72AF72AF72A0A128A110028F6
:101CB800803400344034003420340034103400348C
:101CC800083400340434003402340034013400345D
:101CD8005F30831203138800E33086008817CE3004
:101CE80084009E30FF000A128A1500270A128A15FE
:101CF80087007E2E08007E088A007F0882000A126C
:101D08008A157F260A128A158000840A04087D062F
:101D180003190034FF0A0319FE0A832E3F30831289
:101D280003138800E330860088177008D43EF20059
:101D380071080318013E033EF3009A307307FF0051
:101D4800FA30720784000318FF0A0A128A1500275E
:101D58000A128A158700B02E080083120313850122
:101D68000730831603138500831203138601831635
:101D78000313860183120313870183160313870154
:101D8800831203138801831603138801E03083123A
:101D980003139F000730831603139F0007309C002E
:101DA8009D010800F401F501D92E701CDC2EDD2EF2
:101DB800E32E7208F4070318F50A7308F5070130D3
:101DC8000310F20DF30DFF3E031DE42E0130031046
:101DD800F10CF00CFF3E031DEB2E71087004031D7F
:101DE800F62EF72ED92EF82E7508F101F107740892
:101DF800F001F007FF2E0800FF1B0A2F83137F183E
:101E080083170008840A0319FF0A08007F087F392E
:101E18008A000408840A0319FF0A82000034003487
:101E2800003400340034003400340034003400340A
:101E380000340034003400340034003400340034FA
:101E480000340034003400340034003400340034EA
:101E58000034003400340034003400347D3400345D
:101E680000340034003400340034003400340034CA
:101E780000340034003400340034003400340034BA
:101E8800003400346034003400340034003400344A
:101E9800003400340034003400340034603400343A
:101EA8000034003400340034003400341234003478
:101EB800003400347F340034803400341234003469
:101EC800003400347F340034803400341234003459
:101ED8000034003400340034003400343234003428
:101EE800003400344934003400340034C934003438
:101EF800803400344934003400340034263400344B
:101F080000340034003400340034003441340034E8
:101F180080340034A23400340034003444340034B3
:101F280000340034193400340034003422340034CE
:101F380080340034C1340034003400342334003495
:101F4800003400345434003480340034883400348D
:101F58008034003495340034003400346234003462
:101F68000034003405340034803400340034003444
:101F78000034003460340034003400340034003459
:101F880000340034003400340034003400340034A9
:101F98000034003400340034003400340034003499
:101FA800003400343E34003400340034413400340A
:101FB80000340034803400340034003400340034F9
:101FC8000034003400340034003400340034003469
:101FD8000034003480340034803400344134003418
:101FE800003400343E34003400340034003400340B
:101FF8000034003400340034003400342A3400340F
:10200800003400341434003400340034083400340C
:102018000034003414340034003400342A340034DA
:102028000034003400340034003400340834003400
:102038000034003408340034003400343E340034B2
:1020480000340034083400340034003408340034D8
:1020580000340034003400340034003400340034D8
:102068000034003460340034003400340034003468
:1020780000340034003400340034003400340034B8
:1020880000340034003400340034003400340034A8
:102098000034003408340034003400340834003488
:1020A8000034003408340034003400340834003478
:1020B8000034003400340034003400340034003478
:1020C8000034003400340034003400340034003468
:1020D8000034003400340034003400340134003457
:1020E8000034003400340034003400340034003448
:1020F80000340034013400348034003406340034B1
:1021080000340034183400340034003460340034AF
:102118000034003400340034003400347F34003498
:102128000034003482340034803400348C34003479
:1021380080340034B034003480340034C034003487
:10214800803400347F3400340034003400340034E8
:1021580080340034803400348034003480340034D7
:1021680080340034FF3400348034003400340034C8
:102178008034003400340034803400344134003476
:1021880080340034823400348034003484340034A1
:10219800803400348834003480340034903400347F
:1021A80080340034603400348034003441340034E6
:1021B80000340034803400348034003490340034E7
:1021C8008034003490340034803400349034003447
:1021D800803400347F340034003400341834003440
:1021E80000340034283400340034003448340034D7
:1021F800003400348834003400340034FF340034B0
:102208008034003408340034003400347834003426
:10221800003400348834003480340034A03400346E
:1022280080340034A03400348034003491340034D5
:102238000034003486340034003400343E34003432
:10224800003400344934003400340034903400340D
:1022580080340034903400348034003489340034BD
:102268000034003486340034003400344034003400
:1022780000340034803400340034003480340034B6
:10228800003400348334003480340034983400340B
:102298000034003470340034003400342234003404
:1022A80000340034553400340034003490340034A1
:1022B8008034003490340034803400345534003491
:1022C8000034003422340034003400342034003424
:1022D800003400345134003400340034883400347D
:1022E800803400348834003480340034513400346D
:1022F800003400343E3400340034003400340034F8
:102308000034003400340034003400340034003425
:102318000034003412340034003400340034003403
:102328000034003400340034003400340034003405
:1023380000340034003400340034003401340034F4
:1023480000340034123400340034003400340034D3
:1023580000340034003400340034003400340034D5
:1023680000340034083400340034003414340034A9
:102378000034003422340034003400344134003452
:1023880000340034003400340034003400340034A5
:10239800003400341434003400340034143400346D
:1023A800003400341434003400340034143400345D
:1023B8000034003400340034003400340034003475
:1023C8000034003441340034003400342234003402
:1023D8000034003414340034003400340834003439
:1023E8000034003400340034003400340034003445
:1023F80000340034203400340034003440340034D5
:10240800003400348C3400348034003450340034C8
:102418000034003420340034003400343C340034B8
:102428000034003442340034003400349934003429
:1024380000340034A53400340034003499340034B6
:10244800003400347C340034003400343F34003429
:102458008034003448340034003400348834003484
:1024680000340034883400340034003448340034F4
:10247800003400343F34003480340034FF340034F6
:102488008034003488340034803400348834003494
:102498008034003488340034803400348834003484
:1024A8008034003477340034003400347F3400340E
:1024B80000340034803400348034003480340034F4
:1024C8008034003480340034803400348034003464
:1024D800803400344134003400340034FF34003494
:1024E8008034003480340034803400348034003444
:1024F8008034003480340034803400344134003473
:10250800003400343E34003400340034FF340034E6
:102518008034003488340034803400348834003403
:1025280080340034883400348034003480340034FB
:10253800803400348034003480340034FF34003474
:102548008034003488340034003400348834003453
:1025580000340034883400340034003480340034CB
:1025680000340034803400340034003476340034CD
:102578000034003480340034803400348034003433
:102588008034003488340034803400348834003493
:10259800803400344F34003400340034FF340034C5
:1025A80080340034083400340034003408340034F3
:1025B8000034003408340034003400340834003463
:1025C80000340034FF340034803400348034003464
:1025D800803400348034003480340034FF340034D4
:1025E8008034003480340034803400348034003443
:1025F8008034003400340034003400348134003432
:1026080000340034803400348034003480340034A2
:1026180080340034FF340034003400348034003413
:10262800003400348034003400340034FF34003483
:102638008034003408340034003400340834003462
:1026480000340034143400340034003422340034AC
:1026580000340034C134003480340034FF34003492
:1026680080340034003400348034003400340034C2
:1026780080340034003400348034003400340034B2
:10268800803400340034003480340034FF340034A3
:1026980080340034603400340034003410340034A2
:1026A8000034003410340034003400346034003412
:1026B80000340034FF34003480340034FF340034F4
:1026C800803400346034003400340034183400346A
:1026D800003400340634003400340034013400344B
:1026E80080340034FF340034803400343E34003405
:1026F8000034003441340034003400348034003471
:102708008034003480340034803400344134003460
:10271800003400343E34003400340034FF340034D4
:102728008034003488340034003400348834003471
:1027380000340034883400340034003488340034E1
:102748000034003470340034003400343E34003433
:102758000034003441340034003400348034003410
:1027680080340034823400348034003441340034FE
:10277800003400343E34003480340034FF340034F4
:102788008034003488340034003400348834003411
:10279800003400348C340034003400348A3400347B
:1027A800003400347134003480340034713400341F
:1027B80000340034883400348034003488340034E1
:1027C8008034003488340034803400348834003451
:1027D800803400344734003400340034803400340A
:1027E800003400348034003400340034FF340034C2
:1027F80080340034803400340034003480340034B1
:10280800003400340034003400340034FF34003421
:102818000034003400340034803400340034003490
:102828008034003400340034803400340034003400
:1028380080340034FF34003400340034FC34003475
:1028480000340034033400340034003400340034DD
:1028580080340034003400348034003403340034CD
:1028680000340034FC34003400340034FF340034C5
:10287800003400340034003480340034013400342F
:10288800003400340134003400340034003400349F
:1028980080340034FF34003400340034C134003450
:1028A80080340034363400340034003408340034C2
:1028B8000034003408340034003400343634003432
:1028C80000340034C134003480340034C03400345F
:1028D8000034003430340034003400340F34003411
:1028E800803400343034003400340034C0340034D0
:1028F80000340034003400340034003481340034AF
:102908008034003482340034803400348C34003411
:10291800803400349834003480340034A0340034D7
:1029280080340034C034003480340034003400343F
:10293800003400347F340034003400344034003430
:10294800013400344034003401340034003400349D
:1029580000340034003400340034003400340034CF
:102968000034003460340034003400341834003447
:1029780000340034063400340034003401340034A8
:10298800803400340034003400340034003400341F
:10299800003400340034003400340034413400344E
:1029A8000034003441340034003400347F340034BF
:1029B800003400340034003400340034103400345F
:1029C80000340034203400340034003440340034FF
:1029D800003400342034003400340034103400341F
:1029E800003400340034003400340034003400343F
:1029F800803400340034003480340034003400342F
:102A0800803400340034003480340034003400341E
:102A1800803400340034003480340034003400340E
:102A280000340034003400340034003440340034BE
:102A380000340034203400340034003400340034CE
:102A48000034003400340034003400340F340034CF
:102A5800003400341034003480340034103400342E
:102A68008034003411340034003400340F3400341E
:102A7800803400340034003400340034FF3400342F
:102A88008034003409340034003400341034003405
:102A9800003400341034003400340034103400346E
:102AA800003400340F340034003400340F34003460
:102AB80000340034103400348034003410340034CE
:102AC800803400341034003480340034103400343E
:102AD8008034003409340034003400340F340034B6
:102AE800003400341034003480340034103400349E
:102AF8008034003410340034803400340934003415
:102B080000340034FF340034803400340734003497
:102B1800003400340A340034803400341234003471
:102B28008034003412340034803400340A340034E1
:102B38008034003404340034003400340434003465
:102B4800003400343F3400348034003444340034DA
:102B5800003400344034003400340034203400346D
:102B680000340034003400340034003404340034B9
:102B7800803400340A340034003400341134003412
:102B88000034003411340034003400340A34003482
:102B9800003400340734003480340034FF34003407
:102BA80080340034083400340034003410340034E5
:102BB800003400341034003400340034103400344D
:102BC800003400340F3400348034003400340034CE
:102BD8000034003400340034003400342734003426
:102BE80080340034003400340034003400340034BD
:102BF800003400340034003400340034013400342C
:102C0800003400340034003480340034003400349C
:102C1800803400344F34003400340034003400343D
:102C28000034003400340034003400343F340034BD
:102C38008034003404340034003400340434003464
:102C4800003400340A3400340034003411340034C1
:102C5800803400340034003400340034003400344C
:102C68000034003400340034003400343F3400347D
:102C7800803400340034003400340034003400342C
:102C88000034003400340034003400341F3400347D
:102C9800803400340C3400340034003402340034FE
:102CA8000034003402340034003400340C3400346E
:102CB800003400341F340034803400341F340034AE
:102CC80080340034083400340034003410340034C4
:102CD8000034003410340034003400340834003434
:102CE80000340034073400348034003406340034AF
:102CF8000034003409340034003400341034003413
:102D08008034003410340034803400340934003402
:102D180000340034063400340034003407340034FE
:102D2800803400340A340034003400341134003460
:102D38000034003411340034003400340A340034D0
:102D480000340034043400340034003404340034D3
:102D5800003400340A3400340034003411340034B0
:102D68000034003411340034003400340A340034A0
:102D7800003400340734003480340034073400341D
:102D88008034003408340034003400341034003403
:102D98000034003410340034003400340834003473
:102DA8000034003400340034003400340834003473
:102DB8008034003414340034803400341434003443
:102DC8008034003414340034803400341334003434
:102DD800003400340034003400340034003400344B
:102DE8000034003408340034003400343F340034F4
:102DF80080340034083400340034003400340034A3
:102E08000034003400340034003400341F340034FB
:102E1800003400340034003480340034003400348A
:102E28008034003400340034803400341F340034DB
:102E38000034003400340034003400341E340034CC
:102E480000340034013400340034003400340034D9
:102E58008034003401340034003400341E3400342B
:102E68000034003400340034003400341F3400349B
:102E78000034003400340034803400340134003429
:102E88000034003401340034003400340034003499
:102E9800803400341F3400340034003410340034DB
:102EA80080340034093400340034003406340034EB
:102EB8000034003409340034003400341034003451
:102EC80080340034003400340034003418340034C2
:102ED80000340034043400348034003403340034C3
:102EE800003400340434003400340034183400341E
:102EF800003400340034003400340034003400342A
:102F08000034003411340034803400341234003476
:102F180080340034143400348034003408340034ED
:102F28008034003400340034003400340034003479
:102F380000340034003400340034003408340034E1
:102F48000034003477340034003400344134003421
:102F580000340034003400340034003400340034C9
:102F680000340034003400340034003400340034B9
:102F780000340034F7340034803400340034003432
:102F88000034003400340034003400340034003499
:102F980000340034413400340034003477340034D1
:102FA8000034003408340034003400340034003471
:102FB8000034003400340034003400341034003459
:102FC8000034003420340034003400341034003429
:102FD800003400340834003400340034043400343D
:102FE8000034003408340034003400340034003431
:102FF8000034003400340034003400340034003429
:103008000034003400340034003400340034003418
:103018000034003400340034003400340034003408
:1030280000340034003400340034003400340034F8
:103D980000340034F034E034D034C034B034A034CB
:103DA80090348034703460345034403430342034AB
:103DB8001034F034E034D034C034B034A03490340B
:103DC800803470346034503440343034203410340B
:103DD800F034E034D034C034B034A034903480347B
:103DE8007034603450344034303420341034F0347B
:103DF800E034D034C034B034A034903480347034DB
:103E0800603450344034303420341034F034E034EA
:103E1800D034C034B034A03490348034703460343A
:103E280050344034303420341034F034E034D0345A
:103E3800C034B034A034903480347034603450349A
:103E48004034303420341034F034E034D034C034CA
:103E5800B034A034903480347034603450344034FA
:103E6800303420341034F034E034D034C034B0343A
:103E7800A03490348034703460345034403430345A
:103E88002034103401340034043400340234003453
:02400E003AFF77
:00000001FF
