:060000000A128A11632CB4
:1008C60083136730FD000430FE00A130FF004D3079
:1008D60084000A128A1179240A128A1183010A12E3
:1008E6008A11E52C7E088A007F0882000A128A1186
:1008F60075240A128A118000840A04087D060319E9
:100906000034FF0A0319FE0A792C831203138501AA
:1009160083160313850183120313860183160313BB
:10092600860183120313870183160313870183123B
:100936000313880183160313880108000734003463
:10094600043400340B3400340B3400340E340034D9
:100956005D340034163400340E340034113400345F
:100966000B340034033400340034003401340034D2
:10097600F401F501BE2C701CC12CC22CC82C7208C7
:10098600F4070318F50A7308F50701300310F20D92
:10099600F30DFF3E031DC92C01300310F10CF00CC2
:1009A600FF3E031DD02C71087004031DDB2CDC2CCC
:1009B600BE2CDD2C7508F101F1077408F001F00773
:1009C600E42C080083120313C501C601C901CA013C
:1009D6002B3084004D30A7000408A8001830A90069
:1009E6002708840083130008AA00A70A28088400A1
:1009F6002A088000A80AA90BF32C0B30C700003088
:100A0600C8000A128A1188240A128A1170308312C9
:100A16000313E7000030E800102D83120313480883
:100A2600F101F1074708F001F0070730F200003046
:100A3600F3000A128A11BB240A128A117008013EB9
:100A460083120313A70071080318013E003EA80095
:100A5600A709A809A70A0319A80A2808803AA9001D
:100A66006808803A2902031D3A2D670827020318F1
:100A76003D2D3E2DDF2D83120313CB01CC01AD2D71
:100A86008312031349086707A7004A0803184A0A8E
:100A96006807A800A81B502D512D722D4B08A700E2
:100AA60027072B3E840083130008F600840A0008FB
:100AB600F70049086707F8004A0803184A0A680752
:100AC600F9000A128A11EB250A128A1107308312DD
:100AD6000313C9070318CA0A0030CA07A52D073031
:100AE600C9070318CA0A0030CA07C301C401842D06
:100AF600013083120313C3070318C40A0030C40766
:100B0600842D4C08F101F1074B08F001F0070F3076
:100B1600F2000030F3000A128A11BB240A128A116D
:100B26007108803A83120313A7004408803A27020B
:100B3600031D9F2D430870020318A22DA32D7B2DA4
:100B4600A52DA52D013083120313CB070318CC0A5C
:100B56000030CC074C08803AA7004808803A2702A4
:100B6600031DB72D47084B02031CBA2DBB2D432D81
:100B7600BC2D83120313C901CA010130C50703182E
:100B8600C60A0030C6074608803AFF0080307F025A
:100B9600031DCF2D05304502031CD22DD32D102D5C
:100BA60083120313C501C601FF30E7070318E80ADD
:100BB600FF30E807102D102D703083120313E70065
:100BC6000030E800102D102D102D0A128A11002871
:100BD600FA01FB0183120313860187017F30880027
:100BE6008501FC01FD017D08803AFF0080307F020F
:100BF600031DFF2D0C307C02031C022E032E052E36
:100C0600FF2FFF2F7908803AFF0080307F02031DF7
:100C16000E2E153078020318112E122E332E790857
:100C260083120313A1007808A0000130FF0003100F
:100C3600A00DA10DFF0B1A2E9D302107FF00E230FB
:100C4600200784000318FF0A0A168A1100250A12D3
:100C56008A118700BF30A000200888058501512F22
:100C66007908803AFF0080307F02031D3C2E243035
:100C7600780203183F2E402E612E79088312031343
:100C8600A1007808A0000130FF000310A00DA10DFF
:100C9600FF0B482E9D302107FF00E230200784001D
:100CA6000318FF0A0A168A1100250A128A118700FC
:100CB600DF30A000200888058501512F7908803A89
:100CC600FF0080307F02031D6A2E3330780203183E
:100CD6006D2E6E2E8F2E790883120313A1007808CD
:100CE600A0000130FF000310A00DA10DFF0B762E12
:100CF6009D302107FF00E230200784000318FF0A19
:100D06000A168A1100250A128A118700EF30A00000
:100D1600200888058501512F7908803AFF00803028
:100D26007F02031D982E4230780203189B2E9C2EBC
:100D3600BD2E790883120313A1007808A0000130A4
:100D4600FF000310A00DA10DFF0BA42E9D3021075F
:100D5600FF00E230200784000318FF0A0A168A11F2
:100D660000250A128A118700F730A000200888059E
:100D76008501512F7908803AFF0080307F02031DDC
:100D8600C62E513078020318C92ECA2EEB2E7908CA
:100D960083120313A1007808A0000130FF0003109E
:100DA600A00DA10DFF0BD22E9D302107FF00E230D2
:100DB600200784000318FF0A0A168A1100250A1262
:100DC6008A118700FB30A000200888058501512F75
:100DD6007908803AFF0080307F02031DF42E6030D0
:100DE60078020318F72EF82E192F790883120313A9
:100DF600A1007808A0000130FF000310A00DA10D8E
:100E0600FF0B002F9D302107FF00E23020078400F2
:100E16000318FF0A0A168A1100250A128A1187008A
:100E2600FD30A000200888058501512F7908803AF9
:100E3600FF0080307F02031D222F6F3078020318D7
:100E4600252F262F472F790883120313A100780830
:100E5600A0000130FF000310A00DA10DFF0B2E2FE7
:100E66009D302107FF00E230200784000318FF0AA7
:100E76000A168A1100250A128A118700FE30A00080
:100E8600200888058501512F831203138701512FEE
:100E9600512F512F512F512F512F512F0130F8071C
:100EA6000318F90A0030F9077D08A1007C08A000A4
:100EB6000130FF000310A00DA10DFF0B5D2F770879
:100EC600F101F1077608F001F0071830F200003062
:100ED600F3000A128A11BB240A128A1112308312F5
:100EE6000313A2009530A30070082207A40071081E
:100EF6000318710A2307A500200824078400210887
:100F06000318210A2507FF000A168A1100250A126E
:100F16008A1186000130FC070318FD0A0030FD0720
:100F26007D08A1007C08A0000130FF000310A00D81
:100F3600A10DFF0B992F7708F101F1077608F00153
:100F4600F0071830F2000030F3000A128A11BB24B1
:100F56000A128A11123083120313A2009530A300DD
:100F660070082207A40071080318710A2307A50058
:100F760020082407840021080318210A2507FF00FA
:100F86000A168A1100250A128A11A6002608880464
:100F9600FA01FB01D42F0130FA070318FB0A0030CF
:100FA600FB077B08803A83120313A0006608803A89
:100FB6002002031DE02F65087A02031CE32FE42FAD
:100FC600CE2FE52F83120313860187017F30880019
:100FD6000130FC070318FD0A0030FD077D08803A42
:100FE600FF0080307F02031DFA2F0C307C02031CA9
:0A0FF600FD2FFE2F052EFF2F08002F
:102A0000FF1B0A2D83137F1883170008840A0319FC
:102A1000FF0A08007F087F398A000408840A031926
:102A2000FF0A82003F3400348034003448340034DC
:102A300000340034883400340034003488340034E6
:102A40000034003448340034003400343F3400345F
:102A500080340034FF34003480340034883400344F
:102A600080340034883400348034003488340034B6
:102A700080340034883400348034003477340034B7
:102A8000003400347F3400340034003480340034A7
:102A90008034003480340034803400348034003496
:102AA00080340034803400348034003441340034C5
:102AB00000340034FF340034803400348034003477
:102AC0008034003480340034803400348034003466
:102AD0008034003441340034003400343E34003457
:102AE00000340034FF34003480340034883400343F
:102AF0008034003488340034803400348834003426
:102B00008034003480340034803400348034003425
:102B100080340034FF34003480340034883400348E
:102B200000340034883400340034003488340034F5
:102B300000340034803400340034003480340034F5
:102B400000340034763400340034003480340034EF
:102B500080340034803400348034003488340034CD
:102B60008034003488340034803400344F340034EE
:102B700000340034FF34003480340034083400342E
:102B80000034003408340034003400340834003495
:102B9000003400340834003400340034FF3400348E
:102BA0008034003480340034803400348034003485
:102BB00080340034FF3400348034003480340034F6
:102BC00080340034803400348034003400340034E5
:102BD0000034003481340034003400348034003454
:102BE000803400348034003480340034FF340034C6
:102BF0000034003480340034003400348034003435
:102C000000340034FF34003480340034083400349D
:102C100000340034083400340034003414340034F8
:102C2000003400342234003400340034C134003421
:102C300080340034FF3400348034003400340034F5
:102C400080340034003400348034003400340034E4
:102C500080340034003400348034003400340034D4
:102C600080340034FF340034803400346034003465
:102C70000034003410340034003400341034003494
:102C8000003400346034003400340034FF34003445
:102C900080340034FF340034803400346034003435
:102CA0000034003418340034003400340634003466
:102CB000003400340134003480340034FF340034F4
:102CC000803400343E340034003400344134003465
:102CD00000340034803400348034003480340034D4
:102CE0008034003441340034003400343E34003445
:102CF00000340034FF34003480340034883400342D
:102D00000034003488340034003400348834003413
:102D1000003400348834003400340034703400341B
:102D2000003400343E340034003400344134003484
:102D30000034003480340034803400348234003471
:102D40008034003441340034003400343E340034E4
:102D500080340034FF34003480340034883400344C
:102D60000034003488340034003400348C340034AF
:102D7000003400348A3400340034003471340034B8
:102D8000803400347134003400340034883400342A
:102D90008034003488340034803400348834003483
:102DA00080340034883400348034003447340034B4
:102DB0000034003480340034003400348034003473
:102DC00000340034FF340034803400348034003464
:102DD00000340034803400340034003400340034D3
:102DE00000340034FF340034003400340034003444
:102DF0008034003400340034803400340034003433
:102E0000803400340034003480340034FF34003423
:102E100000340034FC340034003400340334003413
:102E20000034003400340034803400340034003482
:102E3000803400340334003400340034FC34003473
:102E400000340034FF3400340034003400340034E3
:102E50008034003401340034003400340134003450
:102E6000003400340034003480340034FF34003443
:102E700000340034C134003480340034363400343B
:102E80000034003408340034003400340834003492
:102E9000003400343634003400340034C13400349B
:102EA00080340034C0340034003400343034003412
:102EB000003400340F3400348034003430340034B3
:102EC00000340034C03400340034003400340034A2
:102ED00000340034813400348034003482340034CF
:102EE000803400348C34003480340034983400341E
:102EF00080340034A034003480340034C0340034D2
:102F0000803400340F340034003400341034003482
:102F100080340034103400348034003410340034F1
:102F20008034003409340034003400340034003478
:102F300000340034FF340034803400340934003469
:102F400000340034103400340034003410340034C1
:102F50000034003410340034003400340F340034B2
:102F6000003400340F3400340034003410340034A2
:102F70008034003410340034803400341034003491
:102F80008034003410340034803400340934003488
:102F9000003400340F340034003400341034003472
:102FA0008034003410340034803400341034003461
:102FB000803400340934003400340034FF340034E9
:102FC0008034003407340034003400340A340034D0
:102FD000803400341234003480340034123400342D
:102FE000803400340A340034803400340434003433
:102FF0000034003404340034003400343F340034EE
:10300000803400344434003400340034403400341C
:1030100000340034203400340034003400340034F0
:103020000034003404340034803400340A34003472
:1030300000340034113400340034003411340034CE
:10304000003400340A3400340034003407340034CF
:1030500080340034FF3400348034003408340034C9
:1030600000340034103400340034003410340034A0
:103070000034003410340034003400340F34003491
:103080008034003400340034003400340034003420
:1030900000340034273400348034003400340034E9
:1030A0000034003400340034003400340034003480
:1030B000003400340134003400340034003400346F
:1030C0008034003400340034803400344F34003411
:1030D0000034003400340034003400340034003450
:1030E000003400343F34003480340034043400347D
:1030F0000034003404340034003400340A34003422
:10310000003400341134003480340034003400348E
:10311000003400340034003400340034003400340F
:10312000003400343F340034803400340034003440
:1031300000340034003400340034003400340034EF
:10314000003400341F340034803400340C34003434
:1031500000340034023400340034003402340034CB
:10316000003400340C340034003400341F34003494
:10317000803400341F340034803400340834003488
:10318000003400341034003400340034103400347F
:103190000034003408340034003400340734003480
:1031A00080340034063400340034003409340034F0
:1031B00000340034103400348034003410340034CF
:1031C00080340034093400340034003406340034D0
:1031D0000034003407340034803400340A340034BE
:1031E000003400341134003400340034113400341D
:1031F000003400340A340034003400340434003421
:103200000034003404340034003400340A34003410
:1032100000340034113400340034003411340034EC
:10322000003400340A3400340034003407340034ED
:1032300080340034073400348034003408340034DF
:1032400000340034103400340034003410340034BE
:1032500000340034083400340034003400340034C6
:103260000034003408340034803400341434003422
:103270008034003414340034803400341434003486
:10328000803400341334003400340034003400340B
:103290000034003400340034003400340834003486
:1032A000003400343F3400348034003408340034B7
:1032B000003400340034003400340034003400346E
:1032C000003400341F34003400340034003400343F
:1032D000803400340034003480340034003400344E
:1032E000803400341F34003400340034003400349F
:1032F000003400341E34003400340034013400340F
:10330000003400340034003480340034013400349C
:10331000003400341E3400340034003400340034EF
:10332000003400341F3400340034003400340034DE
:10333000803400340134003400340034013400346B
:103340000034003400340034803400341F3400343E
:103350000034003410340034803400340934003434
:1033600000340034063400340034003409340034AE
:10337000003400341034003480340034003400341D
:103380000034003418340034003400340434003481
:103390008034003403340034003400340434003406
:1033A0000034003418340034003400340034003465
:1033B000003400340034003400340034113400345C
:1033C0008034003412340034803400341434003437
:1033D0008034003408340034803400340034003445
:1033E000003400347F34003400340034823400343C
:1033F000803400348C34003480340034B0340034F1
:1034000080340034C0340034803400347F340034DD
:10341000003400340034003480340034803400340C
:10342000803400348034003480340034FF3400347D
:1034300080340034003400348034003400340034EC
:103440008034003441340034803400348234003419
:1034500080340034843400348034003488340034C0
:1034600080340034903400348034003460340034CC
:10347000803400344134003400340034803400346B
:10348000803400349034003480340034903400347C
:103490008034003490340034803400347F3400347D
:1034A000003400341834003400340034283400343C
:1034B000003400344834003400340034883400349C
:1034C00000340034FF3400348034003408340034D5
:1034D000003400347834003400340034883400344C
:1034E00080340034A034003480340034A0340034FC
:1034F0008034003491340034003400348634003495
:10350000003400343E340034003400344934003494
:10351000003400349034003480340034903400346B
:10352000803400348934003400340034863400346C
:10353000003400344034003400340034803400342B
:1035400000340034803400340034003483340034D8
:103550008034003498340034003400347034003443
:103560000034003422340034003400345534003444
:10357000003400349034003480340034903400340B
:1035800080340034553400340034003422340034A4
:10359000003400342034003400340034513400341A
:1035A00000340034883400348034003488340034EB
:1035B0008034003451340034003400343E3400345C
:1035C00000340034003400340034003480340034DB
:1035D0008034003441340034003400343E3400344C
:1035E000003400340034003400340034003400343B
:1035F000003400340034003400340034003400342B
:10360000003400347D34003400340034003400349D
:10361000003400340034003400340034003400340A
:10362000003400343C34003400340034423400347C
:10363000003400349934003400340034A5340034AC
:103640000034003499340034003400347C340034C5
:103650000034003412340034003400347F34003439
:103660008034003412340034003400347F340034A9
:103670008034003412340034003400340034003418
:10368000003400343234003400340034493400341F
:1036900000340034C93400348034003449340034F8
:1036A0000034003426340034003400340034003454
:1036B000003400344134003480340034A234003407
:1036C00000340034443400340034003419340034FD
:1036D000003400342234003480340034C1340034E7
:1036E000003400341034003400340034203400340A
:1036F00000340034403400340034003420340034CA
:103700000034003410340034003400340034003409
:103710000034003423340034003400345434003492
:1037200080340034883400348034003495340034DC
:103730000034003462340034003400340534003482
:10374000803400342A34003400340034143400341B
:1037500000340034083400340034003414340034AD
:10376000003400342A34003400340034003400348F
:103770000034003400340034003400343E3400346B
:1037800000340034413400340034003480340034D8
:103790000034003400340034003400340034003489
:1037A0000034003400340034003400340034003479
:1037B0000034003440340034003400342034003409
:1037C0000034003400340034003400340034003459
:1037D0000034003410340034003400342034003419
:1037E0000034003410340034003400340834003421
:1037F000003400340434003400340034083400341D
:103800000034003400340034003400340834003410
:1038100000340034083400340034003408340034F8
:1038200000340034083400340034003400340034F0
:103830000034003400340034803400340034003468
:1038400080340034003400348034003400340034D8
:1038500080340034003400348034003400340034C8
:103860008034003400340034003400341434003424
:103870000034003414340034003400341434003480
:103880000034003414340034003400340034003484
:103890000034003408340034003400340834003478
:1038A000003400343E340034003400340834003432
:1038B0000034003408340034003400340034003460
:1038C0000034003400340034003400347F340034D9
:1038D00000340034403400340134003440340034C7
:1038E0000134003400340034003400340034003437
:1038F0000034003400340034003400340034003428
:103900000034003408340034003400347734003498
:1039100000340034413400340034003400340034C6
:1039200000340034003400340034003400340034F7
:103930000034003441340034003400344134003465
:10394000003400347F340034003400340034003458
:103950000034003400340034003400344134003486
:103960000034003477340034003400340834003438
:1039700000340034003400340034003400340034A7
:103980000034003400340034003400346034003437
:103990000034003418340034003400340634003469
:1039A00000340034013400348034003400340034F6
:1039B0000034003400340034003400340034003467
:1039C000003400340034003400340034F734003460
:1039D00080340034003400340034003400340034C7
:1039E0000034003400340034003400340034003437
:1039F0000034003401340034003400341234003414
:103A00000034003400340034003400340034003416
:103A10000034003400340034003400340034003406
:103A200000340034003400340034003412340034E4
:103A300000340034003400340034003400340034E6
:103A40000034003400340034003400346034003476
:103A500000340034003400340034003400340034C6
:103A60000034003460340034003400340034003456
:103A70000034003400340034003400346034003446
:103A80000034003400340034003400340034003496
:103A90000034003400340034003400340034003486
:103AA000003400340034003400340034083400346E
:103AB0000034003414340034003400342234003430
:103AC0000034003441340034003400340034003415
:103AD0000034003400340034003400340034003446
:103AE0000034003400340034003400340034003436
:103AF0000034003401340034003400340034003425
:103B000000340034003400340034003441340034D4
:103B100000340034223400340034003414340034CF
:103B200000340034083400340034003400340034ED
:103B300000340034003400340034003401340034E4
:103B40008034003406340034003400341834003437
:103B50000034003460340034003400340034003465
:103B60000034003400340034003400342034003495
:103B70000034003440340034003400348C340034D9
:103B800080340034503400340034003420340034A5
:103B90000034003400340034003400340034003485
:103BA0000034003400340034003400340034003475
:103BB0000034003400340034003400340034003465
:103BC0000034003400340034003400340034003455
:103BD000003400340034003400340034F034003455
:103BE000E0340034D0340034C0340034B034003415
:103BF000A034003490340034803400347034003405
:103C000060340034503400344034003430340034F4
:103C10002034003410340034F0340034E034003404
:103C2000D0340034C0340034B0340034A034003414
:103C30009034003480340034703400346034003404
:103C400050340034403400343034003420340034F4
:103C500010340034F0340034E0340034D034003414
:103C6000C0340034B0340034A03400349034003414
:103C70008034003470340034603400345034003404
:103C800040340034303400342034003410340034F4
:103C9000F0340034E0340034D0340034C034003424
:103CA000B0340034A0340034903400348034003414
:103CB0007034003460340034503400344034003404
:103CC000303400342034003410340034F034003404
:103CD000E0340034D0340034C0340034B034003424
:103CE000A034003490340034803400347034003414
:103CF0006034003450340034403400343034003404
:103D00002034003410340034F0340034E034003413
:103D1000D0340034C0340034B0340034A034003423
:103D20009034003480340034703400346034003413
:103D30005034003440340034303400342034003403
:103D400010340034F0340034E0340034D034003423
:103D5000C0340034B0340034A03400349034003423
:103D60008034003470340034603400345034003413
:103D70004034003430340034203400341034003403
:103D8000F0340034E0340034D0340034C034003433
:103D9000B0340034A0340034903400348034003423
:103DA0007034003460340034503400344034003413
:103DB000303400342034003410340034F034003413
:103DC000E0340034D0340034C0340034B034003433
:103DD000A034003490340034803400347034003423
:103DE0006034003450340034403400343034003413
:103DF0002034003410340034F0340034E034003423
:103E0000D0340034C0340034B0340034A034003432
:103E10009034003480340034703400346034003422
:103E20005034003440340034303400342034003412
:103E300010340034F0340034E0340034D034003432
:103E4000C0340034B0340034A03400349034003432
:103E50008034003470340034603400345034003422
:103E60004034003430340034203400341034003412
:02400E003AFF77
:00000001FF
