:02000000A02D31
:1000060083120313FB01FA01F9018030F800F10CA9
:10001600F00C031C17287408F90775080318750FE8
:10002600FA070318FB0A0310F01F1F287408FA07C3
:1000360075080318750FFB07FB0CFA0CF90CF80C86
:10004600031C0A287B08F3007A08F2007908F100FD
:060056007808F00008002C
:0E005C008312031325088A002408820008007E
:10006A0083120313AA01AB01860187018801850166
:10007A0080302906F00080307002031D46280F30B8
:10008A002802031860282808F0002908F100F00D5A
:10009A00F10D7010DD30F00705300318013EF1074D
:1000AA007008A4007108A5002E208A110A12870080
:1000BA0008178501A82880302906F00080307002D0
:1000CA00031D69281C302802031883282808F00019
:1000DA002908F100F00DF10D7010DD30F007053040
:1000EA000318013EF1077008A4007108A5002E202C
:1000FA008A110A12870088168501A82880302906E5
:10010A00F00080307002031D8C281D30280203186D
:10011A00A8282808F0002908F100F00DF10D701048
:10012A00DD30F00705300318013EF1077008A4001E
:10013A007108A5002E208A110A12F00070088504A1
:10014A00870180308805A80A0319A90A1830F00027
:10015A000030F1002608F4002708F500032091304A
:10016A00F00706300318013EF1077008A400710871
:10017A00A5002E208A110A1286000230F0070030EC
:10018A000318013EF1077008A4007108A5002E208B
:10019A008A110A12F00070088804AA01AB018030A3
:1001AA002B06F00080307002031DDD2814302A026D
:1001BA000318E328AA0A0319AB0AD4288501860181
:1001CA0087018801890180302906F0008030700299
:1001DA00031DF1280F30280203180B292808F00004
:1001EA002908F100F00DF10D7010DD30F00705302F
:1001FA000318013EF1077008A4007108A5002E201B
:10020A008A110A12870008178501532980302906A6
:10021A00F00080307002031D14291C3028020318D4
:10022A002E292808F0002908F100F00DF10D7010B0
:10023A00DD30F00705300318013EF1077008A4000D
:10024A007108A5002E208A110A12870088168501D6
:10025A00532980302906F00080307002031D3729A7
:10026A001D302802031853292808F0002908F10034
:10027A00F00DF10D7010DD30F00705300318013E66
:10028A00F1077008A4007108A5002E208A110A122D
:10029A00F00070088504870180308805A80A0319D0
:1002AA00A90A1830F0000030F1002608F4002708E7
:1002BA00F50003207008913EF20006300318013E53
:1002CA007107F30004307207F00073080318013E47
:1002DA00003EF1007008A4007108A5002E208A11C2
:1002EA000A12860006307207F00073080318013EEE
:1002FA00003EF1007008A4007108A5002E208A11A2
:10030A000A12F00070088804AA01AB0180302B069B
:10031A00F00080307002031D942914302A02031859
:10032A009A29AA0A0319AB0A8B2985018601870132
:10033A008801890180302906F00080307002031D8F
:10034A00A8290F3028020318C2292808F000290812
:10035A00F100F00DF10D7010DD30F00705300318D3
:10036A00013EF1077008A4007108A5002E208A1129
:10037A000A12870008178501092A80302906F00029
:10038A0080307002031DCB291C3028020318E5298E
:10039A002808F0002908F100F00DF10D7010DD3089
:1003AA00F00705300318013EF1077008A400710830
:1003BA00A5002E208A110A12870088168501092AAB
:1003CA0080302906F00080307002031DEE291D30AE
:1003DA0028020318092A2808F0002908F100F00D5C
:1003EA00F10D7010DD30F00705300318013EF107FA
:1003FA007008A4007108A5002E208A110A12F000C4
:10040A007008850487018801A80A0319A90A183007
:10041A00F0000030F1002608F4002708F500032058
:10042A007008913EF20006300318013E7107F3008E
:10043A0008307207F00073080318013E003EF1000D
:10044A007008A4007108A5002E208A110A128600DD
:10045A000A307207F00073080318013E003EF100EB
:10046A007008A4007108A5002E208A110A12F00053
:10047A0070088804AA01AB0180302B06F000803096
:10048A007002031D4A2A14302A020318502AAA0AA3
:10049A000319AB0A412A850186018701880189016E
:1004AA0080302906F00080307002031D5E2A0F306A
:1004BA0028020318782A2808F0002908F100F00D0C
:1004CA00F10D7010DD30F00705300318013EF10719
:1004DA007008A4007108A5002E208A110A1287004C
:1004EA0008178501C02A80302906F0008030700282
:1004FA00031D812A1C30280203189B2A2808F000B1
:10050A002908F100F00DF10D7010DD30F00705300B
:10051A000318013EF1077008A4007108A5002E20F7
:10052A008A110A12870088168501C02A8030290696
:10053A00F00080307002031DA42A1D30280203181F
:10054A00C02A2808F0002908F100F00DF10D7010FA
:10055A00DD30F00705300318013EF1077008A400EA
:10056A007108A5002E208A110A12F000700885046D
:10057A00870180308805A80A0319A90A1830F000F3
:10058A000030F1002608F4002708F500032070085F
:10059A00913EF20006300318013E7107F3000C3059
:1005AA007207F00073080318013E003EF10070085C
:1005BA00A4007108A5002E208A110A1286000E30A6
:1005CA007207F00073080318013E003EF10070083C
:1005DA00A4007108A5002E208A110A12F0007008E2
:1005EA008804AA01AB0180302B06F000803070022B
:1005FA00031D012B14302A020318072BAA0A031918
:10060A00AB0AF82A850186018701880189018030B1
:10061A002906F00080307002031D152B0F302802C6
:10062A0003182F2B2808F0002908F100F00DF10D0E
:10063A007010DD30F00705300318013EF10770082D
:10064A00A4007108A5002E208A110A128700081733
:10065A008501772B80302906F00080307002031D57
:10066A00382B1C3028020318522B2808F0002908BE
:10067A00F100F00DF10D7010DD30F00705300318B0
:10068A00013EF1077008A4007108A5002E208A1106
:10069A000A12870088168501772B80302906F00018
:1006AA0080307002031D5B2B1D3028020318772B44
:1006BA002808F0002908F100F00DF10D7010DD3066
:1006CA00F00705300318013EF1077008A40071080D
:1006DA00A5002E208A110A12F000700885048701ED
:1006EA0080308805A80A0319A90A1830F0000030DA
:1006FA00F1002608F4002708F50003207008913E4F
:10070A00F20006300318013E7107F3001030720739
:10071A00F00073080318013E003EF1007008A400BF
:10072A007108A5002E208A110A128600123072075B
:10073A00F00073080318013E003EF1007008A4009F
:10074A007108A5002E208A110A12F0007008880488
:10075A00AA01AB0180302B06F00080307002031D25
:10076A00B82B14302A020318BE2BAA0A0319AB0AA3
:10077A00AF2B85018601870188018901803029060E
:10078A00F00080307002031DCC2B0F3028020318B2
:10079A00E62B2808F0002908F100F00DF10D701081
:1007AA00DD30F00705300318013EF1077008A40098
:1007BA007108A5002E208A110A12870008178501E0
:1007CA002E2C80302906F00080307002031DEF2B9A
:1007DA001C3028020318092C2808F0002908F10007
:1007EA00F00DF10D7010DD30F00705300318013EF1
:1007FA00F1077008A4007108A5002E208A110A12B8
:10080A008700881685012E2C80302906F00080305A
:10081A007002031D122C1D30280203182E2C2808E2
:10082A00F0002908F100F00DF10D7010DD30F0072D
:10083A0005300318013EF1077008A4007108A500ED
:10084A002E208A110A12F000700885048701803070
:10085A008805A80A0319A90A1830F0000030F10027
:10086A002608F4002708F50003207008913EF200DC
:10087A0006300318013E7107F30014307207F000C6
:10088A0073080318013E003EF1007008A4007108C5
:10089A00A5002E208A110A12860016307207F0006F
:1008AA0073080318013E003EF1007008A4007108A5
:1008BA00A5002E208A110A12F00070088804AA01E5
:1008CA00AB0180302B06F00080307002031D6F2CC4
:1008DA0014302A020318752CAA0A0319AB0A662CCB
:1008EA008501860187018801890180302906F00087
:1008FA0080307002031D832C0F30280203189D2CB0
:10090A002808F0002908F100F00DF10D7010DD3013
:10091A00F00705300318013EF1077008A4007108BA
:10092A00A5002E208A110A12870008178501E42CD7
:10093A0080302906F00080307002031DA62C1C307E
:10094A0028020318C02C2808F0002908F100F00D2D
:10095A00F10D7010DD30F00705300318013EF10784
:10096A007008A4007108A5002E208A110A128700B7
:10097A0088168501E42C80302906F0008030700248
:10098A00031DC92C1D3028020318E42C2808F00086
:10099A002908F100F00DF10D7010DD30F007053077
:1009AA000318013EF1077008A4007108A5002E2063
:1009BA008A110A12F0007008850487018801A80AC2
:1009CA000319A90A86018813AA01AB0180302B06F4
:1009DA00F00080307002031DF42C14302A02031830
:1009EA00FA2CAA0A0319AB0AEB2C850186018701A6
:1009FA008801890180302906F00080307002031DC9
:100A0A00082D0F3028020318222D2808F000290883
:100A1A00F100F00DF10D7010DD30F007053003180C
:100A2A00013EF1077008A4007108A5002E208A1162
:100A3A000A12870008178501692D80302906F000FF
:100A4A0080307002031D2B2D1C3028020318452DFF
:100A5A002808F0002908F100F00DF10D7010DD30C2
:100A6A00F00705300318013EF1077008A400710869
:100A7A00A5002E208A110A12870088168501692D81
:100A8A0080302906F00080307002031D4E2D1D3083
:100A9A0028020318692D2808F0002908F100F00D32
:100AAA00F10D7010DD30F00705300318013EF10733
:100ABA007008A4007108A5002E208A110A12F000FD
:100ACA00700885048701880186018813AA01AB0191
:100ADA0080302B06F00080307002031D762D143012
:100AEA002A0203187C2DAA0A0319AB0A6D2D850167
:0A0AFA0086018701880189010800C8
:100B04002E208A110A128000840AA40A0319A50A55
:080B1400F003031D822D08000F
:100B1C0083120313850183168501831286018316C4
:100B2C00860183128701831687018312880183163D
:040B3C008801080024
:100B400083120313A001A101A201A3018E2582300B
:100B5000FC00DD30FD00FD0BAB2DFC0BAB2D0000D0
:100B600000008312A601A7012008A8002108A900FF
:100B700035208030F000803023067002031DC22D26
:100B800022085A3C0318D82D80302106F00080300E
:100B90007002031DCD2D1D3020020318D32DA00A95
:100BA0000319A10AD52DA001A101A201A301DB2DEA
:0A0BB000A20A0319A30AB12DDC2DDF
:100BBA00F0340034E0340034D0340034C03400342B
:100BCA00B0340034A034003490340034803400341B
:100BDA00703400346034003450340034403400340B
:100BEA00303400342034003410340034F03400340B
:100BFA00E0340034D0340034C0340034B03400342B
:100C0A00A03400349034003480340034703400341A
:100C1A00603400345034003440340034303400340A
:100C2A002034003410340034F0340034E03400341A
:100C3A00D0340034C0340034B0340034A03400342A
:100C4A00903400348034003470340034603400341A
:100C5A00503400344034003430340034203400340A
:100C6A0010340034F0340034E0340034D03400342A
:100C7A00C0340034B0340034A0340034903400342A
:100C8A00803400347034003460340034503400341A
:100C9A00403400343034003420340034103400340A
:100CAA00F0340034E0340034D0340034C03400343A
:100CBA00B0340034A034003490340034803400342A
:100CCA00703400346034003450340034403400341A
:100CDA00303400342034003410340034F03400341A
:100CEA00E0340034D0340034C0340034B03400343A
:100CFA00A03400349034003480340034703400342A
:100D0A006034003450340034403400343034003419
:080D1A002034003410340034D1
:100D2200FF3400348034003488340034003400341A
:100D320088340034003400348C34003400340034FD
:100D42008A34003400340034713400348034003486
:02400E004A2F37
:00000001FF
