:020000008E2D43
:1000060083120313FB01FA01F9018030F800F10CA9
:10001600F00C031C17287408F90775080318750FE8
:10002600FA070318FB0A0310F01F1F287408FA07C3
:1000360075080318750FFB07FB0CFA0CF90CF80C86
:10004600031C0A287B08F3007A08F2007908F100FD
:060056007808F00008002C
:0E005C008312031325088A002408820008007E
:10006A0083120313AA01AB01860187018801850166
:10007A0080302906F00080307002031D46280730C0
:10008A002802031860282808F0002908F100F00D5A
:10009A00F10D7010CB30F00705300318013EF1075F
:1000AA007008A4007108A5002E208A110A1288007F
:1000BA0085018701A92880302906F0008030700266
:1000CA00031D69280E302802031884282808F00026
:1000DA002908F100F00DF10D7010CB30F007053052
:1000EA000318013EF1077008A4007108A5002E202C
:1000FA008A110A128700850180308805A928803074
:10010A002906F00080307002031D8D281D30280258
:10011A000318A9282808F0002908F100F00DF10DAC
:10012A007010CB30F00705300318013EF107700854
:10013A00A4007108A5002E208A110A12F000700886
:10014A008504870180308805A80A0319A90A18308E
:10015A00F0000030F1002608F4002708F50003201B
:10016A006B30F00706300318013EF1077008A4004F
:10017A007108A5002E208A110A1286000230F007A3
:10018A0000300318013EF1077008A4007108A500A9
:10019A002E208A110A12F00070088804AA01AB0105
:1001AA0080302B06F00080307002031DDE281430E8
:1001BA002A020318E428AA0A0319AB0AD5288601D9
:1001CA00880180302906F00080307002031DEF2874
:1001DA0007302802031809292808F0002908F10025
:1001EA00F00DF10D7010CB30F00705300318013E09
:1001FA00F1077008A4007108A5002E208A110A12BE
:10020A00880085018701522980302906F000803054
:10021A007002031D12290E30280203182D292808FE
:10022A00F0002908F100F00DF10D7010CB30F00745
:10023A0005300318013EF1077008A4007108A500F3
:10024A002E208A110A1287008501803088055229DA
:10025A0080302906F00080307002031D36291D30D7
:10026A002802031852292808F0002908F100F00D85
:10027A00F10D7010CB30F00705300318013EF1077D
:10028A007008A4007108A5002E208A110A12F00035
:10029A0070088504870180308805A80A0319A90A0D
:1002AA001830F0000030F1002608F4002708F500A5
:1002BA00032070086B3EF20006300318013E7107F6
:1002CA00F30004307207F00073080318013E003E81
:1002DA00F1007008A4007108A5002E208A110A12E4
:1002EA00860006307207F00073080318013E003ECC
:1002FA00F1007008A4007108A5002E208A110A12C4
:10030A00F00070088804AA01AB0180302B06F000C7
:10031A0080307002031D932914302A020318992988
:10032A00AA0A0319AB0A8A2986018801803029069C
:10033A00F00080307002031DA42907302802031838
:10034A00BE292808F0002908F100F00DF10D7010FF
:10035A00CB30F00705300318013EF1077008A400FE
:10036A007108A5002E208A110A12880085018701CA
:10037A00052A80302906F00080307002031DC72943
:10038A000E3028020318E1292808F0002908F10094
:10039A00F00DF10D7010CB30F00705300318013E57
:1003AA00F1077008A4007108A5002E208A110A120C
:1003BA00870085018801052A80302906F0008030EF
:1003CA007002031DEA291D3028020318052A28088D
:1003DA00F0002908F100F00DF10D7010CB30F00794
:1003EA0005300318013EF1077008A4007108A50042
:1003FA002E208A110A12F0007008850487018801EC
:10040A00A80A0319A90A1830F0000030F1002608DA
:10041A00F4002708F500032070086B3EF20006304E
:10042A000318013E7107F30008307207F0007308E1
:10043A000318013E003EF1007008A4007108A500EF
:10044A002E208A110A1286000A307207F0007308F9
:10045A000318013E003EF1007008A4007108A500CF
:10046A002E208A110A12F00070088804AA01AB0132
:10047A0080302B06F00080307002031D462A1430AB
:10048A002A0203184C2AAA0A0319AB0A3D2A860132
:10049A00880180302906F00080307002031D572A37
:1004AA00073028020318712A2808F0002908F100E9
:1004BA00F00DF10D7010CB30F00705300318013E36
:1004CA00F1077008A4007108A5002E208A110A12EB
:1004DA00880085018701BA2A80302906F000803019
:1004EA007002031D7A2A0E3028020318952A28085A
:1004FA00F0002908F100F00DF10D7010CB30F00773
:10050A0005300318013EF1077008A4007108A50020
:10051A002E208A110A128700850180308805BA2A9E
:10052A0080302906F00080307002031D9E2A1D309B
:10053A0028020318BA2A2808F0002908F100F00D49
:10054A00F10D7010CB30F00705300318013EF107AA
:10055A007008A4007108A5002E208A110A12F00062
:10056A0070088504870180308805A80A0319A90A3A
:10057A001830F0000030F1002608F4002708F500D2
:10058A00032070086B3EF20006300318013E710723
:10059A00F3000C307207F00073080318013E003EA6
:1005AA00F1007008A4007108A5002E208A110A1211
:1005BA0086000E307207F00073080318013E003EF1
:1005CA00F1007008A4007108A5002E208A110A12F1
:1005DA00F00070088804AA01AB0180302B06F000F5
:1005EA0080307002031DFB2A14302A020318012BE3
:1005FA00AA0A0319AB0AF22A860188018030290661
:10060A00F00080307002031D0C2B073028020318FB
:10061A00262B2808F0002908F100F00DF10D7010C2
:10062A00CB30F00705300318013EF1077008A4002B
:10063A007108A5002E208A110A12880085018701F7
:10064A006F2B80302906F00080307002031D2F2B9B
:10065A000E30280203184A2B2808F0002908F10056
:10066A00F00DF10D7010CB30F00705300318013E84
:10067A00F1077008A4007108A5002E208A110A1239
:10068A0087008501803088056F2B80302906F000AD
:10069A0080307002031D532B1D30280203186F2B64
:1006AA002808F0002908F100F00DF10D7010CB3088
:1006BA00F00705300318013EF1077008A40071081D
:1006CA00A5002E208A110A12F000700885048701FD
:1006DA0080308805A80A0319A90A1830F0000030EA
:1006EA00F1002608F4002708F500032070086B3E85
:1006FA00F20006300318013E7107F300103072074A
:10070A00F00073080318013E003EF1007008A400CF
:10071A007108A5002E208A110A128600123072076B
:10072A00F00073080318013E003EF1007008A400AF
:10073A007108A5002E208A110A12F0007008880498
:10074A00AA01AB0180302B06F00080307002031D35
:10075A00B02B14302A020318B62BAA0A0319AB0AC3
:10076A00A72B8601880180302906F00080307002AC
:10077A00031DC12B073028020318DB2B2808F000C1
:10078A002908F100F00DF10D7010CB30F00705309B
:10079A000318013EF1077008A4007108A5002E2075
:1007AA008A110A12880085018701242C80302906C3
:1007BA00F00080307002031DE42B0E30280203186B
:1007CA00FF2B2808F0002908F100F00DF10D701038
:1007DA00CB30F00705300318013EF1077008A4007A
:1007EA007108A5002E208A110A128700850180301F
:1007FA008805242C80302906F00080307002031D01
:10080A00082C1D3028020318242C2808F000290877
:10081A00F100F00DF10D7010CB30F0070530031820
:10082A00013EF1077008A4007108A5002E208A1164
:10083A000A12F00070088504870180308805A80A2A
:10084A000319A90A1830F0000030F1002608F40054
:10085A002708F500032070086B3EF20006300318E3
:10086A00013E7107F30014307207F0007308031891
:10087A00013E003EF1007008A4007108A5002E2078
:10088A008A110A12860016307207F00073080318DC
:10089A00013E003EF1007008A4007108A5002E2058
:1008AA008A110A12F00070088804AA01AB0180308C
:1008BA002B06F00080307002031D652C14302A02CA
:1008CA0003186B2CAA0A0319AB0A5C2C860188014F
:1008DA0080302906F00080307002031D762C073024
:1008EA0028020318902C2808F0002908F100F00DBE
:1008FA00F10D7010CB30F00705300318013EF107F7
:10090A007008A4007108A5002E208A110A12880016
:10091A0085018701D72C80302906F00080307002CB
:10092A00031D992C0E3028020318B32C2808F00056
:10093A002908F100F00DF10D7010CB30F0070530E9
:10094A000318013EF1077008A4007108A5002E20C3
:10095A008A110A12870085018801D72C803029065E
:10096A00F00080307002031DBC2C1D3028020318D1
:10097A00D72C2808F0002908F100F00DF10D7010AD
:10098A00CB30F00705300318013EF1077008A400C8
:10099A007108A5002E208A110A12F0007008850439
:1009AA0087018801A80A0319A90A86018813AA01DE
:1009BA00AB0180302B06F00080307002031DE72C5B
:1009CA0014302A020318ED2CAA0A0319AB0ADE2CEA
:1009DA008601880180302906F00080307002031DEC
:1009EA00F82C073028020318122D2808F0002908CD
:1009FA00F100F00DF10D7010CB30F007053003183F
:100A0A00013EF1077008A4007108A5002E208A1182
:100A1A000A12880085018701592D80302906F000C5
:100A2A0080307002031D1B2D0E3028020318352D4D
:100A3A002808F0002908F100F00DF10D7010CB30F4
:100A4A00F00705300318013EF1077008A400710889
:100A5A00A5002E208A110A12870085018801592DC6
:100A6A0080302906F00080307002031D3E2D1D30B3
:100A7A0028020318592D2808F0002908F100F00D62
:100A8A00F10D7010CB30F00705300318013EF10765
:100A9A007008A4007108A5002E208A110A12F0001D
:100AAA00700885048701880186018813AA01AB01B1
:100ABA0080302B06F00080307002031D662D143042
:100ACA002A0203186C2DAA0A0319AB0A5D2D8601A6
:060ADA00880185010800FF
:100AE0002E208A110A128000840AA40A0319A50A7A
:080AF000F003031D702D080046
:100AF80083120313850183168501831286018316E9
:100B08008601831287018316870183128801831661
:040B18008801080048
:100B1C0083120313A001A101A201A3017C25823041
:100B2C00FC00DD30FD00FD0B992DFC0B992D000018
:100B3C0000008312A601A7012008A8002108A90023
:100B4C0035208030F000803023067002031DB02D5C
:100B5C002208503C0318C62D80302106F00080304E
:100B6C007002031DBB2D1D3020020318C12DA00ADD
:100B7C000319A10AC32DA001A101A201A301C92D32
:0A0B8C00A20A0319A30A9F2DCA2D27
:100B9600103400342034003430340034403400340F
:100BA600503400346034003470340034203400345F
:100BB600403400346034003480340034A0340034CF
:100BC600C0340034E03400340F3400340E340034C2
:100BD6000D3400340C3400340B3400340A34003441
:100BE6000934003408340034073400340634003441
:100BF6000534003404340034033400340234003441
:100C0600013400340034003400340034003400343D
:100C1600003400340034003400340034003400342E
:100C2600003400340034003400340034003400341E
:100C3600003400340034003400340034003400340E
:100C460000340034003400340034003400340034FE
:100C560000340034003400340034003400340034EE
:100C660000340034003400340034003400340034DE
:100C760000340034003400340034003400340034CE
:100C860000340034003400340034003400340034BE
:100C960000340034003400340034003400340034AE
:100CA600003400340034003400340034003400349E
:100CB600003400340034003400340034003400348E
:100CC600003400340034003400340034003400347E
:100CD600FF34003480340034883400340034003467
:100CE60088340034003400348C340034003400344A
:100CF6008A340034003400347134003480340034D3
:02400E004A2F37
:00000001FF
