:02000000E72AED
:0E0006008312031321088A00200882000800DC
:10001400FF308312031385000330FB000830FC001B
:100024007730FD00FD0B1428FC0B1428FB0B14285F
:1000340085010330FB000830FC007730FD00FD0B28
:100044002128FC0B2128FB0B2128FF3085000330DD
:10005400FB000830FC007730FD00FD0B2F28FC0B63
:100064002F28FB0B2F2885010330FB000830FC00F0
:100074007730FD00FD0B3C28FC0B3C28FB0B3C2897
:10008400FF3085000330FB000830FC007730FD00B2
:10009400FD0B4A28FC0B4A28FB0B4A288501033038
:1000A400FB000830FC007730FD00FD0B5728FC0BEB
:1000B4005728FB0B5728FF3085000330FB0008301E
:1000C400FC007730FD00FD0B6528FC0B6528FB0B5D
:1000D400652885010330FB000830FC007730FD0003
:1000E400FD0B7228FC0B7228FB0B7228FF30850075
:1000F4000330FB000830FC007730FD00FD0B802846
:10010400FC0B8028FB0B802885010330FB000830A2
:10011400FC007730FD00FD0B8D28FC0B8D28FB0BBC
:100124008D28FF3085000330FB000830FC00773059
:10013400FD00FD0B9B28FC0B9B28FB0B9B288501DA
:020144000800B1
:1001460083120313BE01BF01C001C1010130850046
:10015600871BFD2880304106F00080303D06700286
:10016600031DBF283C084002031DBF283B083F0271
:10017600031DBF283A083E020318FD280430FB0081
:100186000C30FC003330FD00FD0BC728FC0BC728E4
:10019600FB0BC72800000000071CE5288230FC0086
:1001A600DD30FD00FD0BD528FC0BD5280000000036
:1001B600071CE5283A08BE003B08BF003C08C00003
:1001C6003D08C1003E08F0003F08F1004008F2007B
:1001D6004108F300F00A0319F10A0319F20A031998
:1001E600F30A7008BE007108BF007208C0007308E9
:1001F600C100AB288501BE01BF01C001C1010800D5
:100206007130831603138F00831203179E019F011B
:1002160099019A01960183160313850183128601BB
:10022600FF30831686008312870187308316870086
:060236008312850108009F
:10023C0083120313CC01CD01CC01CD0180304D06CE
:10024C00F00080307002031D2D2909304C02031878
:10025C008729861A32292F290330FC009730FD009C
:10026C00FD0B3629FC0B36290000000080304D06B2
:10027C00F00080307002031D452908304C02031831
:10028C005D294C08F0004D08F100F00DF10D7010D7
:10029C0070083A3E840010300605F000003000393A
:1002AC00F100700880007108840A80007629003003
:1002BC004D06031D632908304C06031D76294C0896
:1002CC00F0004D08F100F00DF10D701070083A3E81
:1002DC00840050300605F00070088000840A80010C
:1002EC00861E792976290330FC009730FD00FD0B22
:1002FC007D29FC0B7D2900000000CC0A0319CD0AD6
:10030C00242900304B06031D8D2950304A06031D4D
:10031C00BC29CC01CD0180304D06F000803070023C
:10032C00031D9A2908304C020318B9294C08F00017
:10033C004D08F100F00DF10D70107008223EF20026
:10034C0070083A3E84000008F000840A0008F100AE
:10035C0072088400700880007108840A8000CC0A3E
:10036C000319CD0A91292230F000C4290A207030DB
:0E037C000605F0000319C329BD29F001080091
:10038A0083120313BB01BC018601AF3083168605B5
:10039A000D30FC00FB30FD00FD0BD129FC0BD129EF
:1003AA00000000005030831286040330FC009730AE
:1003BA00FD00FD0BDE29FC0BDE2900000000861A79
:1003CA00E729E4290330FC009730FD00FD0BEB29F7
:1003DA00FC0BEB2900000000861EF429F1290D30E0
:1003EA00FC00FB30FD00FD0BF829FC0BF82900008E
:1003FA0000008F3086050330FC009730FD00FD0BAE
:10040A00042AFC0B042A000000008F30831686059C
:10041A0083123A086F3A031D3C2ABB01BC018030A3
:10042A003C06F00080307002031D1D2A08303B0292
:10043A0003183B2A061686163430FC00F130FD00FC
:10044A00FD0B252AFC0B252A000000008F308605AB
:10045A003430FC00F130FD00FD0B312AFC0B312A4F
:10046A0000000000BB0A0319BC0A142A682A3A08C9
:10047A00633A031D682ABB01BC0180303C06F000C8
:10048A0080307002031D4B2A08303B020318682A89
:10049A0086163430FC00F130FD00FD0B522AFC0BAD
:1004AA00522A000000008F3086053430FC00F130FB
:1004BA00FD00FD0B5E2AFC0B5E2A00000000BB0A51
:1004CA000319BC0A422A5030860486163430FC00CE
:1004DA00F130FD00FD0B6F2AFC0B6F2A00000000B3
:0C04EA008F308605FF3083168600080066
:1004F60003208A110A128000840AA00A0319A10A9D
:08050600F003031D7B2A08002D
:10050E0083120313BE01BF01C001C1010230850079
:10051E00861BE12A80304106F00080303D067002D5
:10052E00031DA32A3C084002031DA32A3B083F02D9
:10053E00031DA32A3A083E020318E12A0430FB00E9
:10054E000C30FC003330FD00FD0BAB2AFC0BAB2A4C
:10055E00FB0BAB2A00000000071CC92A8230FC00EE
:10056E00DD30FD00FD0BB92AFC0BB92A000000009E
:10057E00071CC92A3A08BE003B08BF003C08C00051
:10058E003D08C1003E08F0003F08F1004008F200AF
:10059E004108F300F00A0319F10A0319F20A0319CC
:1005AE00F30A7008BE007108BF007208C00073081D
:1005BE00C1008F2A8501BE01BF01C001C101080023
:1005CE00403083120313B5004230B6000F30B7002F
:1005DE000030B8006330B900032170300605F10019
:1005EE007108503A031D3B2B1E217008B400700891
:1005FE0084000008F100840A0008F2007208003A34
:10060E00031D0B2B10307106031D192B3508BA0074
:10061E003608BB003708BC003808BD00A3206F3079
:10062E00B900342B0230340784000008F100840A2C
:10063E000008F20000307206031D272B00307106F1
:10064E00031D342B3508BA003608BB003708BC0032
:10065E003808BD0087226330B90070300605F000FF
:10066E0003193A2B342B702B071C702B0330FC0014
:10067E009730FD00FD0B412BFC0B412B00000000C1
:10068E00071C702B3908633A031D5D2B3508BA0021
:10069E003608BB003708BC003808BD00A3206F30F9
:1006AE00BA00C5216F308312B900702B39086F3A2A
:1006BE00031D702B3508BA003608BB003708BC0086
:1006CE003808BD0087226330BA00C521633083121B
:0606DE00B900F42A712BA3
:02400E00F40FAD
:00000001FF
