:02000000B52A1F
:0E0006008312031321088A00200882000800DC
:10001400FF308312031385000330FB000830FC001B
:100024007730FD00FD0B1428FC0B1428FB0B14285F
:1000340085010330FB000830FC007730FD00FD0B28
:100044002128FC0B2128FB0B2128FF3085000330DD
:10005400FB000830FC007730FD00FD0B2F28FC0B63
:100064002F28FB0B2F2885010330FB000830FC00F0
:100074007730FD00FD0B3C28FC0B3C28FB0B3C2897
:10008400FF3085000330FB000830FC007730FD00B2
:10009400FD0B4A28FC0B4A28FB0B4A288501033038
:1000A400FB000830FC007730FD00FD0B5728FC0BEB
:1000B4005728FB0B5728FF3085000330FB0008301E
:1000C400FC007730FD00FD0B6528FC0B6528FB0B5D
:1000D400652885010330FB000830FC007730FD0003
:1000E400FD0B7228FC0B7228FB0B7228FF30850075
:1000F4000330FB000830FC007730FD00FD0B802846
:10010400FC0B8028FB0B802885010330FB000830A2
:10011400FC007730FD00FD0B8D28FC0B8D28FB0BBC
:100124008D28FF3085000330FB000830FC00773059
:10013400FD00FD0B9B28FC0B9B28FB0B9B288501DA
:020144000800B1
:1001460083120313BE01BF01C001C1010130850046
:10015600871BD92880304106F00080303D067002AA
:10016600031DBF283C084002031DBF283B083F0271
:10017600031DBF283A083E020318D9283E08F0009E
:100186003F08F1004008F2004108F300F00A0319A5
:10019600F10A0319F20A0319F30A7008BE0071087E
:1001A600BF007208C0007308C100AB288501BE01FC
:0801B600BF01C001C1010800F6
:1001BE007130831603138F00831203179E019F0164
:1001CE0099019A0196018316031385018312860104
:1001DE00FF308316860083128701873083168700CF
:0601EE00831285010800E8
:1001F40083120313CC01CD01CC01CD0180304D0617
:10020400F00080307002031D092909304C020318E4
:100214006329861A0E290B290330FC009730FD0050
:10022400FD0B1229FC0B12290000000080304D0642
:10023400F00080307002031D212908304C0203189D
:1002440039294C08F0004D08F100F00DF10D701043
:1002540070083A3E840010300605F0000030003982
:10026400F100700880007108840A8000522900306F
:100274004D06031D3F2908304C06031D52294C0826
:10028400F0004D08F100F00DF10D701070083A3EC9
:10029400840050300605F00070088000840A800154
:1002A400861E552952290330FC009730FD00FD0BB2
:1002B4005929FC0B592900000000CC0A0319CD0A66
:1002C400002900304B06031D692950304A06031DDE
:1002D4009829CC01CD0180304D06F00080307002A9
:1002E400031D762908304C02031895294C08F000A8
:1002F4004D08F100F00DF10D70107008223EF2006F
:1003040070083A3E84000008F000840A0008F100F6
:1003140072088400700880007108840A8000CC0A86
:100324000319CD0A6D292230F000A0290A2070306B
:0E0334000605F00003199F299929F001080021
:1003420083120313BB01BC018601AF3083168605FD
:100352000D30FC00FB30FD00FD0BAD29FC0BAD297F
:10036200000000005030831286040330FC009730F6
:10037200FD00FD0BBA29FC0BBA2900000000861A09
:10038200C329C0290330FC009730FD00FD0BC729AB
:10039200FC0BC72900000000861ED029CD290D3094
:1003A200FC00FB30FD00FD0BD429FC0BD42900001E
:1003B20000008F3086050330FC009730FD00FD0BF6
:1003C200E029FC0BE029000000008F30831686052F
:1003D20083123A086F3A031D182ABB01BC01803010
:1003E2003C06F00080307002031DF92908303B0200
:1003F2000318172A061686163430FC00F130FD0069
:10040200FD0B012AFC0B012A000000008F3086053B
:100412003430FC00F130FD00FD0B0D2AFC0B0D2ADF
:1004220000000000BB0A0319BC0AF029442A3A085A
:10043200633A031D442ABB01BC0180303C06F00034
:1004420080307002031D272A08303B020318442A19
:1004520086163430FC00F130FD00FD0B2E2AFC0B19
:100462002E2A000000008F3086053430FC00F13067
:10047200FD00FD0B3A2AFC0B3A2A00000000BB0AE1
:100482000319BC0A1E2A5030860486163430FC003A
:10049200F130FD00FD0B4B2AFC0B4B2A0000000043
:0C04A2008F308605FF30831686000800AE
:1004AE0003208A110A128000840AA00A0319A10AE5
:0804BE00F003031D572A08009A
:1004C60083120313BE01BF01C001C10102308500C2
:1004D600861BA32A80304106F00080303D0670025C
:1004E600031D7F2A3C084002031D7F2A3B083F026A
:1004F600031D7F2A3A083E020318A32A0330FC0094
:100506009730FD00FD0B852AFC0B852A00000000B4
:100516003E08F0003F08F1004008F2004108F300F1
:10052600F00A0319F10A0319F20A0319F30A70080B
:10053600BE007108BF007208C0007308C1006B2AB4
:100546000330FC009730FD00FD0BA72AFC0BA72A01
:1005560000000000861FB42A8501BE01BF01C0014C
:04056600C1010800C7
:10056A00403083120313B5004230B6000F30B70093
:10057A000030B8006330B900DF2070300605F100A2
:10058A007108503A031D092BFA207008B40070084C
:10059A0084000008F100840A0008F2007208003A98
:1005AA00031DD92A10307106031DE72A3508BA003F
:1005BA003608BB003708BC003808BD00A3206F30DE
:1005CA00B900022B0230340784000008F100840AC3
:1005DA000008F20000307206031DF52A0030710689
:1005EA00031D022B3508BA003608BB003708BC00C9
:1005FA003808BD0063226330B90070300605F00088
:10060A000319082B022B3E2B071C3E2B0330FC0040
:10061A009730FD00FD0B0F2BFC0B0F2B0000000089
:10062A00071C3E2B3908633A031D2B2B3508BA00E9
:10063A003608BB003708BC003808BD00A3206F305D
:10064A00BA00A1216F308312B9003E2B39086F3AE4
:10065A00031D3E2B3508BA003608BB003708BC001C
:10066A003808BD0063226330BA00A12163308312C7
:06067A00B900C22A3F2B6B
:02400E00F40FAD
:00000001FF
