:10000000E5EF05F00000000000EF00F00000000048
:0A0010000000000000000000F3D71C
:10001C00400E816E030E0C6E970E0D6E0D2EFED7DC
:10002C000C2EFCD7000000001F0E8114016E015035
:10003C00020A03E1320E006E1CD01F0E8114016EF9
:10004C000150040A03E1350E006E13D01F0E81140B
:10005C00016E0150080A03E1380E006E0AD01F0E23
:10006C008114016E0150100A03E1300E006E01D0B4
:04007C00006A120004
:10008000200E816E030E0C6E970E0D6E0D2EFED798
:100090000C2EFCD7000000001F0E8114016E0150D1
:1000A000020A03E1310E006E1CD01F0E8114016E96
:1000B0000150040A03E1340E006E13D01F0E8114A8
:1000C000016E0150080A03E1370E006E0AD01F0EC0
:1000D0008114016E0150100A03E12A0E006E01D056
:0400E000006A1200A0
:1000E400800E816E030E0C6E970E0D6E0D2EFED7D4
:1000F4000C2EFCD7000000001F0E8114016E01506D
:10010400020A03E1330E006E1CD01F0E8114016E2F
:100114000150040A03E1360E006E13D01F0E811441
:10012400016E0150080A03E1390E006E0AD01F0E59
:100134008114016E0150100A03E1230E006E01D0F8
:04014400006A12003B
:100148000900F5CFE6FF0006FBE10106F9E1120020
:10015800C26A4EC000F0003600900036009000C021
:10016800C2FFC280C282C2A201D0FDD7C290FF0ED8
:10017800C402F3CF00F0F4CF01F0C3500026000E04
:04018800012212003E
:10018C00566A576A586A596A5A6A5B6A5C6A5D6A47
:10019C005E6A5F6A8086800E2318006E800E571888
:1001AC00005C02E15650225C5FE3800E5B18006E2F
:1001BC00800E005C02E1040E5A5C56E2564A572A45
:1001CC0059DF005219E05A4A5B2A566A576A4E0E9A
:1001DC005824606E000E5920616E4CDF60C0E1FF48
:1001EC0061C0E2FF00C0E6FF584A592A1E0E811476
:1001FC00006E01E0FBD737D00BDF005219E05A4AF2
:10020C005B2A566A576A4E0E5824606E000E5920AF
:10021C00616EFEDE60C0E1FF61C0E2FF00C0E6FF80
:10022C00584A592A1E0E8114006E01E0FBD71BD0D0
:10023C0053DF005218E05A4A5B2A566A576A4E0E30
:10024C005824606E000E5920616E46DF60C0E1FFDD
:10025C0061C0E2FF00C0E6FF584A592A1E0E811405
:10026C00006E01E0FBD797D7000E5B1802E1040E7D
:10027C005A1803E0006A016AE0D0000E5B1802E134
:10028C00040E5A18D8A4D9D00A0E8012030E0B6E85
:10029C00080E0C6E770E0D6E0D2EFED70C2EFCD7A5
:1002AC000B2EFAD7FD0E801680865A6A5B6A586A46
:1002BC00596A566A576A800E5718006E800E2318BA
:1002CC00005C02E12250565C5DE2800E5B18006E11
:1002DC00800E005C02E1040E5A5C54E2CBDE00524C
:1002EC0019E05A4A5B2A566A576A520E5824606EB5
:1002FC00000E5920616EBEDE60C0E1FF61C0E2FFFE
:10030C0000C0E6FF584A592A1E0E8114006E01E007
:10031C00FBD737D07DDE005219E05A4A5B2A566A69
:10032C00576A520E5824606E000E5920616E70DEB2
:10033C0060C0E1FF61C0E2FF00C0E6FF584A592AE5
:10034C001E0E8114006E01E0FBD71BD0C5DE0052DF
:10035C0018E05A4A5B2A566A576A520E5824606E45
:10036C00000E5920616EB8DE60C0E1FF61C0E2FF93
:10037C0000C0E6FF584A592A1E0E8114006E01E097
:10038C00FBD799D7000E5B1802E1040E5A1803E054
:10039C00006A016A52D0000E5B1802E1040E5A1872
:1003AC004CE15C6A5D6A800E5D18006E800E005C2C
:1003BC0002E1040E5C5C17E24E0E5C24E96E000E4A
:1003CC005D20EA6E520E5C24D96E000E5D20DA6E52
:1003DC00EE50DE1803E15E4A5F2A02D05E6A5F6A65
:1003EC005C4A5D2AE0D7000E5F1802E1040E5E182D
:1003FC0021E15C6A5D6A800E5D18006E800E005C07
:10040C0002E1040E5C5C11E2190E5C24E16E000E3C
:10041C005D20E26E4E0E5C24E96E000E5D20EA6EED
:10042C00EECFE6FF5C4A5D2AE6D7010E006E000EA9
:0C043C00016E03D0006A016A00D01200BB
:100448004E6A4F6A506A516A526A536A546A556AC8
:10045800566A576A586A596A5A6A5B6A4E4A4F2AF4
:100468000BDE005241E05A4A5B2A4E6A4F6A04DEAC
:10047800190E5824D96E000E5920DA6E0050DE1875
:1004880003E1584A592A02D0586A596A81A822D0E9
:10049800010E5026000E512252225322800E53186C
:1004A800006E800E1818005C08E11750525C05E1D8
:1004B8001650515C02E11550505C0BE3000E5918C0
:1004C80002E1000E581805E1FF0E006EFF0E016EE6
:1004D8009AD0DCD7506A516A526A536A1E0E811448
:1004E800006E01E0FBD765D095DD005219E05A4A4D
:1004F8005B2A4E6A4F6A8EDD190E5824D96E000E9B
:100508005920DA6E0050DE1803E1584A592A02D001
:10051800586A596A1E0E8114006E01E0FBD749D053
:10052800DDDD005246E05A4A5B2A4E6A4F6AD6DD44
:10053800190E5824D96E000E5920DA6E0050DE18B4
:1005480003E1584A592A02D0586A596A81A828D022
:10055800000E591802E1000E581822E1010E542627
:10056800000E552256225722800E5718006E800E14
:100578002118005C08E12050565C05E11F50555CCD
:1005880002E11E50545C0BE3000E591802E1000E04
:10059800581805E1070E006E000E016E34D0D6D74C
:1005A800546A556A566A576A1E0E8114006E01E035
:1005B800FBD7800E4F18006E800E2318005C02E1F6
:1005C80022504E5C03E3006A016A1DD0000E5B18DE
:1005D80002E1040E5A1816E1000E591802E1040E41
:1005E800581809E1586A596A5A6A5B6A010E006E1E
:1005F800000E016E08D0586A596A5A6A5B6A006A26
:08060800016A01D02BD712009A
:10061000F70E8016270E0C6EF50E0D6E0D2EFED702
:100620000C2EFCD7808610DF000E011802E1010EAF
:10063000001827E10A0E8012030E0B6E080E0C6ED6
:10064000770E0D6E0D2EFED70C2EFCD70B2EFAD783
:10065000FD0E80169BDD0050011011E00A0E801285
:10066000030E0B6E080E0C6E770E0D6E0D2EFED760
:100670000C2EFCD70B2EFAD7FD0E801601D08084ED
:0606800001D0808412008D
:10068600DE0EF66E0C0EF76E000EF86E280EE16E9C
:10069600000EE26E140E006E010E016E52DD286A27
:1006A600296A800E2918006E800E005C02E1090E90
:1006B600285C58E282BA01D0FDD7030E0C6E970E65
:1006C6000D6E0D2EFED70C2EFCD700000000800EFE
:1006D6002918006E800E005C02E1080E285C18E204
:1006E60028C000F029C001F00036009001363C0E0B
:1006F6000024E16E000E0120E26E100E8214006EE0
:10070600000E000B016E00C0E6FF01C0E6FF1AD026
:10071600000E291802E1080E281814E128C000F07E
:1007260029C001F00036009001363C0E0024E16E2F
:10073600000E0120E26E500E8214006E00C0E6FF2D
:10074600000EE66E82AA01D0FDD7030E0C6E970E40
:100756000D6E0D2EFED70C2EFCD700000000284A89
:10076600292A9FD7806A000E4D1802E1500E4C18B8
:1007760043E12A6A2B6A286A296A800E2918006EC4
:10078600800E005C02E1090E285C31E228C000F010
:1007960029C001F00036009001363C0E0024E96EB7
:1007A600000E0120EA6EEECF00F0EECF01F0005011
:1007B60001101AE0800E2918006E800E005C02E11E
:1007C600080E285C11E228C000F029C001F00036AE
:1007D600009001362C0E0024D96E000E0120DA6E30
:1007E600DE502A26DE502B22284A292AC6D72AC0BE
:1007F60000F02BC001F009D0700E8214006E01E0EB
:0C080600FBD7FF0E006EFF0E016E12000B
:10081200816A1F0E936E826AF00E946E806A010ED8
:080822009216836A956A120028
:0A082A00070EC16E8A0EC06E1200A8
:10083400000E286E350E296E0C0E2A6E000E2B6EDD
:100844002C6A2D6A220E8012820E0C6EDD0E0D6E45
:100854000D2EFED70C2EFCD7000000004E6A7ADC69
:10086400800E0118026E800E025C02E1A50E005C8F
:1008740018E3800E2DBE7F0E006E800E2B18005CD8
:100884000CE1000E2DBEFF0E006E2A50005C05E147
:1008940029502D5C02E128502C5C03E22C4A2D2ABD
:1008A400DDD72C6A2D6ADF0E8016020E0B6E040E45
:1008B4000C6EBA0E0D6E0D2EFED70C2EFCD70B2E21
:1008C400FAD700008088820E0C6EDD0E0D6E0D2EA0
:1008D400FED70C2EFCD7000000004E6A3BDC800ED5
:1008E400010A026E800E0118025C02E100502C081D
:1008F40018E3800E2DBE7F0E006E800E2B18005C58
:100904000CE1000E2DBEFF0E006E2A50005C05E1C6
:1009140029502D5C02E128502C5C03E22C4A2D2A3C
:10092400DCD7EF0E80162C6A2D6A1A0E0C6EF80EA8
:0E0934000D6E0D2EFED70C2EFCD7000012000B
:10094200000E286E350E296E0C0E2A6E000E2B6ECE
:100952002C6A2D6A120E8012820E0C6EDD0E0D6E46
:100962000D2EFED70C2EFCD7000000004E6AACEC18
:1009720000F0800E020A026E800E0118025C02E193
:100982000050580818E3800E2DBE7F0E006E800EB8
:100992002B18005C0CE1000E2DBEFF0E006E2A50DB
:1009A200005C05E129502D5C02E128502C5C03E239
:1009B2002C4A2D2ADBD72C6A2D6AEF0E8016020EE6
:1009C2000B6E040E0C6EBA0E0D6E0D2EFED70C2E93
:1009D200FCD70B2EFAD70000220E8012820E0C6E6C
:1009E200DD0E0D6E0D2EFED70C2EFCD70000000082
:1009F2004E6AACEC00F0800E0118026E800E010A05
:100A0200025C02E12C0E005C18E3800E2DBE7F0E0C
:100A1200006E800E2B18005C0CE1000E2DBEFF0E46
:100A2200006E2A50005C05E129502D5C02E128503D
:100A32002C5C03E22C4A2D2ADBD72C6A2D6ADF0EAE
:100A420080161A0E0C6EF80E0D6E0D2EFED70C2EA1
:060A5200FCD700001200B9
:100A5800296A2A6A8F0E8216AF0E94160D0E0C6E36
:100A6800FB0E0D6E0D2EFED70C2EFCD700000000DD
:100A7800500E821282BA01D0FDD7030E0C6E970E6B
:100A88000D6E0D2EFED70C2EFCD70000000082BA8A
:100A980001D0FDD7030E0C6E970E0D6E0D2EFED7EE
:100AA8000C2EFCD70000000082AA01D0FDD70D0E45
:100AB8000C6EFB0E0D6E0D2EFED70C2EFCD7000013
:100AC80000008F0E8216030E0C6E970E0D6E0D2E03
:100AD800FED70C2EFCD7000000008F0E941628506D
:100AE8006C0A27E1296A2A6A800E2A18006E800E8D
:100AF800005C02E1080E295C1BE28288828A340EBF
:100B08000C6EF10E0D6E0D2EFED70C2EFCD70000CC
:100B180000008F0E8216340E0C6EF10E0D6E0D2E27
:100B2800FED70C2EFCD700000000294A2A2ADCD761
:100B380036D02850750A33E1296A2A6A800E2A18A5
:100B4800006E800E005C02E1080E295C28E2800E2F
:100B58002A18006E800E005C02E1040E295C04E293
:100B68008F0E8216828A02D08288828A340E0C6E98
:100B7800F10E0D6E0D2EFED70C2EFCD700000000D6
:100B88008F0E8216340E0C6EF10E0D6E0D2EFED7E2
:100B98000C2EFCD700000000294A2A2ACFD7500E75
:100BA8008212828A340E0C6EF10E0D6E0D2EFED757
:100BB8000C2EFCD7000000008F0E8216700E9412C7
:020BC800120019
:100BCA0081EC06F0246A256A266A276A1DDE28DE79
:100BDA00500E8214016E0150500A14E14FDD00C01C
:100BEA0026F001C027F00150000A02E1FF0E0018AA
:100BFA0002E11BDE07D02750000A02E1000E261888
:100C0A0001E19ADE82AE1AD0270E0C6EF50E0D6E39
:100C1A000D2EFED70C2EFCD782AE10D01D50750AB1
:100C2A0004E16C0E1D6E88DE06D01D506C0A03E1CD
:100C3A00750E1D6EFADD1DC028F009DF82AE01D0E7
:100C4A00FDD78F0E8216E00E816E1E0E8114006E85
:100C5A003FE024EC02F000C024F001C025F0000EB1
:100C6A00011802E1010E001804E18082DEDD806ACB
:100C7A002FD0FF0E251802E1FF0E241810E18086FE
:100C8A00030E0B6E080E0C6E770E0D6E0D2EFED730
:100C9A000C2EFCD70B2EFAD7B6DC806A19D0000EC0
:100CAA00251802E1070E241804E1808245DE806AD5
:100CBA000FD0040E806E030E0B6E080E0C6E770EAC
:100CCA000D6E0D2EFED70C2EFCD70B2EFAD7806A8E
:040CDA007FD7FFD7EA
:100D020010EE15F00F0E006E010E016EF20EF66E71
:0E0D12000C0EF76E000EF86EA4EC00F012004E
:020CDE00000014
:020CE000000012
:100CE2008000400020001000080004000200010003
:040CF2008038010045
:040CF6003132333430
:010CFA007584
:040CFB00B80B000032
:020CFF00F401FE
:020000040030CA
:0D000100081F1EFF8381FF0FC00FE00F409E
:00000001FF
